:10000000F8FF002011040000574B0000574B000080
:10001000574B0000574B0000574B0000574B000058
:10002000574B0000574B0000574B0000574B000048
:10003000574B0000574B0000574B0000574B000038
:10004000574B0000574B0000574B0000574B000028
:10040000FFFFFFFFFFFFFFFFFFFFFFFFFEFFFFFFFD
:1004100062B605F0A5FEFEE72DE9F04FA1B08246D9
:10042000002017461D4602910B900DF1440B6FF012
:1004300000490AE017F8011B0298D04702900028F3
:1004400000F0A2820B98401C0B90387808B90B98EA
:100450009CE22528EED10020059006900790089098
:1004600009900A9001E040F0010017F8011F2029CF
:10047000F9D023290DD02B2904D02D2906D03029DD
:100480000AD00CE040F0020080B2EEE740F0040039
:10049000FAE740F00800F7E740F01000F4E72A29F7
:1004A0000ED12968296051F8042B2960002A0D9289
:1004B00004D5514240F004000D9180B27F1C11E040
:1004C00000210D9109E00D99494505D001EB81030B
:1004D00002EB430130390D917F1C3A78A2F13001D3
:1004E0000A29F0D339782E2903D04FF0FF310C912F
:1004F0001DE017F8011F2A2907D1296829607F1CF0
:1005000051F8042B29600C9211E000210C9109E0B4
:100510000C99494505D001EB810302EB43013039C9
:100520000C917F1C3A78A2F130010A29F0D3ADF882
:1005300038000FF6B820397800F076FD08B117F8CA
:10054000010B8DF83A009DF83A00682802BF39780F
:100550006829622005D06C2804BF38786C2803D144
:1005600071208DF83A007F1C11A8049017F8014BF8
:10057000B4F1250024D02038022840F2C580133879
:1005800000F0EB800B3800F04F81401E00F024811A
:10059000401E022840F2B880001F00F01D81401F5D
:1005A00000F08380401E00F0D880401E29D0C01E7D
:1005B0000CD0801E00F0D180C01E00F0CE803DE146
:1005C0000120059025208DF8440043E1286828602B
:1005D00050F8044B28600394DDF83080B8F1000F28
:1005E00004D5204600F02CFD804607E0424600215D
:1005F000204600F041FD08B1A0EB0408CDF81880BA
:1006000028E1296829604FF03C0851F8040B296063
:100610000021CDE9000111A80390DDE90001049C4F
:1006200011B908B90C9AC2B10206120FA0EB02125E
:100630003032D2B23A2AA8BF27320009A8F101030A
:1006400040EA017009091A5508BF0028984604D0ED
:10065000039A08EB04039A42E6D308EB04000390E4
:10066000C8F13C010C980691814209DA401A0890C1
:100670004FF6EF71BDF838000840ADF83800E9E0FA
:10068000002840F1E7809DF8380000F014001028A1
:1006900040F0E0800D98059A801A089A801A401A56
:1006A0000128C0F2D7800890D4E09DF83A00622873
:1006B0001AD0682806D06A280CD06C281CD0712863
:1006C00008D019E02868286050F8041B28600B98AF
:1006D0000880BFE02868286050F8042B28600B9839
:1006E000C117C2E90001B5E02868286050F8041B72
:1006F00028600B980870ADE02868286050F8041B4B
:1007000028600B980860A5E02868C01D20F007024B
:100710002A60D2E9000108322A60CDE900010029EF
:1007200003D5012005902D200CE0BDF8380081078D
:1007300003D5012005902B2004E0C00704D501203B
:10074000059020208DF84400059911A80818039001
:10075000214600A800F0D8F97CE09DF83A206C2AE8
:100760000DD0712A18BF6A2A09D12868C01D20F04F
:1007700007032B60D3E9000108332B6005E02968EB
:10078000296051F8040B29600021CDE90001682A95
:1007900008BF80B207D0622A08BFC0B203D0742A53
:1007A00018BF7A2A02D10021CDE900019DF8380056
:1007B000000730D5DDE90001002908BF00282AD054
:1007C00044F02000782826D130208DF844008BF8A2
:1007D0000140022005901EE09DF83A00294600F0F5
:1007E000D8F8CDE90001002904DA0598411C0591EB
:1007F0002D210EE0BDF83800810704D50598411C75
:1008000005912B2105E0C00705D50598411C0591F0
:10081000202100F80B10059911A808180390214613
:1008200000A800F0EDF815E0012005902868286088
:1008300050F8041B28608DF844100BE0012005904F
:100840002520002C8DF8440004D00598411C05910A
:1008500000F80B400D980599401A0899401A06991E
:10086000401A0999401A0799401A0A99A0EB010801
:100870009DF8380040070FD420208DF84000002458
:1008800008E0012310AA00A9504600F098FB0028B8
:100890007AD1641C4445F4DB059C11AE0AE016F8DD
:1008A000011B0298D047029000286DD00B98401C85
:1008B0000B90641E002CF2D130208DF840000026F1
:1008C000089C08E0012310AA00A9504600F077FB1D
:1008D000002859D1761CA642F4DB069C039E0AE050
:1008E00016F8011B0298D047029000284CD00B98B4
:1008F000401C0B90641E002CF2D130208DF840007B
:100900000026099C07E0012310AA00A9504600F028
:1009100056FBC8BB761CA642F5DB03980699079CDC
:100920000E1809E016F8011B0298D047029058B340
:100930000B98401C0B90641E002CF3D130208DF8D6
:10094000400000260A9C07E0012310AA00A9504697
:1009500000F035FBC0B9761CA642F5DB9DF83800E7
:1009600040077FF572AD20208DF84000002400E0A4
:10097000641C4445BFF669AD012310AA00A9504686
:1009800000F01DFB0028F3D04FF0FF3021B0BDE890
:10099000F08F622826D068281DD06A2808D06C28DD
:1009A00027D0712804D0742823D07A280CD020E0D6
:1009B0000868C01D20F007000860D0E90023083057
:1009C00008601946104670470A680A6052F8040B1E
:1009D0000A60002170470A680A6052F8040B0A6036
:1009E00000B20BE00A680A6052F8040B0A6040B2D9
:1009F00004E00A680A6052F8040B0A60C1177047E5
:100A00002DE9FA4E05460A462F696F2A08BF0824C9
:100A100005D041F02000782814BF0A2410243C2679
:100A2000D5E90001642A18BF692A81468A4605D1A2
:100A3000002903DAD9F100096AEB4A0ABAF1000F7A
:100A400008BFB9F1000F0CD1286B50B9082C36D172
:100A500095F83800000732D530203B2687F83B0058
:100A60002DE0E31748465146224600F031FBA4FB37
:100A70000023A9EB02023032D2B2A6F1010B3A2ACE
:100A80005E4603DB9DF80030513B9A1881465FEAD1
:100A9000010A0BF8072008BFB9F1000F03D0E8687E
:100AA000F1198842DDD3082C09D195F838000007E8
:100AB00005D5F05D302802D0761E3020F055C6F105
:100AC0003C00A861F119E960296B884208DA081A2C
:100AD00028624FF6EF71288F08402887BDE8F38E13
:100AE00000290ED595F8381001F01401102908D10D
:100AF000696B6A69891A2A6A891A081A0128A8BFC3
:100B00002862BDE8F38E00002DE9F34F8BB0D0E9E9
:100B10000089006B002801AF48BF062005D404BF40
:100B200041F02000672802D101200B99086340F2B0
:100B3000FF720B984168C1F30A50904220D108031C
:100B400002BF0B98006800280AD10B990320886126
:100B50009DF8300061381A2858D30FF2A44109E0FB
:100B60000B99032088619DF8300061381A284AD318
:100B70000FF284410B98C068032200F021FB00E1D2
:100B8000012807DA0B9800F056FB012802DB00234E
:100B90000026EDE00B9ADFF854B1526840F2FE31C6
:100BA00061F31E520B994A6040F2FE31461A4046EC
:100BB00049460022002300F05FFB38BF89F000495E
:100BC00036B247F297507043494990FBF1F636B27E
:100BD000C6F10707012F92461BDBF80707D55246DF
:100BE0005B464046494600F05FFB804689467F10E1
:100BF0005046594652465B4600F056FB002F82464F
:100C00008B46EAD126E00FF2EC31B3E70FF2EC317C
:100C1000B0E77F420024374D12E0F80707D552466F
:100C20005B462046294600F03FFB04460D467F10F8
:100C30005046594652465B4600F036FB82468B468C
:100C4000002FEAD14046494622462B4600F0FEFBE3
:100C5000804689469DF830000B99DFF89CB0096BFF
:100C600040F02005662D0CBF06F10A00062047184B
:100C7000142FA8BF132730208DF804000DF10504B0
:100C8000012F3BDB4046494600F01AFD014604F1C6
:100C9000080204234FF00A0CB1FBFCFC0CEB8C04A3
:100CA000A1EB4401303102F8011D0A21BCFBF1FE29
:100CB0000EEB8E04ACEB440430345B1E714602F83C
:100CC000014DE7D1083F012F02F10804D8DB00F005
:100CD00017FD02460B464046494600F01FFD002224
:100CE0005B4600F0E1FA80468946CBE700002440ED
:100CF000A08601000000F03F84D797410DF1050068
:100D0000201A0DF1050702E0401E761E7F1C39787F
:100D10003029F9D0662D02D136B2711C03E0652D61
:100D20000CBF012100210B9A126B8B181BB2984249
:100D3000B8BF03461BB219001AD4814204DAC85D59
:100D40003528A8BF392000DA3020CA19521E00E029
:100D50005B1E12F80159491E8542F9D0392802D18B
:100D6000C85D401CC855002902D57F1E5B1C761C3F
:100D700036B29DF830100B9800961BB23A4600F040
:100D800003F80DB0BDE8F08F2DE9F04786B00646B8
:100D90008A4690461D4600F09EFD406A376B90F8EB
:100DA0000090012D02DA01250FF258284AF02000A8
:100DB000BDF93840662808BF641C13D0672840F08E
:100DC000888014F1040F73DBBC4271DA96F83800A6
:100DD000641C000702D4BD42B8BF2F4624B23F1B9B
:100DE00048BF002724B2F068B169012C21DA4A1CFF
:100DF00030230B54012F03DA96F83810090702D577
:100E000002F80090521CE742B8BF7C4224B2614213
:100E1000E719AF42B261B8BF3D4671622DB2F561CC
:100E20002A46B3694146181800F0CAF9781BB06227
:100E3000AEE00818A54216DA2A46414600F0C0F98D
:100E4000B1696918601BB161012F706203DA96F80D
:100E50003800000705D5F06801F80090F069401CE3
:100E6000F061B76294E02246414600F0A9F9B0690A
:100E700020182D1B012F03DA96F83810090703D527
:100E8000F16800F80190401CB0612DB2AF42B8BFCC
:100E90003D46F068B3692DB22A4604EB08011818E4
:100EA00000F08EF9B0692818B061781B70626FE0AD
:100EB000BD4204DA96F83810090758BF2F467F1E46
:100EC00048BF0027BAF1670F0CBF4FF0650A4FF01B
:100ED000450AB169F06818F8013B0B544A1C012F10
:100EE00005DA96F83810090758BFB26115D502F82F
:100EF0000090531C012FB3610FDB6D1E2DB2AF426A
:100F0000B8BF3D462DB22A464146181800F058F9A0
:100F1000B0692818B061781B7062F068B16901EBA4
:100F20000008200008F801AB03D42B2008F8010BBF
:100F300003E02D2108F8011B6442002502AF08E000
:100F40000A2200A800F0E0FC019807F8010B6D1CD4
:100F5000009C21B20129F3DA022D06DA4AF02000C2
:100F6000652804BF302008F8010B4DB9302008F87F
:100F7000010B07E06D1E02A8285C303008F8010B59
:100F8000012DF7DAF068B1690818A8EB0000F061EC
:100F900096F8380000F0140010280DD17069B1697E
:100FA0000818716A0818F1690818B16A0818716B95
:100FB0008842BCBF081A306206B0BDE8F087F8B5B9
:100FC00004460D4616461F46002004E0E86A401C11
:100FD000E8627F1E002047B116F8011BA868A047F1
:100FE000A8600028F2D14FF0FF30F2BD686A6C743F
:100FF0007A4C00006E616E004E414E00696E6600D4
:10100000494E4600300050F8041B61B150F8042BE3
:10101000D30744BFA9F101039A180023091F42F81E
:10102000043BFAD1EFE770470278C9B28A421AB19D
:101030001CBF10F8012FF9E718BF00207047FF0010
:1010400000F10103810704D010F8011B89B1810769
:10105000FAD10268B2F10131914311F0803F04BF2F
:1010600050F8042FF6E710F8011B11B110F8011B1E
:10107000FBE7C01A70470000C9B2830706D0521EB2
:1010800022D310F8013B9942F7D11FE0083A13D35D
:1010900002F1040241EA012141EA014150F8043B16
:1010A000121F21BF4B40A3F1013C2CEA030C1CF0A2
:1010B000803FF3D0C9B2001F083210F8013B521E26
:1010C00028BF91EA030FF8D818BF0120401E7047CF
:1010D0001B4213D1094236D12AB18446B0FBF2F04B
:1010E00002FB10C2704700F017BCFCD300220023A3
:1010F00070470B000200002100207047904271EB06
:10110000030CF6D370B5B1FA81F4B3FA83F52C1B56
:10111000A340C4F1200532FA05F63343A2405FF044
:101120000046E64002E05B085FEA3202841A71EB97
:10113000030524BF204629467641F4D302000B0064
:101140003000002170BD012ACFD970B5140C20D019
:10115000B1FA81F4B2FA82F5C4F120046419B4F151
:101160002006D6D3B2405FF00044F440002502E0F0
:1011700052085FEA3303C61A71EB020E24BF3046F1
:10118000714664416D41F3D302000B002000290039
:1011900070BD0C46B1FBF2F102FB11452D0445EA8E
:1011A0001045B5FBF2F402FB145580B240EA054548
:1011B000B5FBF2F002FB105240EA044070BD0000A3
:1011C00062B38B0708D0521E11F8013B00F8013BB7
:1011D00000F024808B07F6D1830740F0208000BF09
:1011E000103A07D330B4B1E83810103AA0E83810FC
:1011F000F9D230BC530724BFB1E80810A0E80810AA
:1012000044BF51F8043B40F8043BD20724BF31F8F7
:10121000022B20F8022B44BF0B7803707047083A6A
:1012200007D3B1E80810083A40F8043B40F804CB73
:10123000F7D25307E4E730B4436803F000420121DA
:101240001B031B0B436004BF0368002B08D10DE098
:101250000368DD0F45EA440444605B000360491EF7
:101260004468E302F4D523031B0B436043681A432D
:101270004260084630BC70474FF4001C1CEB410F25
:1012800094BF1CEB430F09E041EA030C50EA4C0CFD
:1012900052EA0C0C03D2994208BF9042704714BF27
:1012A0008B42824270470000B0B581EA030C0CF01B
:1012B000004C40F2FF7515EA11541DBF15EA135793
:1012C000AC42AF4239E0E41923EA455343F48013BA
:1012D000C90241F0004141EA505EC7021100A7FB7C
:1012E000020200284FF00000EEFB01204FF0000149
:1012F000E3FB072118BF42F00102401800214941D9
:10130000E3FB0E01A4F580640F0302D252004041BA
:10131000494154F101046CDD470872F1004250F17B
:10132000000051EB0451A1F580115CBF41EA0C01B2
:10133000B0BD4CEA05510020B0BD05EA1357AC42E0
:1013400014BFAF4241E050EA410E1CBF52EA430EC7
:1013500002E061460020B0BD24423C441BD15FEA5C
:10136000070EF6D0090302BF01460020AEF1140EAD
:10137000B1FA81F7AEEB070401FA07FE0C37C7F1AB
:10138000200100FA07F7C8404EEA000E23EA455351
:1013900043F48013A2E733F00043B3FA83F704BFAA
:1013A000B2FA82FE77440B3FE41BB7F1200E2FBF49
:1013B00002FA0EF3BB40C7F1200E22FA0EFE38BF30
:1013C00043EA0E03BA40641C82E750EA410E14BFA0
:1013D00052EA430E6FF000014FF4001717EB430F72
:1013E0008ABF194617EB410FB5E74CEA05510020BB
:1013F000B0BDD4F10104B4F120070FDAC4F1200725
:10140000520828BF42F0010210FA07F501FA07F767
:10141000E1BF2A43E0403843E1400FE0352C98DC3F
:10142000C7F1200452EA400220FA07F218BF42F046
:10143000010231FA07F0A1400A43002172F1004293
:1014400050F1000051EB0C01B0BD0000F0B540F2CE
:10145000FF7581EA030C0CF0004C15EA11541DBF16
:1014600015EA1357AC42AF42E5E0BC41C1F31301AA
:10147000C3F31303801A994143F4801304D2641E0A
:101480004000494180185941C90241EA5051B1FB1D
:10149000F3F603FB1611A2FB0675D7EBC020A9419A
:1014A00002D2761E80185941C90241EA5051B1FB5F
:1014B000F3FE03FB1E11A2FB0E75D7EBC020A94162
:1014C00003D2AEF1010E80185941890241EA9051D0
:1014D000760546EA8E2EB1FBF3F603FB1611A2FB4E
:1014E0000675D7EB8020A94102D2761E801859419B
:1014F000C90241EA50514EEA060EB1FBF3F603FB76
:101500001611A2FB0675D7EBC020A94102D2761EA8
:1015100080185941C90241EA5051B1FBF3F703FB6E
:101520001711A2FB0735D3EBC020A94167F10007D3
:101530000CBF004247F0010766F3D5274FEA1E3182
:10154000B80814F5806412DDBD0775F1004250EB58
:101550000E5051EB045111F5801F5CBF41EA0C01A4
:10156000F0BD4CF07F6141F0E0410020F0BDBD07CF
:101570006D0840EA0E5041F48011D4F10104B4F139
:1015800020060ADAC4F120060200E04001FA06F360
:10159000E1401843B24015430EE0342C13DCC6F191
:1015A000200445EA40056D0820FA06F2154321FAA9
:1015B00006F0A1400D43002175F1004250F10000FA
:1015C00051EB0C01F0BD00205FEA0C01F0BDCFB97A
:1015D00092185B41B3FA83F704BFB2FA82F6BF19DF
:1015E0000B3FB7F120062FBF02FA06F3BB40C7F14D
:1015F000200622FA06F638BF3343BA401CB1E4197C
:10160000641E33E77F4231F00041B1FA81F404BF38
:10161000B0FA80F6A4190B3CB4F120062FBF00FAF3
:1016200006F1A140C4F1200620FA06F638BF314386
:10163000A0403C1B1AE7AC421ABF05EA1357AF4261
:1016400012E050EA41061CBF52EA4306BFE750EAE7
:101650004107304661461CBF41EA0551F0BD52EAE0
:10166000430C08BFC143F0BD00204FF4001616EB39
:10167000410F98BF16EB430F08BF16EB410F24BF75
:10168000C14305E016EB430F0CBF61464CEA055120
:10169000F0BD0000F446400D40EAC120490006D2EA
:1016A00000F014F8004248BF6FF00040604700F0BF
:1016B0000DF84FF0004188428CBF08464042604719
:1016C000400D40EAC120490080F00D8040F000400C
:1016D000490DA1F58061491C05D4D1F11F0154BF0A
:1016E000C840C01770474FF000007047010040F13C
:1016F0000980F446404200F005F851F0004160478F
:10170000010000BF09D0B0FA80F18840C91CC1F5C2
:101710008461090501EBD0214005704770B44FF09A
:10172000004591EA030F44BF6B4000F001B900BFD0
:10173000841A71EB030604D26E40001BB1411219EA
:1017400073414FF4001C1CEB410F34BF7CEB43068C
:1017500084E00C0DA4EB1356362E7DDC012E43DC09
:1017600045EAC32343EA525312BFD20292025B08F6
:10177000240545EAC12141EA5051D2EBC0209941EC
:1017800025D407D1B0FA80F610FA06F164D0002013
:10179000203608E0B1FA81F6B140C6F1200220FA05
:1017A00002F21143B0404FEAF474B4EB465434F003
:1017B00001064FEA74040AD8D6F50016760D04F037
:1017C0000044F04061FA06F25040F1404840C00A3F
:1017D00040EA415021F0004128BF5FEA500550F136
:1017E000000044EBD12137E045EAC323DB0A45EA98
:1017F000C121C90AB6F120050EDD42EA0242120CEF
:10180000C5F1200603FA06F6EB4042EA06056D42F2
:10181000984161F100010DE062FA06F5F240554091
:1018200063FA06FC82EA0C02F3405A406D42904192
:1018300061EB030111F4801F05D1641E620502D023
:101840006D004041494121F48011430875F1004386
:1018500050F1000041EB045170BC70471CEB410F8C
:1018600015D223F0004352EA43060BD04FEA4C0C4A
:10187000BCEB410F04D80C0D661E342EB7DDEBE730
:10188000801A994150EA410608BF0021E4E708BFE9
:101890001CEB430F28BF6FF00001DDE780B5134854
:1018A00000F0B0F80FF24801016041608160C16052
:1018B0000161416181610FF23C0242628162C16259
:1018C000016341630FF2300282630FF23402C2639C
:1018D0000164416401BD10B5044800F093F804466A
:1018E000206808B9FFF7DAFF204610BDB429FF1FB2
:1018F000000000002E00000066616C7365000000AF
:10190000747275650000000091FBF2F303FB121185
:10191000C0E90031704700007047000070B44FF01C
:10192000004591EA030C44BF6B40FFF701BF00BFC5
:10193000841A71EB030603D2001BB14112197341E3
:101940004FF4001C1CEB410F34BF7CEB430443E01D
:101950000C0DA4EB1356352E50DC45EAC323DB0AED
:1019600045EAC121C912B6F120050DDD63FA05F67D
:10197000EB4086EA0305124218BF45F00105C01886
:1019800051F100010CD213E062FA06F5F240554025
:10199000F3415A40B340F3405A408018594107D3AD
:1019A00049085FEA30005FEA350528BF45F00105C8
:1019B00001F58011420875F1004250F1000041EB41
:1019C000045170BC4FF4001C1CEB410F38BF704732
:1019D0000020090D090570471CEB410F10D252EA97
:1019E00043060BD0BCEB410F05D80C0DAB43661E74
:1019F000342EB5DD02E0AB438018594170BC70470E
:101A000070BC704770470000012110F01F02914028
:101A1000DFF82C2640B2430942F82310704710B477
:101A200040B2002809D50A01DFF8183640B210F09C
:101A30000F04E31803F8042C04E00A01DFF8083669
:101A400040B2C25410BC704780B500F08BFADFF88A
:101A5000FC0500F038FDFAE780B52DED028BDFF8CC
:101A6000F005C06E4E286BDADFF8E405D0F8800090
:101A70003C284ADADFF8DC05C06E02280FDADFF80E
:101A8000D805406900F0D8FD00225FF08043FFF7E1
:101A9000DDFC00F0F9FDDFF8C01548611AE0DFF861
:101AA000BC05C06E4E2815DBDFF8AC0590ED050ACD
:101AB000DFED710A30EE200A10EE100A00F0BCFDD6
:101AC00000225FF08043FFF7C1FC00F0DDFDDFF88E
:101AD00088154861DFF8800590ED050ADFED670A9B
:101AE00030EE200ADFF8780580ED000A1B20DFF8D1
:101AF00074150860DFF8600590ED050ABDEEC00AB8
:101B0000DFF8640580ED000A34E0DFF84C0590ED65
:101B1000040ADFED5A0A30EE200ADFF8440580EDB2
:101B2000000A1620DFF83C150860DFF82C0590ED60
:101B3000040ABDEEC00ADFF8300580ED000A19E0A6
:101B4000DFF8140590ED080ADFED4C0A30EE200AAC
:101B5000DFF80C0580ED000A2B20DFF8081508607F
:101B6000DFF8F40490ED080ABDEEC00ADFF8F804CF
:101B700080ED000ADFF8F40490ED000ADFF8E004DD
:101B8000D0ED000A30EE200ADFF8E00480ED000A14
:101B9000DFF8DC040068404200EE100AB8EEC00A2C
:101BA000DFF8C804D0ED000AF4EE400AF1EE10FAB6
:101BB0000BD5DFF8BC040068404200EE100AB8EE16
:101BC000C00ADFF8A80480ED000ADFF8A40490ED55
:101BD000000AB8EEC00ADFF89404D0ED000AB4EEB3
:101BE000600AF1EE10FA09D5DFF8840490ED000ADE
:101BF000B8EEC00ADFF8740480ED000ADFF8600474
:101C000090ED000ADFF86C04D0ED000A30EE600AB7
:101C1000DFF8640480ED000ADFF85804DFF84014B0
:101C200009680160DFF8540490F900003B2827D0D0
:101C3000DFF8480490F9000000EE100AB8EEC00A80
:101C4000DFED970A20EE200ADFF8300490F900005B
:101C5000052190FBF1F0DFF8001411EB8000D0EDCE
:101C6000010A9FED901A71EE600A20EE200ADFF85B
:101C7000100480ED000A07E000009E4200001CC234
:101C8000DFF8FC0300210160DFF8F40390ED000AA7
:101C9000DFED850A30EE200ADFF8E803D0ED000A18
:101CA000DFF8BC0390ED001A00EE810ADFF8D403E0
:101CB000D0ED020ADFF8C00390ED001A00EE810AB1
:101CC000BDEEC00ADFF8C00380ED000ADFF8B803FC
:101CD0000068DFF8B8130968884205DADFF8AC035A
:101CE0000068DFF8A4130860DFF8A4030068DFF8D9
:101CF00098130968884205DADFF894030068DFF872
:101D000088130860DFF880030068A0F2DC5000EE62
:101D1000100AB8EEC00A00F0BEFA10EE100A00F089
:101D20008BFC0022DFF86C33FFF790FBDFF86823B1
:101D3000DFF86833FFF7F2FD00F0A6FCDFF8601370
:101D40000860DFF8380390F9000000EE100AB8EEE2
:101D5000C00AF1EE0A0A9FED558A00EE608ADFF8AC
:101D6000000390ED000A00F096FAF0EE0C0A00EE87
:101D7000608ABDEEC80ADFF82C0380ED000ADFF8A8
:101D800024030068962803DA9620DFF81813086009
:101D9000DFF810030068B0F5487F04DD4FF44870A9
:101DA000DFF8001308609FED6E0ADFF8DC020168BF
:101DB000DFF8F002006800F04DFEAB480068022832
:101DC0006BDBA94800684E2867DA00209F49A54AC6
:101DD0001268502303FB0211A34A126850549B4817
:101DE000A0490968502202FB01009F4909680818B0
:101DF0000021417095489B490968502202FB01006F
:101E00009949096808180021817090489549096826
:101E1000502202FB0100944909680818002100F8CB
:101E2000011C8A488F490968502202FB01008E4933
:101E300009680818002100F8021C844889490968CB
:101E4000502202FB0100884909680818002100F8A7
:101E5000501C7E4883490968502202FB01008249D8
:101E600009680818002100F8A01C78487D49096815
:101E7000502202FB01007C4909680818002180F803
:101E80005010724877490968502202FB01007649D8
:101E900009680818002180F8A010BDEC028B01BD74
:101EA0009A9919BE00001C420080BB440000AF4359
:101EB00080B500F095FF4FF416727F49634801F03A
:101EC0005BF800F078F80021112001F09EFA00EE96
:101ED000100ABBEE480A794880ED000A0021122062
:101EE00001F093FA00EE100ABBEE480A744880ED48
:101EF000000A01F0E4F86149087001F0FAFA71484B
:101F00000068012802D101F019FC15E06E48006854
:101F1000012804D10021002000F079FC0CE0634886
:101F2000006841F2F811884202DAFFF795FD03E0FC
:101F30000021002000F06BFC64480078401C6349DD
:101F40000870624890F90000022807D159480068DB
:101F50000A305849086000205C49087001BD000043
:101F60000000000080B5012201218B2001F0FEFB62
:101F700000F0BAF8112001F041F9122001F03EF909
:101F800000F035FA00F0CEFF00F0C6FB00F004FCD4
:101F9000DFED290A9FED290A01F09AFC5FF020424B
:101FA0004B4B5FF080404B4901F0A2FC01F07EFBFF
:101FB00000F01BF801BD80B500F0D9FB46493C4854
:101FC00001F0A6FC4448B0F900004349B1F9021001
:101FD000081800EE100AB8EEC00AF0EE000A80EE13
:101FE000200A314880ED000A01BD80B53B480068F9
:101FF000142101FB00F1022001F0C4FC0FF21901D1
:10200000562001F00EFD4620FFF7FEFC022146207F
:10201000FFF705FD01BD000080B5012030490860D3
:10202000FFF746FF00202E4908602E48006850F058
:1020300001002C49086001BD6666863F0AD7A33CB3
:1020400000E100E018ED00E000E400E0700FFF1F89
:102050002023FF1F1024FF1FFC25FF1F0025FF1F4B
:102060009826FF1FB026FF1FB426FF1F9C26FF1FC8
:102070004C680000A426FF1FA026FF1FB029FF1FE9
:10208000A826FF1F5426FF1FAC26FF1F4468000030
:1020900040680000008076409A9999999999C93FC3
:1020A0001804FF1F1C04FF1FB826FF1FF825FF1F81
:1020B0003426FF1FBC26FF1F180DFF1FC426FF1F5D
:1020C000C026FF1FE00BFF1FDC0BFF1FB129FF1F06
:1020D00099192440E17A943F3826FF1F5829FF1FA1
:1020E0002C20FE432C71034080B5002201214C209E
:1020F00001F03CFB002201214D2001F037FB0022C2
:102100000121512001F032FB00220121522001F077
:102110002DFB012201210E2001F028FB01220121CB
:102120000F2001F023FB01220121102001F01EFBF2
:1021300001220121112001F019FB01220021602060
:1021400001F014FB01220021612001F00FFB0122AC
:102150000021622001F00AFB01220021632001F02E
:1021600005FB01220021642001F000FB0122002177
:10217000652001F0FBFA01220021662001F0F6FA49
:1021800001220021672001F0F1FA012200216820DC
:1021900001F0ECFA01220021692001F0E7FA0122A6
:1021A00000216A2001F0E2FA012200216B2001F0F7
:1021B000DDFA0321602001F06DFC0321612001F0B4
:1021C00069FC0321622001F065FC0321632001F01A
:1021D00061FC0321642001F05DFC0321652001F016
:1021E00059FC0321662001F055FC0321672001F012
:1021F00051FC0321682001F04DFC0321692001F00E
:1022000049FC03216A2001F045FC03216B2001F009
:1022100041FC01220021362001F0A8FA0122002110
:10222000342001F0A3FA01220021402001F09EFA9F
:1022300001220021302001F099FA012200213220F0
:1022400001F094FA0321362001F024FC032134200C
:1022500001F020FC0321402001F01CFC0321302070
:1022600001F018FC0321322001F014FC01220121AD
:102270008B2001F07BFA012201218C2001F076FAFB
:1022800000220021062001F071FA0022002107201F
:1022900001F06CFA01BDB5EE400AF1EE10FA02D57C
:1022A000B1EE400AFFE7704770B504000D00082644
:1022B0000121112001F0B1FA00210E2001F0ADFA48
:1022C000002C18D13000461E00282DD0280604D539
:1022D00001210F2001F0A1FA03E000210F2001F0FD
:1022E0009CFA01210E2001F098FA00210E2001F045
:1022F00094FA6D00E6E73000461E002814D0280648
:1023000004D500210F2001F088FA03E001210F20FD
:1023100001F083FA01210E2001F07FFA00210E2046
:1023200001F07BFA6D00E6E770BD38B504000825C2
:102330000021112001F071FA00210E2001F06DFA48
:102340002800451E002814D0200604D501210F20A6
:1023500001F063FA03E000210F2001F05EFA012191
:102360000E2001F05AFA00210E2001F056FA640006
:10237000E6E731BD38B504000D0015F1B000FFF7F8
:10238000D4FFC4F3031050F01000FFF7CEFF14F099
:102390000F0050F00100FFF7C8FF31BD70B5040019
:1023A00000200500082D15DA15F1B000FFF7BDFF7C
:1023B0000120FFF7BAFF1020FFF7B7FF002006004B
:1023C000802E05DA21000020FFF76EFF761CF7E76C
:1023D0006D1CE7E770BD002808D040F237521100AD
:1023E0000A00511E002AFBD1401EF4E7704780B559
:1023F00001210E2001F011FA0021102001F00DFA48
:102400003220FFF7E8FF0121102001F006FAAE208C
:10241000FFF78BFF0020FFF788FF1020FFF785FFF5
:102420004020FFF782FF8120FFF77FFFCF20FFF7DB
:102430007CFFA020FFF779FFC020FFF776FFA620E2
:10244000FFF773FFA820FFF770FF3F20FFF76DFF36
:10245000D320FFF76AFF0020FFF767FFD520FFF7C3
:1024600064FF8020FFF761FFD920FFF75EFFF120B6
:10247000FFF75BFFDA20FFF758FF1220FFF755FF49
:10248000DB20FFF752FF4020FFF74FFF2020FFF730
:102490004CFF0220FFF749FF8D20FFF746FF142075
:1024A000FFF743FFA420FFF740FFA620FFF73DFF03
:1024B000AF20FFF73AFF0020FFF770FF0021002058
:1024C000FFF758FF01BD2DE9F84F0400002006007A
:1024D000F6B2502E0CDA01205649F6B270540120A3
:1024E0005449F6B2711841F270225054761CEFE74D
:1024F00000200700FFB23C2F10DA01204D49FFB247
:10250000502202FB0711087001204A49FFB25022F5
:1025100002FB071181F84F007F1CEBE70720ADF8A5
:1025200002000420ADF8000000208146BDF8020042
:102530001FFA89F9814539D24946C9B20020FFF70F
:1025400019FF5FEAC9000500002080461FFA88F8DD
:10255000B8F1500F27DA00208346002082461FFA88
:102560008AFABAF1080F15DA5FFA8BFB5FEA5B0BA8
:102570001FFA8AFA1AFA85F0502101FB00401FFA6F
:1025800088F818F80000002801D05BF0800B1AF1E1
:10259000010AE4E75FFA8BFB59460020FFF784FE4F
:1025A00018F10108D2E719F10109BFE74946C9B29C
:1025B0000020FFF7DFFE5FEAC9000500002080462B
:1025C0001FFA88F8B8F1500F32DA00208346002055
:1025D0008246BDF800001FFA8AFA824515D25FFADA
:1025E0008BFB5FEA5B0B1FFA8AFA1AFA85F050211F
:1025F00001FB00401FFA88F818F80000002801D0FD
:102600005BF0800B1AF1010AE3E75FFA8BFBBDF880
:102610000000D0F10801584683465BFA01FB5FFADF
:102620008BFB59460020FFF73FFE18F10108C7E772
:10263000BDE8F18F700FFF1F5FF0FF0C1CEAD05157
:1026400014BF614506E0C110400721F0E04101F1EF
:102650006051704779B900F0004100020AD0B0FA29
:1026600080FC00FA0CF001F16051A1EB0C5101EB80
:10267000D0214005704741020CBF40F4E0016FF0EB
:1026800000010020704700004FEAF17CBCF1E04CF3
:102690002CBFBCF5001F11E05FEA4C0C34BFBCF14D
:1026A0007F5F2EE05FEA9C0C4FEA0C1C4FEA3C0C6B
:1026B000C10071F100414CEB50707047C90241EA12
:1026C0005051C00218BF41F0010141F000414FEAF2
:1026D0006C50C0F10900212810D240EACC7CCCF12A
:1026E000200C11FA0CF070F10040CCF1200C21FA12
:1026F0000CF00CF0004C40EB0C0070474FEACC7033
:102700007047490011F5001F04D84FEACC10FF3084
:10271000C0057047C817704780B540F2DC536E2281
:102720000121032001F0C2FA002342F210720021BD
:10273000002001F0BBFA002342F2107201210020B8
:1027400001F0B4FA002342F210720221002001F0DD
:10275000ADFA002342F210720321002001F0A6FA24
:10276000012001F007FC022001F004FC01BD80B54E
:10277000012001F082FC4042DFF8E81408800220CA
:1027800001F07BFCDFF8DC144880012001F08BFCB9
:10279000022001F088FC01BDDFF8CC04DFF8CC1486
:1027A0000160DFF8C40400214160DFF8BC04DFF8F9
:1027B000BC148160DFF8B804DFF8B0140160DFF802
:1027C000B00400214160DFF8A804DFF8A0148160A4
:1027D000DFF8A004DFF8A0140160DFF898040021FE
:1027E0004160DFF89004DFF8941481600020DFF886
:1027F000741448800020DFF86C1408800020DFF893
:10280000801448800020DFF878140880704738B5BD
:1028100004000D00DFF86C040560DFF86404B0F913
:102820000000DFF864140860DFF858040068DFF87F
:1028300058140968401ADFF854140860DFF84C0493
:102840000068DFF84C140968401ADFF84814086083
:10285000DFF844040068DFF8341409680818DFF86A
:1028600038140860DFF824040068DFF824140860D6
:10287000DFF8100400680A21484300EE100AB8EEA1
:10288000C00ADFF80804D0ED000AF8EEE00ADFF82D
:10289000D80390ED001A00EE810ADFF8FC03D0EDBA
:1028A000000AF8EEE00ADFF8C00390ED011A00EE2E
:1028B000810ADFF8E003D0ED000AF8EEE00ADFF865
:1028C000A80390ED021A00EE810ABDEEC00ADFF8FF
:1028D000CC0380ED000ADFF8C8030460DFF8A00332
:1028E000B0F90200DFF8BC130860DFF8B403006839
:1028F000DFF8B0130968401ADFF8AC130860DFF89E
:10290000A8030068DFF8A4130968401ADFF8A013D1
:102910000860DFF8A0030068DFF88C130968081866
:10292000DFF890130860DFF880030068DFF87C139D
:102930000860DFF86C0300680A21484300EE100AC3
:10294000B8EEC00ADFF86003D0ED000AF8EEE00A46
:10295000C74890ED001A00EE810ADFF85803D0ED69
:10296000000AF8EEE00AC24890ED011A00EE810A72
:10297000CF48D0ED000AF8EEE00ABD4890ED021A0B
:1029800000EE810ABDEEC00ACB4880ED000AC348C4
:10299000006842F21071884203DB42F20F70BF49B7
:1029A0000860BE480068C549884202DAC348BB498E
:1029B0000860C148006842F21071884203DB42F2AD
:1029C0000F70BD490860BC480068BC49884202DA03
:1029D000BA48B9490860B148006801280ADBAF4825
:1029E00002680321002001F038FA002200210020B3
:1029F00001F033FAA948006801280BDA002203210C
:102A0000002001F02AFAA548006842420021002077
:102A100001F023FAA848006801280ADB00220121FE
:102A2000002001F01AFAA44802680221002001F0F7
:102A300014FAA148006801280BDA9F480068424256
:102A40000121002001F009FA00220221002001F0FA
:102A500004FA31BD2DE9F84F2DED028B06000F0071
:102A6000B0EE408A964880ED008A3800FEF73EFEC0
:102A7000944A954BFEF718FC944A954BFEF74EFF8F
:102A8000944AC2E900019348D0E900235FF0C040B6
:102A90009149FEF709FC0022904BFEF7D7FC8D4AC6
:102AA000C2E900018B48416800680022002301F060
:102AB0001BFB57D83000FEF719FE82468B4688482C
:102AC0000068FFF7B9FD804689467D480068FFF73A
:102AD000B3FD04000D007F4890ED000B01F0DEFC1B
:102AE00053EC102B7F488049FEF7DEFB22002B00C1
:102AF000FEF7DAFB42464B46FEF710FF52465B46B6
:102B0000FEF7D2FB794AC2E900013000FEF7EEFD84
:102B100082468B4672480068FFF78EFD80468946E4
:102B200067480068FFF788FD04000D00694890EDD4
:102B3000000B01F0B3FC53EC102B6A486A49FEF716
:102B4000B3FB22002B00FEF7AFFB02000B00404658
:102B50004946FEF7E3FD52465B46FEF7A5FB644A95
:102B6000C2E900015B484168006800220023FEF7CB
:102B700083FB5FD257485749D1E9002393F00043C4
:102B8000C0E900233000FEF7B1FD82468B46544871
:102B90000068FFF751FD8046894649480068FFF705
:102BA0004BFD04000D004B4890ED000B01F076FC4E
:102BB00053EC102B4B484C49FEF776FB22002B00C0
:102BC000FEF772FB02000B0040464946FEF7A6FDE9
:102BD00052465B46FEF768FB444AC2E900013000FA
:102BE000FEF784FD82468B463D480068FFF724FDD2
:102BF0008046894632480068FFF71EFD04000D003C
:102C0000344890ED000B01F049FC53EC102B354893
:102C10003549FEF749FB22002B00FEF745FB4246F3
:102C20004B46FEF77BFE52465B46FEF73DFB304AC5
:102C3000C2E900013A000121032001F00EF92B48FE
:102C400041680068FEF726FD01000C002848416835
:102C50000068FEF71FFD2100FFF7D9FDBDEC028BD8
:102C6000BDE8F18F3426FF1F3C26FF1F00002042E5
:102C70004826FF1F5426FF1F0000E0400000A0412F
:102C80003826FF1F8026FF1F8426FF1F6026FF1F98
:102C90006C26FF1F6426FF1F6826FF1F9026FF1F5C
:102CA0008826FF1F8C26FF1F7026FF1F7C26FF1F14
:102CB0007426FF1F7826FF1F9426FF1FF1D8FFFF01
:102CC0001404FF1F3CBD5296218ED33F08AC1C5A02
:102CD00064A57CC0100DFF1FFB2109C00080664069
:102CE0001004FF1FB6F3FDD478E9C63F080DFF1F9F
:102CF000000DFF1F012110F01F029140754A40B2E4
:102D0000430942F823107047012110F01F0291403F
:102D1000714A40B2430942F82310704710B50400CD
:102D20006E48046000F07DF80028FBD000F002F847
:102D3000002010BDE0B5012002904FF41670019004
:102D4000002000901B23654802686549002001F0BF
:102D5000DBFB644800684008400062490860572077
:102D6000FFF7D2FF6048006850F001005E4908603C
:102D70000020FFF7BFFF5D491B2000F069FE5C49A2
:102D80001D2000F065FE07BD80B55A4890F900008F
:102D9000042814D10320574908705720FFF7B4FFC7
:102DA0005048006850F001004E4908604FF48070B0
:102DB00051490860494800685049086005E05720BB
:102DC000FFF7A2FF02204B49087001BD01204949CD
:102DD00008704548006850F001004349086070479A
:102DE00080B50420434908705FF0FF304449086013
:102DF0005720FFF77FFF3F4890F9000001280FD0D0
:102E00003C4890F900000228F5D1042039490870A7
:102E10005FF0FF303A4908605720FFF76BFFEAE7A1
:102E200001BD10B582B0002400208DF8000001F033
:102E30008CFC8021122001F09BFD002804D1314838
:102E400001F028FE002043E0322001F050FE0B226A
:102E5000012100A801F0C4FD002804D12A4801F096
:102E600019FE002034E09DF80010284801F012FE01
:102E700027480178274801F00DFE9DF80000212821
:102E800025D10020040022480078A4B280B28442F8
:102E900018D22148A4B210EB440041781E48A4B2D5
:102EA00010F8140080B201F063FD002808D11A4820
:102EB000A4B210F81410194801F0ECFD002007E04E
:102EC000641CE0E7164801F0E5FD012000E0002069
:102ED00016BD000000E100E080E100E05C29FF1F7A
:102EE00050F00F400C80004024800040030102009D
:102EF00013010900000CFF1FA0D0044010900040F7
:102F0000A0900440CC67000020680000F466000038
:102F1000680CFF1F70670000040CFF1FE4670000CF
:102F20001867000080B5A848FFF7F8FE0FF21501FA
:102F3000672000F076FD0FF23901102000F071FDDE
:102F400001BD000038B5A14800680028FBD09F48AB
:102F5000006805005FF0FF309C4908601D200400F8
:102F60002800E040C00701D5FFF70EFF31BD00008B
:102F700080B5FFF72BFF01BDF8B4954B1B88ADF86A
:102F8000003005000C001600721E002E3AD0267884
:102F90003300641C00AEDBB2DF11BE5D2E706D1C11
:102FA00000AEC3F38017FFB2BE5D2E706D1C00AE85
:102FB000C3F34017FFB2BE5D2E706D1C00AEC3F3AD
:102FC0000017FFB2BE5D2E706D1C00AEC3F3C007CC
:102FD000FFB2BE5D2E706D1C00AEC3F38007FFB262
:102FE000BE5D2E706D1C00AEC3F34007FFB2BE5D28
:102FF0002E706D1C00AEDBB213F00107BE5D2E70AB
:103000006D1CC0E7F1BC70472DE9F041069C00251E
:10301000FF26FF275FF0000C502D1DDADFF8B4E12A
:103020005FF0500808FB00EE15F80EE0BEF1FF0F50
:103030000DD11CF1010C5FFA8CFCBCF1080F09D119
:10304000B5F1070E76465FF0000EF44604E05FF03F
:10305000000EF4466D1CDFE75FF04F0E7546002D45
:103060001DD4DFF870E15FF0500808FB00EE15F8A2
:103070000EE0BEF1FF0F0DD11CF1010C5FFA8CFCCC
:10308000BCF1080F09D115F1070E77465FF0000E6D
:10309000F44604E05FF0000EF4466D1EDFE71E60AC
:1030A000276017EB060E5FF002089EFBF8FEC1F8E2
:1030B00000E0B7EB060EC2F800E0BDE8F08110B505
:1030C00082B000243C2C1FDA434810EB84000090AF
:1030D000424810EB8403424810EB8402414810EB55
:1030E00084012000FFF790FF3E4850F8240050284C
:1030F00008DA3848502101FB04003A4951F82410FD
:1031000000220A54641CDDE700200021364A1160C9
:1031100000210C003C2C55DA314951F8241050297B
:1031200019DA304951F82410502914DA2F49096866
:10313000491C2E4A11602E4909682A4A52F8242057
:1031400051182B4A116028490968254A52F8242051
:103150005118254A1160611C052291FBF2F302FB14
:10316000131100292CD121490968002916D0611CAE
:10317000052291FBF2F11F4A12EB8101091F1C4A43
:1031800092ED000AB8EEC00A184AD2ED000AF8EE35
:10319000E00A80EE200A81ED000A0BE0611C0522A6
:1031A00091FBF2F1134A12EB8101134A41F8042C0E
:1031B0002100080000210E4A116000210B4A116015
:1031C000641CA7E740B216BD180DFF1FA090044075
:1031D0003E100000700FFF1F0025FF1F1024FF1F6F
:1031E0002023FF1F3022FF1FF825FF1FF425FF1F9C
:1031F000F025FF1FFC25FF1F00007F4338B50400AA
:1032000064B26511EDB2002D02D0012D11D021E084
:10321000A348006850F00060A1490860A148006818
:1032200030F090009F4908609E4800689D49086002
:1032300014E09D48006850F000609B490860994880
:10324000006830F410409749086096480068954936
:10325000086003E03321954801F060FC64B220006F
:10326000002800F08980012800F08680032800F003
:10327000838008284ED0092851D00A2854D00B2822
:1032800057D00C285AD00D285DD00E2860D00F28BA
:1032900063D0102870D0112864D0122867D013286A
:1032A0006AD0142868D01A2866D01D2864D01E2839
:1032B00062D0202861D021285FD023285DD0242827
:1032C0005CD025285FD0262862D0272865D0282802
:1032D00068D029286BD02A286ED02B2871D02C28B2
:1032E00074D02D2877D02E287AD02F287DD0302862
:1032F00000F0858031287DD0322800F0808033288E
:103300007DD034287BD03A2879D03D2877D03E280C
:1033100075D075E00021202000F09AFB74E00021B8
:10332000212000F095FB6FE00021072000F090FBCA
:103330006AE00021082000F08BFB65E000212220DC
:1033400000F086FB60E00021232000F081FB5BE0C1
:103350000021402000F07CFB56E00021412000F0DD
:1033600077FB51E00021982000F072FB4CE0002137
:10337000992000F06DFB47E046E045E00021802009
:1033800000F066FB40E00021812000F061FB3BE0A3
:103390000021822000F05CFB36E00021832000F059
:1033A00057FB31E00021202000F052FB2CE00021EF
:1033B000212000F04DFB27E00021242000F048FBF5
:1033C00022E00021252000F043FB1DE00021262003
:1033D00000F03EFB18E00021272000F039FB13E04D
:1033E00000212A2000F034FB0EE000212B2000F009
:1033F0002FFB09E00021112000F02AFB04E003E08C
:103400009A212A4801F08AFB31BDF8B504000D006D
:1034100064B266110027290049B2200040B200F0D2
:103420001CF8234876B250F8260000680006F8D54C
:103430001F4876B250F82600006907001C4876B293
:1034400050F82600006830F08000194976B251F833
:1034500026100860380080B2F2BD30B440B242118C
:1034600010F01F0349B28C0014F00C0454F0500407
:103470000F4D52B255F82250AC6004240C4D52B29C
:1034800055F82250EC60DBB213F01F0454F04004F6
:10349000074D52B255F822502C6030BC70470000E6
:1034A0003C800440188004403080044048630000A1
:1034B0002004FF1F012110F01F029140854A40B2F5
:1034C000430942F823107047834800688349086025
:1034D00083480068002803D1824800687F4908605B
:1034E00081480068002803D1804800687B49086053
:1034F000704738B57E48006801286BD100207C49B0
:10350000086073A17B4801F047FB0400200001F034
:1035100069FB79490860012005000A2D10DA0020B6
:10352000754941F825006AA1002001F035FB04002F
:10353000200001F057FB704941F825006D1CECE7B5
:103540006E4800686E4908606E4800686E49086001
:10355000694800686D4908606748406867490860C5
:103560006548806867490860634840695C4908604D
:103570006148C0685C4908605F4840696449086008
:103580005F48006800280CD15C480068012808D119
:1035900060480068401C5F4908605FF0FF305E498A
:1035A00008605948006800280BD156480068012877
:1035B00007D158480068401E564908600120564906
:1035C000086052480068002802D100205149086074
:1035D000FFF77AFF31BD10B50524504864B250F8AA
:1035E00024000079800660D54D49052001F013FCC8
:1035F00000203F4908604A4890F90000732805D12F
:103600000120484908600020474908604548006893
:1036100001284AD1424890F90000652831D140483C
:1036200000784249404A1268511801F8010C002004
:103630003E493D4A1268505400203B490860002032
:103640003849086001202A4908603848FDF7F8FC2D
:103650003749086000203749086035480068354917
:10366000096888421CDB314832490968085C2149F5
:10367000304A126850542F480068401C2D49086099
:10368000EBE729480068012807DB2548007827492F
:10369000254A1268511801F8010C002014490860ED
:1036A00021480068401C2049086010BD80B55FF4C7
:1036B000E131052001F0A5FA052001F0C8FB1E4903
:1036C000472000F0AEF93720FFF7F4FE01BD0000FF
:1036D0002F00000000E100E048680000F80BFF1F29
:1036E000EC0BFF1F40680000F00BFF1F4468000058
:1036F000A027FF1F3C27FF1FB427FF1FE40BFF1F5E
:103700004429FF1FE80BFF1F4829FF1FE00BFF1F85
:10371000F40BFF1F4C29FF1FDC0BFF1FC40BFF1F07
:10372000B229FF1FA427FF1FAC27FF1FD826FF1FAA
:10373000A827FF1FB027FF1FD735000080B5094815
:103740000068502101FB00F10648006850225043F8
:10375000FFF75DF8044802680121032000F07DFBBB
:1037600001BD00BF4C29FF1FF80BFF1F70B50400FF
:103770000D0016004FF480712000C0B200F068F90F
:103780006DB2002D11D15048E4B2611150F8210002
:103790004D49E4B2621151F822104969012214F036
:1037A0001F039A409143416136E04748E4B26111FA
:1037B00050F821004449E4B2621151F822104969DD
:1037C000012214F01F039A4011434161F6B2002E0A
:1037D00011D13D48E4B2611150F821000068012187
:1037E00014F01F02914088433749E4B2621151F846
:1037F0002210086010E03448E4B2611150F8210052
:103800000068012114F01F02914008432E49E4B2E0
:10381000621151F82210086070BD38B504000D0027
:103820002948E4B2611150F82100406914F01F01E9
:103830000200CA40D00703D46321244801F06EF986
:10384000EDB2002D11D12048E4B2611150F82100F1
:103850000068012114F01F02914088431A49E4B224
:10386000621151F82210086010E01748E4B26111AB
:1038700050F821000068012114F01F029140084314
:103880001149E4B2621151F82210086031BD10B53F
:1038900004000D48E4B2611150F82100406914F0B1
:1038A0001F010200CA40D00703D47B21074801F062
:1038B00035F90548E4B2611150F82100012114F0F6
:1038C0001F029140C16010BD400BFF1F80640000CB
:1038D0009FED291A20EE811AF7EE001A81EE811A67
:1038E00031EE001A80EE011A244880ED001A70476C
:1038F0009FED211A20EE811AF7EE001A81EE811A4F
:1039000031EE001A80EE011A1D4880ED001A704752
:10391000B1F9002000EE102AB8EEC00AB0F900207C
:10392000B1F90030D21A00EE902AF8EEE00A144AFB
:1039300092ED001A00EE810ABDEEC00A10EE102AC8
:103940000A80B1F9022000EE102AB8EEC00AB0F9E0
:103950000220B1F90230D21A00EE902AF8EEE00A05
:10396000074A92ED001A00EE810ABDEEC00A10EE81
:10397000102A4A8070470000DB0FC9402C26FF1F29
:103980003026FF1F38B504000D00002D03D1222181
:10399000174801F0C3F81748006850F400001549B3
:1039A0000860002014490860681E144964B22201AE
:1039B0005050124864B210EB0410C06850F001007F
:1039C0000E4964B211EB0411C8600C4864B210EBEC
:1039D0000410806840084000084964B211EB0411EB
:1039E00088600320054964B211EB0411886031BD81
:1039F000E86400003C800440007003400071034014
:103A000010B504004FF4007094FBF0F101FB10417D
:103A1000002903D01E210B4801F080F80A480460F9
:103A200010BD38B504000D000748006807498842FA
:103A300003D03021034801F071F8044864B240F823
:103A4000245031BDB865000008ED00E00000FF1F04
:103A500010B4294A12684FF40073C0B24409A3405D
:103A60001A43254B1A60254AC0B2431152F823204D
:103A7000012310F01F04A340C2F8A0301F4AC0B2B7
:103A8000431152F82320C0B210F01F0342F8231054
:103A900010BC704710B4184A12684FF40073C0B2DB
:103AA0004409A3401A43144B1A60144AC0B243118C
:103AB00052F82320012310F01F04A340C2F8A030C5
:103AC00031F4E0610D4AC0B2431152F82320C0B274
:103AD00010F01F0352F8232012F4E0621143074A4A
:103AE000C0B2431152F82320C0B210F01F0342F8B5
:103AF000231010BC7047000038800440B00BFF1F3B
:103B000038B504000D0064B2002C06D0022C69D038
:103B10004CD3032C00F08280C7E0DFF8B4050068C6
:103B200050F08070DFF8A81508606DB2002D0BD042
:103B3000022D15D00ED3042D1ED017D3062D27D05D
:103B400020D3072D2AD02FE04FF480614120FFF7CA
:103B50007FFF2AE04FF480614220FFF779FF24E0E5
:103B60004FF480614320FFF773FF1EE04FF4806144
:103B70004420FFF76DFF18E04FF440710720FFF776
:103B800067FF12E04FF480616520FFF761FF0CE0F2
:103B90004FF480616620FFF75BFF06E04FF4806121
:103BA0006720FFF755FF00E07FE07EE0DFF82005AB
:103BB000006850F00070DFF8181508606DB2002D35
:103BC00002D0012D06D00BE04FF440710820FFF722
:103BD0003FFF06E04FF440710920FFF739FF00E096
:103BE00063E062E0DFF8EC04006850F08070DFF81A
:103BF000E41408606DB2002D02D0012D06D00BE058
:103C00004FF440710A20FFF723FF06E04FF44071A4
:103C10000B20FFF71DFF00E047E046E0DFF8B404AB
:103C2000006850F00070DFF8AC1408606DB2002D31
:103C30000BD0022D15D00ED3042D1ED017D3062D78
:103C400027D020D3072D2AD02EE04FF4C061852045
:103C5000FFF7FEFE28E04FF4C0618620FFF7F8FE74
:103C600022E04FF4C0618720FFF7F2FE1CE04FF422
:103C7000C0618820FFF7ECFE16E04FF4C061892098
:103C8000FFF7E6FE10E04FF4C0618A20FFF7E0FE88
:103C90000AE04FF4C0618B20FFF7DAFE04E04FF436
:103CA000C0618C20FFF7D4FEFFE731BD2DE9F84F4E
:103CB00004000D0016001F0064B2002C11D064B285
:103CC000012C02D064B2022C02D16DB2022D08DBAD
:103CD00064B2032C05D040F28511DFF8FC0300F03C
:103CE0001DFF290049B2200040B2FFF709FFDFF8AD
:103CF000EC0300684FF47A71484380465FEA18404D
:103D0000B0FBF6F08146002082461FFA89F948464A
:103D100050FA0AF0012802DB1AF1010AF5E75FFA0E
:103D20008AFABAF1080F05DB4FF4D071DFF8A80367
:103D300000F0F4FE404630FA0AF0B0FBF6F081469F
:103D40001FFA89F9DFF8980364B240F8249064B24E
:103D5000002C05D0022C1AD00ED3032C22D02DE03B
:103D60001FFA89F919F1010000FB07F042F2107106
:103D7000B0FBF1F0834621E01FFA89F919F1010047
:103D800000FB07F06421B0FBF1F0834616E01FFA58
:103D900089F919F1010000FB07F06421B0FBF1F093
:103DA00083460BE01FFA89F919F1010000FB07F0C7
:103DB00042F21071B0FBF1F08346FFE7DFF8240315
:103DC00064B250F824006DB210EBC500DFF8141394
:103DD00064B251F824106DB211EBC501C96831F01D
:103DE0000401C160DFF8FC0264B250F824006DB237
:103DF00010EBC5002821C1605FFA8AFA1AF00700AB
:103E000050F00800DFF8DC1264B251F824100860AA
:103E10001FFA89F9DFF8CC0264B250F82400C0F828
:103E200008900020DFF8BC1264B251F82410C86476
:103E3000DFF8B00264B250F824006DB210EBC50098
:103E40001FFA8BFBC0F810B00020DFF8981264B2A4
:103E500051F824104860BDE8F18F2DE9F0410400CD
:103E60000D0016005FF0000864B2002C11D064B29F
:103E7000012C02D064B2022C02D16DB2022D08DBFB
:103E800064B2032C05D04FF4F371DFF84C0200F05C
:103E900045FE64B2002C05D0022C17D00DD3032CA4
:103EA0001DD027E042F21170864205D34FF4F6711F
:103EB000DFF8240200F032FE1CE0652E05D34FF43B
:103EC000F871DFF8140200F029FE13E0652E05D327
:103ED0004FF4FA71DFF8000200F020FE0AE042F22F
:103EE0001170864205D340F2F911DFF8EC0100F0C1
:103EF00015FEFFE7DFF8E80164B250F824008046C1
:103F000064B2002C05D0022C16D00CD3032C1CD08C
:103F100025E018F1010000FB06F042F21071B0FB41
:103F2000F1F007001BE018F1010000FB06F064212E
:103F3000B0FBF1F0070012E018F1010000FB06F001
:103F40006421B0FBF1F0070009E018F1010000FB6B
:103F500006F042F21071B0FBF1F00700FFE7DFF866
:103F6000840164B250F824006DB210EBC500076103
:103F7000BDE8F08110B5040064B2012C07D064B232
:103F8000022C04D040F2DB21534800F0C7FD64B29C
:103F90002000012802D0022811D021E04C480068FE
:103FA00050F000704A4908604FF4C0610820FFF7E4
:103FB0004FFD4FF4C0610920FFF74AFD15E0454869
:103FC000006850F08070434908604FF4C0610A20D7
:103FD000FFF73EFD4FF4C0610B20FFF739FD04E011
:103FE00040F213313C4800F099FD3E4864B250F86D
:103FF0002400406D50F004003A4964B251F8241096
:104000004865384864B250F82400D0F8800050F079
:104010000800344964B251F82410C1F8800000202F
:10402000304964B251F82410C8644FF6FF702D492E
:1040300064B251F8241088602A4864B250F8240011
:10404000D0F8800050F00100264964B251F82410E5
:10405000C1F88000234864B250F82400406D50F04D
:104060000100204964B251F82410486500201D4920
:1040700064B251F82410486010BD38B5040064B231
:10408000012C07D064B2022C04D04FF44C711248BA
:1040900000F044FD134864B250F824004068050065
:1040A000280000B232BD10B5040064B2012C07D064
:1040B00064B2022C04D040F23E31074800F02EFDDD
:1040C0000020084964B251F82410486010BD000077
:1040D0003C80044030800440186400005829FF1FD1
:1040E000C826FF1F300BFF1F4FF4001C1CEB410FB5
:1040F00094BF1CEB430F09E041EA030C50EA4C0C5F
:1041000052EA0C0C03D28B4208BF8242704714BFA4
:104110009942904270470000D0B52DED068B41ECDE
:10412000180B82B053EC182BBA48BB49FDF7BCF80A
:10413000BA4ABB4B41EC190B21F00041FDF79CF84A
:1041400080F0D08051EC190B00220023FFF7CCFF48
:1041500053EC192B99BF0020B2490020B249FDF75A
:10416000DDFBFDF797FA040051D0FDF7BFFA0022FE
:10417000AE4BFDF799F841EC190B53EC192B4FF0AE
:10418000A040AB49FDF790F802460B4651EC180BE6
:10419000FDF7C4FA06460F4653EC192B4FF0C0400A
:1041A000A449FDF781F802460B4630463946FDF733
:1041B000B5FA06460F4653EC192B4FF000509E49B6
:1041C000FDF772F802460B4630463946FDF7A6FA6F
:1041D00006460F4653EC192B00209849FDF764F86A
:1041E00002460B4630463946FDF798FA06460F461A
:1041F00053EC192B4FF000509149FDF755F802464A
:104200000B4630463946FDF789FA41EC180B51EC64
:10421000180B6FF001028B4BFFF766FF04F00304ED
:1042200006D800224FF07953FDF726F8C0F08280BF
:1042300053EC182BFDF738F841EC190B53EC192B04
:1042400081488249FDF730F8814A824BFDF766FBD1
:1042500053EC192BFDF728F87F4A804BFDF75EFBE6
:1042600053EC192BFDF720F87D4B0022FDF756FB90
:1042700041EC1A0B53EC182B51EC190BFDF714F809
:1042800006460F4653EC192B76487749FDF70CF894
:10429000764A774BFDF742FB53EC192BFDF704F8F8
:1042A000744A754BFDF73AFB32463B46FCF7FCFF80
:1042B00053EC182BFDF732FB41EC180BE00708D547
:1042C00051EC1A0B53EC182BFDF7C0F881F00041AC
:1042D00005E051EC180B53EC1A2BFDF7B7F841EC45
:1042E000100BD5E08DED008BDDE90001DDE9002349
:1042F000C3F30A5140F2FF72914229D0002904BF52
:10430000190350EA11301FD08DED008B00A800F08A
:10431000C1FD04469DED008B4A4B51EC180B6FF02C
:104320000102FFF7E1FE23D800224FF07953FCF79A
:10433000A3FF1DD2E00707D50020504953EC182BEE
:10434000FDF784F841EC180B02B051EC180BA2E019
:10435000190350EA1130F7D100F050FE212101601D
:1043600002B04FF0FF30BDEC068B6FF00041D0BDC6
:1043700053EC182BFCF798FF41EC190B53EC192B5D
:1043800031483249FCF790FF314A324BFDF7C6FA0B
:1043900053EC192BFCF788FF2F4A304BFDF7BEFA80
:1043A00053EC192BFCF780FF2D4B0022FDF7B6FADA
:1043B00041EC1A0B53EC182B51EC190BFCF774FF62
:1043C00006460F4653EC192B26482749FCF76CFF8D
:1043D000264A274BFDF7A2FA53EC192BFCF764FF92
:1043E000244A254BFDF79AFA32463B46FCF75CFF20
:1043F00053EC182BFDF792FA41EC180BE0073FD570
:1044000051EC1A0B53EC182BFDF720F881F000410A
:104410003CE000BF83C8C96D305FE43F0000A0FFEF
:10442000FFFFDF410000E03F0000E0BF0000303E42
:10443000FB21B941B410114026A6513E5C14D33C77
:104440009A833B3BFFFF3FBE6C9E741E68522BBF9E
:10445000A908265CB9E7973FD5FFB699218BDDBF48
:104460000000F03FDB9955949A63DFBED625F786AE
:1044700075FC663F6955C388986BC0BF0000F0BFEC
:1044800051EC180B53EC1A2BFCF7E0FF41EC100B2E
:1044900002B051EC100BBDEC068BD0BD80B551ECD9
:1044A000100BFFF739FE41EC100B01BD2DE9F8436D
:1044B00080460C005FEA981010F00700C0B25FEA77
:1044C00040194046103810F03F00C0B2C00005004F
:1044D00015EB09000700E4B217EBC400401E06000C
:1044E000F6B2FFB2BE420DD3002200213800C0B2A6
:1044F000FFF73CF94FF481713800C0B2FFF7A8FA1A
:104500007F1CEDE7BDE8F1832DE9F84F04000D00B5
:1045100016001F009DF92880DDF82C90DDF830A0F2
:104520004FFA88F8B8F1000F02D15FF0010B11E0EB
:104530004FFA88F8B8F1010F02D15FF0020B09E0E1
:104540004FFA88F8B8F1020F02D15FF0040B01E0D6
:104550005FF0100B4FFA88F8B8F1000F05D16748EB
:10456000854202D36648A84221D24FFA88F8B8F1B2
:10457000010F09D16148854206D36248A84203D39E
:1045800015F00300032812D14FFA88F8B8F1020F92
:1045900009D15A48854206D35B48A84203D315F097
:1045A0000300002803D06121584800F0B7FAB9F59C
:1045B000004F03D36321554800F0B0FA5448006817
:1045C00050F00200524908605248006850F0020062
:1045D00050490860504864B261010D5064B26001F6
:1045E00000F1804010F510400661002064B26101C6
:1045F00001F1804111F5104188805FFA8BFB64B2B4
:10460000600100F1804010F51040A0F814B04FFA9E
:1046100088F85FEA082010F4E0604FFA88F818F094
:104620000701084364B2610101F1804111F51041B5
:10463000C88048464004400C64B2610101F18041E9
:1046400011F51041C88248464004400C64B2610133
:1046500001F1804111F51041C8833048006830F005
:1046600080002E4908605FFA8BFB64B2600100F1A4
:10467000804010F51040C0F808B0002064B261011D
:1046800001F1804111F51041C8605FEACA7002D49F
:10469000D9F1000000E0002064B2610101F1804125
:1046A00011F5104188614CF20A0064B2610101F118
:1046B000804111F510418883FFB27809313050F004
:1046C0008000174964B2605416493800C0B2FFF741
:1046D000BFF95946C9B22800FFF7E8FE1248006842
:1046E0000121A14088431049086010480068012159
:1046F000A14008430D490860BDE8F18F10F00F405C
:1047000013F10F4012F10F4010F10F40B0630000A1
:10471000408004403C800440009000400080004005
:1047200000100240000101000C8000402480004085
:1047300001B4BDF80000002805D0BDF80000401EFF
:10474000ADF80000F5E701B0704780B50122012106
:104750001A20FFF70BF8012201211920FFF706F8B4
:1047600023211A20FFF796F923211920FFF792F948
:1047700001BD80B501207A490860012079490860AF
:104780004FF4C870FFF7D4FF0020774908607748DE
:104790000068002804D1012073490860002016E059
:1047A00001207149086000206D4908604FF4C8700D
:1047B000FFF7BEFF00206B4908606C4800680028C6
:1047C00004D0012068490860002000E0012002BDFB
:1047D00080B50020634908600020614908604FF4FB
:1047E000C870FFF7A5FF01205E4908604FF4C8704C
:1047F000FFF79EFF01205A4908604FF4C870FFF789
:1048000097FF01BD80B50020564908604FF4C8707D
:10481000FFF78EFF0020524908604FF4C870FFF781
:1048200087FF01204F4908604FF4C870FFF780FFF1
:1048300000204C4908604FF4C870FFF779FF01BDB4
:1048400080B50020474908604FF4C870FFF770FF3B
:104850000120434908604FF4C870FFF769FF012049
:10486000404908604FF4C870FFF762FF00203D49DF
:1048700008604FF4C870FFF75BFF01BD80B50020F2
:10488000384908600020384908604FF4C870FFF7C5
:104890004FFF0120334908604FF4C870FFF748FF0D
:1048A00032480068002807D001202F490860002006
:1048B0002C490860002006E001202B4908600020F8
:1048C00028490860012002BD38B5050008242000F1
:1048D000441EC0B2002818D0280603D50120204964
:1048E000086002E000201E4908606D004FF4C870A7
:1048F000FFF71EFF01201B4908604FF4C870FFF747
:1049000017FF002017490860E1E731BD38B50824DA
:1049100000250020144908602000441EC0B2002871
:1049200015D06D0000200F4908604FF4C870FFF7E4
:10493000FFFE01200B4908604FF4C870FFF7F8FE36
:104940000A4800680028E7D055F00105E4E7012097
:1049500005490860002003490860EDB2280032BD17
:104960006400FE436800FE43E402FE436402FE432B
:1049700070B504000D0000262900C9B2200080B2E5
:1049800000F00AF8002805D1761CF6B2142EF3D1F7
:10499000002000E0012070BD38B504000D00FFF7D5
:1049A000E8FE002801D1002019E04220FFF78CFF2B
:1049B000FFF764FF002803D1FFF70AFF00200EE095
:1049C0002000C0B2FFF780FFFFF758FF2800C0B2F9
:1049D000FFF77AFFFFF752FFFFF7FAFE012032BD23
:1049E000F8B504000D00160000273200D2B22900ED
:1049F00089B2200000F00AF8002805D17F1CFFB220
:104A00001E2FF2D1002000E00120F2BD70B504009D
:104A10000D001600FFF7ADFE002801D1002037E0A1
:104A20004220FFF751FFFFF729FF002803D1FFF7CE
:104A3000CFFE00202CE03000C0B2FFF745FFFFF7AB
:104A40001DFFFFF7C5FEFFF794FE002801D10020EF
:104A50001EE04320FFF738FFFFF710FF002803D1C7
:104A6000FFF7B6FE002013E0ADB2002D0DD0FFF72A
:104A70004DFF2070ADB2012D02D1FFF7E1FE01E044
:104A8000FFF7C0FE641C6D1EEEE7FFF7A1FE0120DC
:104A900070BD00000EB400B582B003A900910246BB
:104AA00000AB0121034878440A30FBF7B5FC06BC93
:104AB0005DF810FB491D000010B50400002C15D056
:104AC000B4F1807F03D329210F4800F027F800209C
:104AD0000E4908600E48046000200E490860052059
:104AE0000A49086009480068C003FBD510BD10B52D
:104AF00004002000441E002804D007480068FFF787
:104B0000DBFFF6E710BD0000DC62000010E000E013
:104B100014E000E018E000E05029FF1F38B5040061
:104B20000D00002000F070FA2A0021001648FFF75F
:104B3000B1FF002000F085FA4FF47A70FFF7D7FF3D
:104B4000F2E738B504000D00210049B2052000F05D
:104B500071F9200032BD10B50C480468012000F046
:104B600053FA012000F06DFA0948E4B20F2101FB6D
:104B70000402E4B221000748FFF78CFF4FF47A707B
:104B8000FFF7B5FFEDE70000D066000004ED00E0A0
:104B90002804FF1F6C66000070B504460D461048DF
:104BA000FCF730FF064644B12946204600F054FA8F
:104BB0000419207830B9306070BD3468002CF3D10E
:104BC000002070BD2946204600F057FA00190178F0
:104BD00011B1002100F8011B3060204670BD00BFFC
:104BE000B02AFF1F0A22002100F0FABA012110F0BA
:104BF0001F029140DFF8802240B2430942F823109F
:104C000070472DE9F84304000D0064B2002C08D071
:104C1000022C2CD018D3042C4FD03BD3052C5FD0C2
:104C200071E0DFF85802006850F48060DFF84C1241
:104C300008604FF440716620FEF70AFF4FF44071A0
:104C40006720FEF705FF5EE0DFF83002006850F4F1
:104C50000060DFF8281208604FF440714320FEF72F
:104C6000F7FE4FF440714420FEF7F2FE4BE0DFF810
:104C70000C02006850F48050DFF8001208604FF416
:104C800040716320FEF7E4FE4FF440716220FEF7AE
:104C9000DFFE38E0DFF8E401006850F40050DFF890
:104CA000DC1108604FF440715020FEF7D1FE4FF444
:104CB00040715120FEF7CCFE25E0DFF8C40100680A
:104CC00050F48060DFF8B81108604FF440714E2056
:104CD000FEF7BEFE4FF440714F20FEF7B9FE12E022
:104CE000DFF89C01006850F40060DFF89411086060
:104CF0004FF440718920FEF7ABFE4FF440718820DD
:104D0000FEF7A6FEFFE7DFF87C0164B250F824004E
:104D1000C07810F0F300DFF86C1164B251F8241081
:104D2000C870DFF8600164B250F824008078DFF8C2
:104D3000541164B251F82410887064B2002C02D06F
:104D400064B2012C07D1DFF8400100684FF47A719A
:104D50004843814606E0DFF8340100684FF47A7179
:104D6000484381462801B9FBF0F00600B6B2B6F51B
:104D7000005F02DB41F6FF700600B9FBF5F0B6B24A
:104D8000B0EB06100700BFB2202F03DBDC21404848
:104D9000FFF7C4FE3B4864B250F82400007810F0DE
:104DA000E0008046C6F3042050EA0800354964B2AA
:104DB00051F824100870334864B250F8240046704B
:104DC000304864B250F82400807A10F0E000804649
:104DD00017F01F0050EA08002A4964B251F8241065
:104DE0008872284864B250F82400007C50F0880093
:104DF000244964B251F824100874224864B250F86F
:104E00002400C07850F00C001E4964B251F8241000
:104E1000C870BDE8F1831B4A40B252F820201279D5
:104E20009206F8D5174A40B252F8202092F907208E
:104E30000A707047134A40B252F8202012791206C5
:104E4000F8D5104A40B252F82020D171704710B501
:104E500004000C4864B250F82400C07850F02000E0
:104E6000084964B251F82410C87064B260002D3053
:104E700040B2FFF7BBFE10BD00E100E0348004400B
:104E800028800440C40BFF1F5029FF1F5829FF1F13
:104E900050650000D0B52DED048B044682B094ED32
:104EA000008B4748474953EC182BFCF7FDF9CDE937
:104EB000000100220023FFF717F9DDE9002399BF65
:104EC0000020414900204149FCF728FDCDE90001BF
:104ED000002100A800F0AEF9DDE900230020002148
:104EE00000F0E8F94ED03A49FCF7DEF941EC190B35
:104EF00053EC192B4FF0A0403649FCF7D5F9024688
:104F00000B4651EC180BFCF709FC06460F4653EC18
:104F1000192B4FF0C0403049FCF7C6F902460B464A
:104F200030463946FCF7FAFB06460F4653EC192B80
:104F30004FF000502949FCF7B7F902460B463046BE
:104F40003946FCF7EBFB06460F4653EC192B0020C5
:104F50002349FCF7A9F902460B4630463946FCF7CF
:104F6000DDFB06460F4653EC192B4FF000501D4950
:104F7000FCF79AF902460B4630463946FCF7CEFB61
:104F800041EC180B84ED008BDDE90001164A174B4C
:104F9000FCF772F904D3164A164BFFF7A5F805D8AB
:104FA0000022154B00F096F9CDE90001DDE9000182
:104FB000FCF770FB02B000F00300BDEC048BD0BD29
:104FC00083C8C96D305FE43F0000E03F0000E0BFF0
:104FD0000000303EFB21B941B410114026A6513EDD
:104FE0005C14D33C9A833B3B0000C0FFFFFFDFC152
:104FF0000100C0FFFFFFDF410000E0410148FCF776
:1050000001BD0000B42AFF1F10B5040064B2042CD7
:1050100007DA012201210F4864B2205CFEF7A6FBEB
:105020000EE0042004002000441E40B2002807D0F7
:1050300001220121074864B2205CFEF797FBF2E7EA
:1050400010BD10B50400034864B2205CFEF71FFCDD
:1050500010BD0000FC0BFF1F30B4024604E014F842
:10506000015BAB4203D1521C13781BB10C4625786F
:10507000002DF4D130BC101A704730B4024600E065
:10508000521C13783BB10C462578002DF8D014F84B
:10509000015BAB42F8D130BC101A70472DE9F04FDC
:1050A00085B004461E000D4690461CBF00203060AF
:1050B000A14601E009F1010999F8000000F0DEF9CC
:1050C0000028F7D199F800002D2816BF2B2819F8D1
:1050D000017B2B27B8F1000F55D4B8F1010F52D046
:1050E000B8F1250F4FDAB8F1010F0DDBB8F1100F51
:1050F00004BF99F80000302802BF99F8010040F081
:105100002000782814D10EE099F80000302818BF4C
:105110004FF00A080CD199F8010040F020007828DF
:1051200004D14FF0100809F1020901E04FF008081E
:10513000CDF8109001E009F1010999F8000030283C
:10514000F9D00FF2A00B4FF0000ACDF80C908DF8BB
:1051500008B00AE09DF80810CDF804A0401AC0B2CB
:10516000009008FB0A0A09F1010999F8000000F013
:105170008FF9014642465846FBF77EFF0028E9D1E9
:105180000498484503D105B12C60002025E00FF2BA
:105190007C01039818F80110A9EB0000401A14D400
:1051A000012808DA0098BAEB000004D30199B0FB9B
:1051B000F8F0884209D0FFF721FF222101600EB1EB
:1051C000012030604FF0FF3A03E02D2F08BFCAF1F5
:1051D000000A0DB1C5F80090504605B0BDE8F08F4B
:1051E00000235BE73031323334353637383961628A
:1051F000636465666768696A6B6C6D6E6F70717207
:10520000737475767778797A0000000000002115B4
:10521000110E0D0C0B0B0A0A0909090909080808E7
:10522000080808080707070707070707070707070A
:10523000070000004268C2F30A5240F2FF739A422C
:1052400009D14168090304BF0068002801D1012089
:1052500070470220704743685B0004BF0368002B5F
:1052600025D040F233439A1A521A012A1FDB352AFD
:1052700006DB416801F0004141600021016013E05C
:10528000012102F01F039940491E920607D542688A
:1052900011404A40426002681143002202E0026865
:1052A00011404A40026011B14FF0FF3070470020BA
:1052B0007047000090420CD141EA030C50EA4C0CBC
:1052C00007D0994205D14FF4001C1CEB410F38BFA9
:1052D0008942704770B540F2FF7601F0004C5B00E8
:1052E00006EA11545D0D1ABFB442B54278E0B3EB43
:1052F000410F08BF82424BD2C3F3530343F48013E0
:10530000C1F3130141F48011641B0B3C13D9C90292
:1053100041EA5051B1FBF3FE03FB1E11A2FB0EE666
:10532000DEEBC020B14101D28018594150EA01069C
:1053300053D00B3CEBD80B34C4F12006A14020FA2B
:1053400006F6A0403143B1FBF3FE03FB1E11A2FBA6
:105350000EE6B0EB0E00B14101D28018594102BFF8
:105360000146203D0020C1B3B1FA81F39940C3F159
:10537000200220FA02F211439840ED1A0A3509DBA7
:10538000C00A40EA41504CEAD12101EB055170BD01
:1053900023D070BDD5F10B05B5F120020DDAC5F1B2
:1053A00020020300E84001FA02F6E940934073F15D
:1053B0000043704151EB0C0170BD402D0DDC4308E2
:1053C00021FA02F0C2F1200511FA05F6334373F118
:1053D000004370415CF1000170BD6146002070BD6A
:1053E00053EA020E1ABFB442B54237E0B3EB410FA5
:1053F00008BF8242CCD25B08B3FA83F504BFB2FA8D
:1054000082F6AD190B3DB5F1200624BF02FA06F372
:1054100005E0AB40C5F1200622FA06F63343AA4068
:10542000D5F1010524427FF46BAF31F00041B1FAB0
:1054300081F404BFB0FA80F6A4190B3CB4F1200645
:1054400024BF00FA06F105E0A140C4F1200620FACD
:1054500006F63143A040D4F1010455E74FF400159E
:1054600015EB410F2CBF6FF00041EB4218BF6FF0FE
:105470000041BDE87040C0F01580704710B504468B
:10548000012000F015F82046BDE8104000F01CB8DF
:1054900010B50446012000F00BF82046BDE810408E
:1054A00000F01CB81FB5FFF7A9FD212101601FBD49
:1054B00010B50446DFF80C00FCF7A4FA50F82400FD
:1054C00010BD0000442AFF1FA0F10901052901D3E6
:1054D000202801D10120704700207047A0F1410130
:1054E0001A2938BF203070470000803FCDCCCC3F18
:1054F000CDCCCC3F9001000000B0034000B00B4089
:10550000000000000000000000000000000000009B
:1055100000000000000000000000000000004E6FCE
:105520006E4D61736B61626C6500000000486172D2
:10553000644661756C740000000000004D656D4D9F
:10554000616E6167656D656E7400004275734661DA
:10555000756C7400000000000000557361676546BB
:1055600061756C7400000000000000000000000085
:10557000000000000000000000000000000000002B
:10558000000000000000000000000000000000001B
:10559000000000000000000000000000000000000B
:1055A0000000000000535643616C6C0000000000D6
:1055B0000000000044656275674D6F6E69746F721C
:1055C00000000000000000000000000000000000DB
:1055D000000050656E64535600000000000000009B
:1055E000005379735469636B0000000000000000F1
:1055F000444D413000000000000000000000004465
:105600004D41310000000000000000000000444D4A
:1056100041320000000000000000000000444D4145
:10562000330000000000000000000000444D413441
:105630000000000000000000000000444D41350063
:1056400000000000000000000000444D4136000052
:10565000000000000000000000444D413700000041
:105660000000000000000000444D41380000000030
:1056700000000000000000444D413900000000001F
:10568000000000000000444D4131300000000000E7
:105690000000000000444D413131000000000000D6
:1056A00000000000444D41313200000000000000C5
:1056B000000000444D4131330000000000000000B4
:1056C0000000444D413134000000000000000000A3
:1056D00000444D4131350000000000000000000092
:1056E000444D415F4572726F720000000000004D32
:1056F000434D000000000000000000000000465480
:10570000464C0000000000000000000000526561EF
:10571000645F436F6C6C6973696F6E004C56445FD5
:105720004C565700000000000000004C4C57000091
:10573000000000000000000000005761746368640E
:105740006F6700000000000000524E47000000009C
:10575000000000000000000049324330000000005B
:10576000000000000000004932433100000000004A
:10577000000000000000535049300000000000000D
:1057800000000000005350493100000000000000FC
:1057900000000000535049320000000000000000EB
:1057A00000000043414E305F4F525F4D425F6275D3
:1057B000660043414E305F4275735F4F666600007E
:1057C0000043414E305F4572726F7200000000006E
:1057D00043414E305F54785F5761726E696E674324
:1057E000414E305F52785F5761726E696E67434118
:1057F0004E305F57616B655F5570000000526573F6
:10580000657276656435310000000000526573658D
:10581000727665643532000000000043414E315F0E
:105820004F525F4D425F6275660043414E315F42A9
:1058300075735F4F666600000043414E315F4572ED
:10584000726F72000000000043414E315F54785F78
:105850005761726E696E6743414E315F52785F5790
:1058600061726E696E6743414E315F57616B655F70
:1058700055700000005265736572766564353900B5
:105880000000000052657365727665643630000072
:1058900000000055415254305F52585F5458000088
:1058A000000055415254305F455252000000000044
:1058B0000055415254315F52585F54580000000067
:1058C00055415254315F45525200000000000055CE
:1058D000415254325F52585F545800000000554105
:1058E0005254325F455252000000000000554152B0
:1058F00054335F52585F54580000000055415254D1
:10590000335F4552520000000000005541525434AC
:105910005F52585F54580000000055415254345FA4
:1059200045525200000000000055415254355F526C
:10593000585F54580000000055415254355F45529D
:10594000520000000000004144433000000000000D
:10595000000000000000414443310000000000004E
:105960000000000000434D50300000000000000027
:1059700000000000434D5031000000000000000016
:10598000000000434D503200000000000000000005
:10599000000046544D3000000000000000000000F0
:1059A0000046544D310000000000000000000000DF
:1059B00046544D320000000000000000000000438B
:1059C0004D54000000000000000000000000525490
:1059D000430000000000000000000000005265735A
:1059E0006572766564383300000000005049543019
:1059F0000000000000000000000000504954310089
:105A00000000000000000000000050495432000077
:105A10000000000000000000005049543300000066
:105A20000000000000000000504442300000000070
:105A3000000000000000005553423000000000004C
:105A400000000000000055534244434400000000A1
:105A50000000000000454E45545F313538385F5432
:105A6000696D6572454E45545F5472616E736D6920
:105A7000740000454E45545F526563656976650064
:105A80000000454E45545F4572726F720000000081
:105A90000049325330000000000000000000000008
:105AA0005344484300000000000000000000004490
:105AB00041433000000000000000000000004441AD
:105AC0004331000000000000000000000054534972
:105AD0003000000000000000000000004D434700BF
:105AE00000000000000000000000004C5054696DF0
:105AF0006572000000000000000052657365727658
:105B0000656431303200000000504F5254410000B3
:105B10000000000000000000504F525442000000FE
:105B200000000000000000504F52544300000000ED
:105B3000000000000000504F5254440000000000DC
:105B40000000000000504F525445000000000000CB
:105B5000000000005265736572766564313038006C
:105B6000000000526573657276656431303900005B
:105B70000000526573657276656431313000000053
:105B80000052657365727665643131310000000042
:105B900052657365727665643131320000000052DF
:105BA00065736572766564313133000000005265BB
:105BB000736572766564313134000000005265739C
:105BC0006572766564313135000000005265736599
:105BD000727665643131360000000052657365727B
:105BE0007665643131370000000052657365727666
:105BF0006564313138000000005265736572766566
:105C000064313139000000000080034000900340FF
:105C100000800B4000900B4000F00F4040F00F4020
:105C200080F00F40C0F00F4000F10F4066000A1DE9
:105C300032000701640007106E00040678000408B3
:105C40008200040A8C00040C9600040EA0000410CC
:105C5000AA000412B4000414BE000416C8000418FC
:105C6000D200041ADC00041CE100041DE600041E3E
:105C7000EB00041FF4000317FA00031813010106D8
:105C80002C010214000109080090044000A0044007
:105C900000B0044000C0044000D0044000A0064012
:105CA00000B0064000C0064000D0064000A00E40F4
:105CB00000B00E40010000000100000001000000E3
:105CC00001000000010000000100000001000000D0
:105CD000DC05000034353637010000000DC111002D
:105CE00009030CD01240173F185019031A783200DC
:105CF000A00A63E0ACFF650C6600670029142C1E47
:105D00002A007E0C7F16802A814E8261836F847BFD
:105D10008586868E879788A489AF8AC58BD78CE8BD
:105D20008D204A00491347084B144C174605229909
:105D30002303A6049B009CFFAB069E119F0200005C
:105D400031000000020401016029FF1FB029FF1F7C
:105D50006029FF1F6029FF1F6029FF1FA90CFF1F7B
:105D6000900CFF1F00000000000000000000000079
:105D70000000000000000000000000000000000023
:105D800000000000DFF800F0AD0CFF1FDFF8B413D7
:105D900040B231F8201040B20128C0F2788140B200
:105DA000162880F274810022DFF89C331A7089B2C1
:105DB000652904DA0022DFF890335A707DE089B259
:105DC000C92904DA0122DFF880335A7075E089B2FC
:105DD000B1F5967F04DC0222DFF86C335A706CE078
:105DE00089B2B1F5C87F04DC0322DFF85C335A7056
:105DF00063E089B2B1F5FA7F04DC0422DFF84833AE
:105E00005A705AE089B2B1F5167F04DC0522DFF83A
:105E100038335A7051E089B2B1F52F7F04DC062285
:105E2000DFF824335A7048E089B2B1F5487F04DCCA
:105E30000722DFF814335A703FE089B2B1F5617F71
:105E400004DC0822DFF800335A7036E089B2B1F57D
:105E50007A7F04DC0922DFF8F0325A702DE089B233
:105E600040F24D42914203DA0A22B74B5A7024E0C5
:105E700089B2B1F5966F03DC0B22B34B5A701CE06C
:105E800089B240F21552914203DA0C22AE4B5A709D
