S01800006C6967656E5F6361725F4B36304631322E73726563AF
S1130000D01F00201104000021040000F9A000000A
S1130010210400002104000021040000000000006D
S113002000000000000000000000000021040000A7
S1130030210400000000000021040000A5A6000027
S113004091500000DB500000255100006F5100006A
S1130050B7510000F15100002B520000655200001E
S11300609F520000D9520000135300004D5300006A
S113007087530000C1530000FB53000035540000B7
S113008021040000210400002104000021040000D8
S113009021040000210400002104000021040000C8
S11300A091A20000EBA2000051970000FB97000012
S11300B0A5980000BB9A0000C39A0000CB9A0000E8
S11300C0D99A0000E39A0000ED9A0000EF9A00002C
S11300D0F19A0000F39A0000FB9A0000039B0000D1
S11300E0119B00001B9B0000459B0000479B0000E8
S11300F0499B0000E75A0000DD5D00003F5B000003
S1130100DF5D0000975B0000E15D0000EF5B000035
S1130110E35D0000475C0000E55D00009F5C0000BB
S1130120E75D000069A5000073A50000210400003C
S11301302104000021040000657C00006F7C0000A5
S11301407D7C000021040000C9A4000021040000FB
S11301505DA4000073A4000089A400009FA4000013
S1130160DDA30000B5A6000021040000A9A300003F
S113017083A300005DA30000BFA3000021040000CE
S1130180210400009DA1000007A2000029A5000091
S113019021040000F1A5000021040000E14C00004E
S11301A0F34C0000054D0000174D0000294D0000E0
S11301B021040000210400002104000021040000A7
S11301C02104000021040000210400002104000097
S11301D021040000877C00007DA5000087A50000A5
S11301E02104000021040000FBA00000FBA000008B
S11301F0FBA00000FBA00000FBA00000FBA000008F
S1130200FBA00000FBA00000FBA00000FBA000007E
S1130210FBA00000FBA00000FBA00000FBA000006E
S1130220FBA00000FBA00000FBA00000FBA000005E
S11304100148804701480047FD9F00007B5E0000C3
S113042009F06BBE10B40020002100220023DFF885
S113043094482468002C05D0DFF88C080068DFF8A5
S11304408C180860012062E0DFF884285A2303FB3B
S113045000228A5C1E3ABF2A55D3DFF874285A2337
S113046003FB00228A1812F85B2CDFF864385A2444
S113047004FB0033CB1813F85A3C53FA82F2DFF82A
S113048050385A2404FB0033CB1813F8593C52FA61
S113049083F2DFF83C385A2404FB0033CB1813F8FA
S11304A0013C52FA83F2DFF828385A2404FB003363
S11304B0CB185B7852FA83F2DFF814385A2404FB21
S11304C00033CB1893F8593052FA83F2DFF800382E
S11304D05A2404FB0033CB1893F85A3052FA83F2AF
S11304E0DFF8EC375A2404FB0033CB1893F85B3065
S11304F052FA83F2082392FBF3F2DFF8D4375A243A
S113050004FB0033CA54491C59299DDB401C632851
S113051001DA0121F8E7DFF8B827DFF8483903E00A
S11305201E201870521C5B1CDFF83C09904208D353
S1130530DFF89807006811788842F1DAC82018704B
S1130540F0E7012000E0401C632840DADFF81419CA
S11305505A2202FB00114A1C0CE012F8011C1E294D
S113056007D11178C82904D151781E2901D11E213F
S11305701170521CDFF8EC185A2303FB0011593197
S11305808A42E0D212F8011CC829E6D111781E294A
S1130590E3D15178C829E0D112F85A1CC829DCD11A
S11305A012F85B1CC829D8D112F8591CC829D4D117
S11305B092F85A10C829D0D192F85910C829CCD130
S11305C092F85B10C829C8D1C8211170D1E710BCBA
S11305D0704780B500F001F801BD38B50021012253
S11305E00020DFF8A03818600020DFF89C3818607D
S11305F00020DFF8983818600020DFF8943818607D
S11306000020DFF8903818600020DFF88C3818607C
S11306100020DFF8883818602D24632501200EE0BF
S11306202100280000F07CF92D1ADFF85818096819
S11306304118DFF850281160022D00DA002000284C
S1130640EED1DFF840080068DFF82C180860DFF806
S1130650500804602124632501200EE021002800B5
S113066000F05EF92D1ADFF8201809684118DFF848
S113067018281160022D00DA00200028EED1DFF8DE
S1130680F8070068DFF800180968884208DADFF81C
S1130690F8070068DFF8E0170860DFF80408046072
S11306A03824632501200EE02100280000F038F9E9
S11306B02D1ADFF8D81709684118DFF8D027116020
S11306C0022D00DA00200028EED1DFF8AC07006824
S11306D0DFF8B8170968884208DADFF8B00700685D
S11306E0DFF894170860DFF8B80704601624632560
S11306F001200EE02100280000F012F92D1ADFF885
S1130700901709684118DFF888271160022D00DA74
S113071000200028EED1DFF860070068DFF87017CA
S11307200968884208DADFF868070068DFF84817C4
S11307300860DFF86C0704604324632501200EE0A1
S11307402100280000F0ECF82D1ADFF8481709689A
S11307504118DFF840271160022D00DA002000283C
S1130760EED1DFF814070068DFF82817096888421B
S113077008DADFF820070068DFF8FC160860DFF805
S1130780200704600B24632501200EE021002800CB
S113079000F0C6F82D1ADFF8001709684118DFF8D1
S11307A0F8261160022D00DA00200028EED1DFF8CF
S11307B0C8060068DFF8E0160968884208DADFF83E
S11307C0D8060068DFF8B0160860DFF8D4060460C5
S11307D04E24632501200EE02100280000F0A0F83B
S11307E02D1ADFF8B81609684118DFF8B026116031
S11307F0022D00DA00200028EED1DFF87C06006824
S1130800DFF898160968884208DADFF8900600686D
S1130810DFF864160860DFF888060460DFF8640611
S11308200068DFF864160968884206DADFF85806BB
S11308300068DFF83816086005E0DFF8480600684D
S1130840DFF828160860DFF848060068DFF820168D
S11308500860DFF844060068DFF84016096888423B
S113086006DADFF838060068DFF80816086005E0E5
S1130870DFF824060068DFF8FC150860DFF8EC05F3
S11308800068DFF8EC1509680818DFF8E81509684E
S11308900818DFF8E8150860DFF8DC050068DFF801
S11308A0CC150968884204D10120DFF8D4150870FA
S11308B035E0DFF8C4050068DFF8B8150968884238
S11308C004D10220DFF8B815087028E0DFF8A80585
S11308D00068DFF89C150968884220D1DFF88C0590
S11308E00068DFF890150968401A02F05BF90528E2
S11308F004DA0020DFF88815087010E0DFF87405CA
S11309000068DFF868150968884204DA0120DFF816
S11309107015087003E00220DFF86415087031BD1B
S1130920DFF840255A2303FB00228A5CC82A0DD134
S1130930DFF830255A2303FB0020081810F85A0C5E
S1130940C82801D1022018E0012016E0DFF81425A0
S11309505A2303FB00228A1812F85A2C1E2A0BD1A0
S1130960DFF800255A2303FB0020081810F8B40C04
S11309701E2801D1002000E00120704780B500202E
S1130980DFF82015086000F0AFFA01F07FFE02F0F6
S113099083F801F0EDFF01BD80B55FF0FF30002169
S11309A0DFF804251268DFF804351B689A4203DA7D
S11309B0DFF8F414096802E0DFF8F0140968DFF8DE
S11309C0F0241268914202DBDFF8E4140968DFF8CE
S11309D0D8140968462923DBDFF8D804006802F03C
S11309E0E1F8232814DADFF8D0040068DFF8CC1427
S11309F00968401A02F0D6F8142809DADFF8C0248E
S1130A00D2E900010022DFF8BC3402F0E7F804D395
S1130A10DFF8940400685A2801DB002000E001207C
S1130A20DFF884140968462918DADFF888040068B6
S1130A3002F0B8F8372810DADFF88424D2E900018C
S1130A400022DFF8843402F0C9F806D2DFF8580433
S1130A500068322801DB022000E00320DFF86C1478
S1130A60087001BD2DE9FF47060014001D000A3C73
S1130A700A350020DFF85814086000275FF00008EA
S1130A8000A8102102F0D2F80023072C00DA072472
S1130A90532D00DB5225701E3100721C331F16F1DA
S1130AA0040C002800D50020002900D50021002ACC
S1130AB000D50022002B00D50023BCF1000F01D586
S1130AC05FF0000C642800DB6320642900DB6321F1
S1130AD0642A00DB6322642B00DB6323BCF1640F14
S1130AE001DB5FF0630C00E0641CA542C0F2CC8023
S1130AF00023DFF870C35FF05A0E0EFB01CC14F82C
S1130B000CC0BCF11E0F1BD1DFF858C35FF05A0EA6
S1130B100EFB01CC14EB0C0C1CF803CCBCF1C80F7D
S1130B200ED1DFF840C35FF05A0E0EFB01CC14EB7C
S1130B300C0C9CF803C0BCF1C80F01D14FF47A73BC
S1130B40B3F57A7FD0DB8A4225D0DFF818C35FF093
S1130B505A0E0EFB02CC14F80CC0BCF11E0F19D0B7
S1130B60DFF800C35FF05A0E0EFB02CC14EB0C0C42
S1130B701CF801CCBCF11E0F0CD0DFF8E8C25FF00A
S1130B805A0E0EFB02CC14EB0C0C9CF801C0BCF109
S1130B901E0F00D16433884229D0DFF8C8C25FF049
S1130BA05A0E0EFB00CC14F80CC0BCF11E0F19D069
S1130BB0DFF8B0C25FF05A0E0EFB00CC14EB0C0C45
S1130BC01CF801CCBCF11E0F0CD0DFF898C25FF00A
S1130BD05A0E0EFB00CC14EB0C0C9CF801C0BCF1BB
S1130BE01E0F04D140F24C4C634500DA643340F2EA
S1130BF04C4C6345FFF678AF5FF00008844614E080
S1130C00DFF860925FF05A0A0AFB0C991EF809900B
S1130C10B9F11E0F01D118F101081EF1010E14F1F2
S1130C200709F145ECDA1CF1010C624502DBB4F171
S1130C30070EF4E7B2EB000C1CF1010C5FEACC0CDC
S1130C40C44500DB0A3340F2564C6345FFF64CAF13
S1130C5000A840F827407F1CE41D87480068D0F1B5
S1130C606400B0420ADA00988D490968401A01F01C
S1130C7099FF1F2802DB5FF0FF301FE00120944939
S1130C8008600098801C19E0002F02D15FF0FF304B
S1130C9014E079480068D0F16400B0420ADA0098A0
S1130CA07F490968401A01F07DFF1F2802DB5FF0CD
S1130CB0FF3003E0012086490860009804B0BDE8D5
S1130CC0F08700007804FF1F7C04FF1F7404FF1FDB
S1130CD04CB9FF1F80B5FFF7C5FE02BDF8B50C2067
S1130CE0002164227B4B1A6000227B4B1A60002295
S1130CF07A4B1A6001220024002545E0594B5A27FB
S1130D0007FB0233EB1813F85A3C1E2B4BD1554BFF
S1130D105A2707FB0233EB1813F8B43C1E2B42D1BD
S1130D20504B5A2707FB0233EB18B3F587731B7834
S1130D301E2B38D14B4B171A5FF05A0C0CFB0733A0
S1130D40EB5C1E2B2FD1474B101A5A2707FB0030A0
S1130D50281810F85A0C1E2825D100265E48006871
S1130D60A0420DDA5C480460200001F063FF002219
S1130D705B4B01F077FF02F047F8281A57490860E7
S1130D80002E00D100246D1C592D59DA00210126B2
S1130D90632209E00C20334B5A2707FB0233EB5C38
S1130DA0C82B07D1491C521E292AD7DB5B2AF1DB49
S1130DB00E20F0E72B4B5A2707FB0233EB1813F8EE
S1130DC05A3C1E2B9AD1274B5A2707FB0233EB18A8
S1130DD013F8B43C1E2B91D1224B5A2707FB023344
S1130DE0EB18B3F587731B781E2B87D11D4B171A8D
S1130DF05FF05A0C0CFB0733EB5CC82B7FF47EAF1F
S1130E00184B171A5FF05A0C0CFB0733EB1813F846
S1130E105A3CC82B7FF472AF174B1B68082B02DBBC
S1130E200129FFF66BAF144B1B68D3F173039A428D
S1130E30BFF664AF641C101A2A4941F825008DE7F7
S1130E4028482649096850F82100083821490860D3
S1130E50204800680A2802DA0A201E4908601E4851
S1130E600068F2BD74DCFF1F73DCFF1F2813FF1F33
S1130E702C13FF1F3013FF1F3413FF1F3813FF1FE2
S1130E80C3FFFF1FD814FF1FDC14FF1FE014FF1F54
S1130E90E414FF1FE814FF1FEC14FF1FF014FF1FDE
S1130EA08004FF1FA815FF1FF414FF1FF814FF1F71
S1130EB0FC14FF1FAC15FF1F0C15FF1F1015FF1F9F
S1130EC08806FF1F0000594000C062406404FF1FF1
S1130ED07C16FF1F8404FF1F4013FF1F3C13FF1FDA
S1130EE00000E03F8016FF1F2DE9F04F91B000266F
S1130EF0002000210191002101915FF02D092D2492
S1130F0000218DF800105FF0000803218DF8011016
S1130F1000210691002105910021039100218DF803
S1130F20011000218DF8011000218DF8011000211D
S1130F301091002101910021DFF8AC2C11600021F7
S1130F40DFF8A82C11600021DFF8A42C1160002127
S1130F50DFF8A02C11600021DFF89C2C1160002127
S1130F60DFF8982C11600021DFF8942C1160002127
S1130F700B9100210A910021DFF8882C11600021D7
S1130F80DFF8842C11600021DFF8802C116000212F
S1130F90DFF87C2C11600021DFF8782C117000211F
S1130FA0DFF8E42D11700021DFF8E02D11705FF0FF
S1130FB0FF31DFF8DC2D11600021DFF8D82D11603E
S1130FC00021DFF8D42D11600021DFF8D02D11703D
S1130FD0DFF8C81D0978DFF8C82D11705FF0000B29
S1130FE05FF0000A0027002500210D9100210C91DB
S1130FF00021DFF8D42D11600021DFF8D02D11601D
S11310000021DFF8CC2D11600021019164210891A9
S11310100021DFF8C02D11600021DFF8BC2D116024
S11310200021DFF8B82D11600021DFF8B42D116024
S11310300021DFF8B02D11600021DFF8AC2D116024
S113104064210291002101220F9201220E92632257
S113105000235FF0000CDFF894EDDEF800E0BEF151
S11310603C0F1DDA5A230022DFF8C80D0168632003
S1131070FFF7F8FC10F1010F12D10020DFF8B81DC2
S11310800860FFF72BFEDFF8B01D0968152907DBA0
S11310900020DFF8A81D0860DFF8A40D00680290A6
S11310A0DFF8980D00685C2806DADFF8900D006818
S11310B0401CDFF8881D0860DFF8800D00685A289E
S11310C004DA0120DFF87C1D086003E00020DFF86B
S11310D0741D08600298642810D00020DFF85C1D9D
S11310E00860632607E0DFF8600D0068DFF85C1D28
S11310F041F82600761E02988642F4DA0298D0F16E
S11311006400DFF8E81A08600298461E07E0DFF87A
S1131110DC0A0068401CDFF8D41A0860761E002E32
S113112001F1B1820398002841F0AD820020DFF87C
S1131130201D41F826000020DFF8C01D41F82600DC
S1131140382E16DB300001F075FDDFF8B42DDFF822
S1131150B43D01F087FD0022DFF8AC3D01F082FDD3
S11311600022DFF8A43D01F075FE01F04DFE04906D
S11311701AE0300001F05EFD5FF03332DFF88C3DA1
S113118001F070FD0022DFF8803D01F06BFD0022CC
S1131190DFF8743D01F05EFE0022DFF8743D01F0DB
S11311A07DFF01F031FE0490432E02DB1E200790E8
S11311B006E0222E02DB1420079001E00D200790A8
S11311C0D6F16400DFF8241C0968491F884220DA3C
S11311D00F9800281DD028200790DFF8380DD0F88C
S11311E00090DFF8300D0468B9F1000F01D55FF00D
S11311F00009B9F1590F01DB5FF05809002C00D543
S11312000024592C00DB5824032001905720099016
S1131210C6E0612E80F291800298401E864200F062
S11312208C800D98012820DB0D98801B28281CDA5F
S1131230DFF8E40C10EB86008068DFF8DC1C11EBAF
S113124086014968884205DADFF8CC0C10EB860089
S1131250406804E0DFF8C00C10EB860080684F287B
S113126003DB5FF05A095A2432E00C98012820DB92
S11312700C98801B28281CDADFF8A00C10EB8600E1
S11312804068DFF8981C11EB86018968884205DA0A
S1131290DFF8880C10EB8600406804E0DFF87C0C73
S11312A010EB860080680A2803DA5FF00009002446
S11312B00EE0DFF8680C10EB86004068079911EB2C
S11312C00009DFF8540C10EB860040680799441AB3
S11312D0B9F1000F01D55FF00009B9F1590F01DB35
S11312E05FF05809002C00D50024592C00DB582449
S11312F0DFF8280C10EB860040680799401A01902B
S1131300DFF8140C10EB8600406807990818099060
S11313100198002801D50020019001985A2801DB8A
S1131320592001900998002801D5002009900998B6
S11313305A2835DB5920099032E0DFF8E40B0068C5
S113134005280BDADFF8DC0B0068DFF8DC1B096822
S1131350884203DA5FF04309432413E0DFF8C80B43
S1131360006805280BDADFF8BC0B0068DFF8B01B57
S11313700968884203DA5FF01609162402E05FF078
S11313802D092D24032001905720099002986428E8
S113139006D0DFF8B40AD0F80090DFF8AC0A04688D
S11313A05FF000088DF8008000200A900A980B90E6
S11313B05FF0FF30DFF8641B41F826005B20DFF8A4
S11313C0581B41F826005FF0000B5FF0000A00276D
S11313D0002500200021622E03DBDFF8580A016893
S11313E004E0DFF8680A10EB86004168DFF81C08A7
S11313F00068002800F0B7800298401E864208D199
S11314005A230022DFF82C0A01683000FFF72AFB78
S113141011E0DFF8040B10EB86004368DFF8FC0AE8
S113142010EB86004268DFF8240A10EB860041685E
S11314303000FFF717FBDFF8D8170968DFF8CC276F
S11314401160DFF8CC170968002915D0DFF8B4174C
S11314500968491CDFF8AC271160DFF8AC1709688C
S1131460DFF8A027126891420ADADFF898170968B2
S1131470DFF89427116003E00021DFF8882711606A
S113148010F1010F40F09480DFF804190968002975
S113149000F08E80552E14DADFF8B01911EB8601B6
S11314A04968243913290CD3DFF85C170968052926
S11314B007DB0520DFF8401708600120039001F0E6
S11314C0D0B8DFF8881911EB860149681239372939
S11314D00CD3DFF834170968052907DB0620DFF889
S11314E0181708600120039001F0BBB8DFF8A818B2
S11314F00968052932DB1F2E30DB0020B6F10C0110
S1131500300021E0DFF80C2A1268DFF8403943F894
S11315102020DFF8002A1268049BD21ADFF8FC3975
S113152043F82020DFF8EC291268049B9A18DFF8AE
S1131530E83943F82020761EDFF8B0261268521CE2
S1131540DFF8A8361A60401E814201DA0028D9D596
S11315500020DFF84418086001F083B80021DFF8A8
S11315603828116024E00298401E864210D1DFF82A
S1131570A80910EB86004368DFF8A00910EB860089
S11315804268DFF8B00801683000FFF7A3FB09E008
S11315905A230022DFF8B40810EB860041683000BB
S11315A0FFF798FBDFF868160968DFF8602611601A
S11315B0DFF85C160968002926D0DFF8D41709681B
S11315C0002921D5DFF84C090068DFF8801841F8BC
S11315D02600DFF8400900680499401ADFF83C1936
S11315E041F82600DFF82C09006804990818DFF890
S11315F0281941F82600DFF898070068401CDFF836
S11316009017086001F02DB8DFF804160968002966
S11316102AD0DFF880170968491CDFF878271160A1
S1131620DFF870170968DFF8CC2B1160DFF81C189D
S113163041F82600DFF8D4150968002912D0DFF834
S113164058170968491CDFF8502711600499411A9A
S1131650DFF8C82842F8261004990818DFF8B818EB
S113166041F8260000F0FDBF002001E0641C401C8E
S11316705A2880F2DB80DFF8801B5A2202FB061115
S1131680415C1E2903D10B99491C0B9102E00A9974
S1131690491C0A919DF80010002961D101998945DE
S11316A05EDBDFF8541B5A2202FB061119EB010121
S11316B089781E2902D11AF1010A01E01BF1010BFC
S11316C0DFF8341B5A2202FB061119F801101E29F7
S11316D044D1DFF8241B5A2202FB061119EB010145
S11316E0C978C8293AD1DFF8101B5A2202FB061127
S11316F019EB010149781E2930D1DFF8FC1A5A226E
S113170002FB061119EB01010979C82926D1DFF87A
S1131710E81A5A2202FB061119EB010189781E29E5
S11317201CD1DFF8D41A5A2202FB061119EB01016D
S11317304979C82912D119F10201012908DB19F1EB
S11317400201DFF8D82742F8261001218DF8001095
S11317505FFA88F8B8F1000F02D067E0B9F1010927
S11317605FFA88F8B8F1000F7FF481AF0999A142BC
S1131770FFF67DAFDFF8801A5A2202FB06116118CA
S113178011F8021C1E2901D16D1C00E07F1CDFF83A
S1131790681A5A2202FB0611615C1E297FF466AFA7
S11317A0DFF8541A5A2202FB0611611811F8031CBF
S11317B0C8297FF45BAFDFF8401A5A2202FB0611F6
S11317C0611811F8011C1E297FF450AFDFF8281AA4
S11317D05A2202FB0611611811F8041CC8297FF46F
S11317E045AFDFF8141A5A2202FB0611611811F8EA
S11317F0021C1E297FF43AAFDFF8FC195A2202FBBF
S11318000611611811F8051CC8297FF42FAFA11E19
S1131810592906DAA11EDFF8002742F826105FF0E6
S113182001089DF8001000293FF421AF9DF8000045
S1131830002840F0938019F1010FC0F28F80DA453F
S113184080F28C805FF0000A5FF0000B0120DFF86B
S1131850001641F82600B9F1050F01DA5FF0050919
S1131860079810EB090002E0B9F10109401E0128B4
S11318705DDB9DF800100029F8D1B9F1000FF5D413
S1131880DFF874195A2202FB061119EB0101897859
S11318901E2902D11AF1010A01E01BF1010BDFF844
S11318A058195A2202FB061119F801101E29DBD11E
S11318B0DFF844195A2202FB061119EB0101C97819
S11318C0C829D1D1DFF830195A2202FB061119EBCD
S11318D0010149781E29C7D1DFF81C195A2202FBDD
S11318E0061119EB01010979C829BDD1DFF80819DE
S11318F05A2202FB061119EB010189781E29B3D182
S1131900DFF8F4185A2202FB061119EB0101497998
S1131910C829A9D119F10200012808DB19F1020034
S1131920DFF8F81541F8260001208DF800009DF835
S11319300000002840F0A180DA4580F29E80022059
S1131940DFF80C1541F826007FF00400DFF8CC1511
S113195041F8260001208DF800008EE09DF800007B
S1131960002840F08A80B9F15A0F80F28680D3456E
S113197080F283805FF0000A5FF0000B5FF0FF30BD
S1131980DFF8CC1441F82600484602E019F10109B9
S1131990401C5A285EDA9DF800100029F8D1B9F1EC
S11319A0000FF5D4DFF850185A2202FB061119EB88
S11319B0010189781E2902D11AF1010A01E01BF103
S11319C0010BDFF834185A2202FB061119F8011032
S11319D01E29DBD1DFF820185A2202FB061119EB6D
S11319E00101C978C829D1D1DFF80C185A2202FBA9
S11319F0061119EB010149781E29C7D1DFF8F81740
S1131A005A2202FB061119EB01010979C829BDD13B
S1131A10DFF8E4175A2202FB061119EB0101897859
S1131A201E29B3D1DFF8D0175A2202FB061119EB95
S1131A3001014979C829A9D119F102010129A7DBBA
S1131A4019F10201DFF8D42442F8261001218DF89F
S1131A5000109DE79DF8000000280ED1D3450CDA54
S1131A607FF00100DFF8E81341F82600012006901A
S1131A705F20DFF8A81441F826005FFA88F8B8F16F
S1131A80000F40F085805B2C80F28280BD4280F2A2
S1131A907F80002500270120DFF8601441F826002C
S1131AA05A2C00DB54240798201A01E0641C401CC3
S1131AB05A2857DA5FFA88F8B8F1000FF7D15A2C90
S1131AC0F5DADFF834175A2202FB0611611811F80F
S1131AD0021C1E2901D16D1C00E07F1CDFF81817C1
S1131AE05A2202FB0611615C1E29DFD1DFF80817B8
S1131AF05A2202FB0611611811F8031CC829D5D11A
S1131B00DFF8F4165A2202FB0611611811F8011CC1
S1131B101E29CBD1DFF8E0165A2202FB0611611808
S1131B2011F8041CC829C1D1DFF8CC165A2202FBD3
S1131B300611611811F8021C1E29B7D1DFF8B81676
S1131B405A2202FB0611611811F8051CC829ADD1EF
S1131B50A01E592806DAA01EDFF8BC1341F826009F
S1131B605FF001085FFA88F8B8F1000F40F0AB802D
S1131B70BD4280F2A8800220DFF8801341F82600DD
S1131B805F20DFF8941341F826005FF001089AE023
S1131B905FFA88F8B8F1000F40F09580012CC0F28C
S1131BA09280AF4280F28F80002500275FF0FF30E3
S1131BB0D24941F82600200001E0641C401E01289F
S1131BC06EDB5FFA88F8B8F1000FF7D15A2CF5DA1A
S1131BD0DFF824165A2202FB0611611811F8021CC0
S1131BE01E2919D16D1C18E0E817FF1FF414FF1FFC
S1131BF0F814FF1FFC14FF1FF017FF1F0415FF1F2D
S1131C000815FF1F3C15FF1F4015FF1F7816FF1F07
S1131C107C16FF1FC6FFFF1F7F1CDFF8DC155A224E
S1131C2002FB0611615C1E29C7D1DFF8CC155A22CC
S1131C3002FB0611611811F8031CC829BDD1DFF895
S1131C40B8155A2202FB0611611811F8011C1E294D
S1131C50B3D1DFF8A4155A2202FB0611611811F85A
S1131C60041CC829A9D1DFF890155A2202FB0611D9
S1131C70611811F8021C1E299FD1DFF87C155A2225
S1131C8002FB0611611811F8051CC82995D1A01E84
S1131C90592805DAA01EA04941F826005FF0010882
S1131CA05FFA88F8B8F1000F0DD1AF420BDA7FF07C
S1131CB00100924941F826007FF00400964941F85A
S1131CC0260001200590944850F82600934951F8C5
S1131CD02610401A082828DA3C2E04DAD6F15E00D1
S1131CE0DFF8041C08600120069001200590012003
S1131CF003900720DFF8F41B08603C480068643850
S1131D0030180B2811DB00200690002005900020DD
S1131D100390804800681E307F4941F826007D48C2
S1131D2000681E387D4941F826007B4850F826009B
S1131D300E2804DB794850F826004D2809DB0120E1
S1131D40069001200590012003900B20DFF89C1BD6
S1131D5008600B98502825DB00200B900120DFF849
S1131D60901B7054DFF88C0B0078401CDFF8841B48
S1131D7008700120069001200590012003900C209A
S1131D80DFF8681B086037E0C7FFFF1FC8FFFF1FAD
S1131D908C04FF1FF417FF1F0C18FF1FC4FFFF1F45
S1131DA0C5FFFF1F0A98502822DB00200A90DFF8A5
S1131DB0480B0078401CDFF8401B08700220DFF855
S1131DC0301B705418E000BF2415FF1F2815FF1F97
S1131DD02C15FF1FF817FF1FFC17FF1F0018FF1F0C
S1131DE00418FF1F0818FF1FD414FF1F3413FF1F0C
S1131DF00020DFF8FC1A70540698002806D1DFF89A
S1131E00FC0A0068401CDFF8F41A086005980028F2
S1131E1006D1DFF8EC0A0068401CDFF8E41A086019
S1131E200698002803D19DF80000002812D1012053
S1131E3011E000BF5004FF1F4013FF1F8804FF1F61
S1131E408404FF1FEC17FF1F3C13FF1F9811FF1F93
S1131E50540BFF1F00200599002904D15FFA88F86C
S1131E60B8F1000F01D1012100E000210A18012A74
S1131E7022DBDFF8902A52F82620002A06D0DFF869
S1131E80882A1268521CDFF8803A1A601B4A52F8FA
S1131E902620002A06D0DFF8742A1268521CDFF8C4
S1131EA06C3A1A60DFF8602A1268DFF8603A1B683F
S1131EB09A18DFF85C3A1A6051EA0002002A37D116
S1131EC0154A52F826205B2A0ADB144A52F82620C7
S1131ED0012A05DB002901D1012129E0002127E0A5
S1131EE00D4A52F826205A2A22DA0C4A52F82620A1
S1131EF0002A1DD5002819D1012019E0E40CFF1F88
S1131F009A9999999999D93F000059403333D33F0D
S1131F10000014408004FF1F0810FF1F780EFF1FED
S1131F202813FF1F2C13FF1F3013FF1F0020FFE790
S1131F30002800F0B180002940F0AE80DFF8D40919
S1131F400068401CDFF8CC190860DFF8CC09006891
S1131F50401CDFF8C41908600120DFF8C41941F8F7
S1131F602600DFF8B80990F90000002801D0612E9E
S1131F700ADBDFF8B00950F826000499401ADFF8AC
S1131F80A81941F8260013E0DFF89C0910EB86003D
S1131F904068DFF8901951F826100818DFF8841902
S1131FA011EB86014968401ADFF87C1941F82600D4
S1131FB0DFF8780950F8260010F1050F32D1DFF868
S1131FC0680950F8260000F035FE02000B001400EA
S1131FD01D00DFF8500950F8260000F02BFEDFF852
S1131FE05029DFF8503900F03DFE22002B0000F0AC
S1131FF0F5FD17D2DFF82C0950F82600292811DB4B
S1132000DFF8200950F8260000F014FEDFF820293C
S1132010DFF8203900F026FE00F0F6FEDFF808199C
S113202041F82600DFF8F00800680B281DDBD6F124
S11320306400292819DADFF800090068002814D0A0
S1132040DFF8F80800683C280FDADFF8F4080068C5
S113205000280AD0632005E00121DFF8CC2842F8EB
S11320602010401E3A28F7DA1096632E40F0F982C9
S11320705FF0FF30DFF8CC180860DFF8A80850F8EC
S11320802600DFF8C4180860DFF89C0850F8260022
S1132090DFF8BC180860E4E2002840F0D48000298E
S11320A000F0D180DFF86C080068401CDFF8641889
S11320B00860DFF898080068401CDFF89018086092
S11320C00220DFF85C1841F82600DFF8500890F988
S11320D00000002801D0602E0ADADFF8500850F81A
S11320E0260004990818DFF8401841F8260012E089
S11320F0DFF8340850F82600DFF8301851F82610BD
S11321000818DFF8281811EB86014968401ADFF82F
S1132110181841F82600DFF80C0850F826005F284C
S11321204ED1DFF8080850F82600D0F15A0000F02C
S113213081FD5FF03332DFF81C3800F093FD0400BA
S11321400D00DFF8E80750F8260000F073FD2200C8
S11321502B0000F0A3FF02000B0014001D00DFF8A9
S1132160C80750F8260000F065FD22002B0000F09F
S113217035FD25D2DFF8B40750F826003C281FDAD5
S1132180DFF8A80750F82600D0F15A0000F052FDFD
S11321905FF03332DFF8BC3700F064FD04000D005B
S11321A0DFF8880750F8260000F044FD22002B00D9
S11321B000F074FF00F028FEDFF86C1741F82600E9
S11321C0DFF8880700680B2826DBD6F164002C288A
S11321D022DADFF86407006800281DD0DFF85C0706
S11321E000683C2818DADFF858070068002813D084
S11321F0632009E01018FF1F74DCFF1F5921DFF86A
S1132200282742F82010401E3928F7DA01200390CD
S11322100120069001200590632E40F02282DFF811
S11322200C0750F82600DFF81C1708605FF0FF3039
S1132230DFF814170860DFF8F00650F82600DFF81E
S1132240101708600DE200283ED000293CD0DFF8CA
S113225008070068401CDFF8001708600320DFF857
S1132260C01641F82600DFF88806305C022807D142
S1132270DFF8E8060068DFF8B01641F82600F0E160
S11322804FF49570DFF8A01641F82600632E10D1A4
S11322905FF0FF30DFF8AC1608605FF0FF30DFF866
S11322A0A8160860DFF8800650F82600DFF8A016AC
S11322B008600698002800F0D4810598002800F0F2
S11322C0D08101200390CCE1DFF848060068401C6F
S11322D0DFF8401608600520DFF8441641F82600B0
S11322E0DFF8480650F82600022811DBDFF8340630
S11322F050F8260058280BDADFF864060068401C02
S1132300DFF85C1608600420DFF8141641F8260094
S1132310DFF84C0600680299C91E891B8842C0F286
S1132320B9800E98002800F0B580DFF8000650F858
S11323302600DFF8F81511EB86014968401A00F011
S113234031FC052815DADFF8DC0510EB860040685F
S1132350DFF8D01551F82610401A052809DBDFF8FC
S1132360C00510EB86004068042802D1DFF8F405AC
S11323700660DFF8B00550F82600DFF8A81511EB69
S113238086014968401A00F00DFC052816DADFF8CA
S11323909C0550F82600DFF8941511EB8601496876
S11323A0401A05280ADBDFF8780510EB8600406840
S11323B0042803D17042DFF8AC150860DFF8A405E7
S11323C00068002832D5DFF89C0500685FF0FF3113
S11323D04843801B062829DBDFF8440510EB860000
S11323E04068042822D1DFF83C0550F82600DFF8C5
S11323F0341511EB86014968401A00F0D3FB052817
S113240014DADFF8280510EB86004068DFF81C15A5
S113241051F82610401A052808DB0020DFF844157F
S113242008607FF00500DFF840150860DFF8340528
S1132430006801282EDBDFF82C050068801B0628C5
S113244028DBDFF8DC0410EB86004068042821D187
S1132450DFF8D80450F82600DFF8D01411EB860119
S11324604968401A00F09EFB052813DADFF8B4042B
S113247050F82600DFF8AC1411EB86014968401AC5
S1132480052807DB0020DFF8DC1408600620DFF8ED
S1132490D8140860DFF8C804006803281BD1029828
S11324A0401E801B012816DB0298401E11E0DFF855
S11324B0781451F82610DFF8702412EB8602526863
S11324C05118022291FBF2F1DFF85C2442F820104B
S11324D0401E8642EBDBDFF8540450F82600DFF898
S11324E0441451F82610DFF8442452F82620891A9F
S11324F0022291FBF2F10818DFF82C1441F82600AF
S1132500DFF8280450F8260001280CDADFF8140458
S113251050F82600592806DBDFF840040068DFF88D
S1132520081441F82600DFF8FC0350F82600DFF811
S1132530FC1351F82610401A00F07CFB02000B003B
S113254014001D00049800F075FB0022DFF81C3411
S113255000F088FB22002B0000F040FB08D2332E51
S113256006DBDFF8F8030068DFF8BC1341F8260047
S11325700898801B042845DB0898642842DA0898E8
S1132580401EB0423EDADFF8A013089A51F8221038
S1132590DFF8942352F82620891A052911DBDFF885
S11325A08813089A51F82210DFF87C2352F8262069
S11325B05118022291FBF2F1491EDFF86C2342F814
S11325C02010DFF86413089A51F82210DFF858231A
S11325D052F82620891A11F1040F11DADFF8481392
S11325E0089A51F82210DFF8402352F82620511897
S11325F0022291FBF2F1491CDFF82C2342F820104F
S1132600401CBEE70896632E2BD1DFF8200350F858
S11326102600DFF830130860DFF8080350F82600BE
S1132620DFF824130860DFF8000350F82600DFF811
S11326302013086015E0002006900020059000207B
S11326400390DFF8180300681E30DFF8D81241F851
S11326502600DFF8080300681E38DFF8D01241F8BE
S11326602600039800283EF452ADD6F16400DFF84A
S1132670CC120968491F884204DADFF8140500689F
S11326800428D8DBFFE711B0BDE8F08FF8B50024CB
S113269000200025082603270021DFF8F824116014
S11326A00021DFF8E42311600021DFF8E02311604A
S11326B000210C0005E00020DFF8D413E4B26054DC
S11326C0641CE4B2642CF6DB002422E0E4B2002CA7
S11326D01ED0DFF85402E4B250F82400DFF84812A8
S11326E0E4B211EB840151F8041C401ADFF8A4137E
S11326F0E4B26054DFF89C03E4B2205600F052FACE
S1132700FFB2874204DADFF88803EDB22C546D1C63
S1132710641CE4B2642CD9DBEDB2002D2DD100246D
S1132720E4B2642C80F2C080DFF85C030068401CD3
S1132730DFF854130860E4B2B4F11F0045281AD23C
S1132740DFF848030068401CDFF840130860DFF836
S113275044040068DFF8D011E4B211EB840151F8AD
S1132760041C0818DFF8C011E4B251F82410401A10
S1132770DFF820140860641CD2E73000C0B2DFF830
S1132780101391F9001000B209B2884231DA002422
S113279025E0DFF8F4020068401CDFF8EC12086062
S11327A0E4B21F2C1ADBDFF8E4020068401CDFF8F7
S11327B0DC120860DFF8DC030068DFF86C11E4B2B7
S11327C011EB840151F8041C0818DFF85C11E4B221
S11327D051F82410401ADFF8BC130860641C200070
S11327E0C0B2DFF8AC1291F9001000B209B288420D
S11327F0CFDB6420DFF89812EDB2685400203CE08F
S1132800DFF884120968491CDFF87C221160DFF8C4
S11328108012C0B241562200D2B209B212B2914221
S11328201DDAE4B21F2C1ADBDFF860120968491CB8
S1132830DFF858221160DFF85C130968DFF8E8203C
S1132840E4B212EB840252F8042C5118DFF8D820B9
S1132850E4B252F82420891ADFF838231160641C8A
S11328602100C9B2DFF82822C0B2821892F90120EF
S113287009B212B29142C3DB401CC0B2EDB2A8420D
S113288012D2F6B2DFF80812C0B2411891F9011061
S1132890DFF8FC21C0B28256891A8E42ECDADFF8E6
S11328A0F011C0B2445CDBE7DFF8E0010068022805
S11328B00FDBDFF8E002006800F074F9DFF8CC11F8
S11328C0096890FBF1F000F05DFCDFF8CC120860C1
S11328D008E0DFF8C802DFF8C01208603220DFF831
S11328E0B4120860F1BD0000F414FF1FF017FF1FBD
S11328F04415FF1FC6FFFF1FC7FFFF1FF814FF1F6C
S1132900FC14FF1F540BFF1F2815FF1F2C15FF1F5E
S11329103015FF1F2415FF1FF817FF1F6404FF1F46
S11329204413FF1F0810FF1F9811FF1F780EFF1F8D
S11329309A9999999999D93FEC17FF1F3413FF1F5E
S1132940740EFF1F6804FF1F6C04FF1FFC17FF1F9A
S11329507004FF1F3333E33F0018FF1F8004FF1F81
S11329600418FF1F0818FF1FD414FF1F00000440A1
S11329702DE9F0410025002600200024884909683B
S1132980D1F164070021DFF8342211605F210D00CA
S113299000210E001AE0DFF81C12EDB251F82510E8
S11329A00818DFF818120968DFF80822EDB252F8A7
S11329B025205118DFF8FC21EDB212EB8502526894
S11329C0891ADFF8F82111606D1E761CEDB2AF4252
S11329D0E1DB00F039F90022DFF8DC3100F042F9E4
S11329E004000D00F6B2300000F02EF902000B00D6
S11329F02000290000F02EFA00F0DEFB0400002085
S1132A000021DFF8BC21C2E900015F2526E0DFF8E0
S1132A10A401EDB250F8250000F0B4FB0100200041
S1132A2000F012FC8046DFF88C01EDB250F825006E
S1132A3000F0A8FB0100200000F006FC414600F075
S1132A4077FC00F0E1FCDFF878C1DCE9002300F05A
S1132A5025FBDFF86C21C2E900016D1EEDB2AF4227
S1132A60D5DBF6B2300000F0EFF802000B00DFF81F
S1132A705041D4E9000100F0EDF9DFF84421C2E946
S1132A800001BDE8F08100000015FF1F3815FF1F8D
S1132A90B015FF1F1416FF1F2DE9F04140480468CC
S1132AA000250026DFF80C01D0F88C710020DFF837
S1132AB0141108600020DFF8101108600020DFF80E
S1132AC00C1108600020DFF8081108600020DFF80E
S1132AD00411086032480068D0F163000600012048
S1132AE0050033E0DFF8E4000068DFF8C81051F8AF
S1132AF026100818DFF8BC1011EB86014968401A4B
S1132B00DFF8C8100860DFF8CC000068401CDFF86C
S1132B10C4100860DFF8AC00006800F043F8804699
S1132B20DFF8900050F82600C01B00F03BF8804509
S1132B300ADADFF8800050F82600C01BDFF88410A2
S1132B400860DFF894000660761C6D1C622E1DDAA6
S1132B50022094FBF0F08542C4DADFF86C000068D0
S1132B60DFF8501051F826100818DFF8481011EB60
S1132B7086014968401ADFF850100860DFF85000F9
S1132B800068401CDFF848100860C3E7BDE8F08126
S1132B904015FF1F3415FF1F1418FF1F000040408D
S1132BA0F414FF1F002803D55FF0FF314843FFE70B
S1132BB0704700009811FF1F0000F03FAC15FF1F85
S1132BC08806FF1F1C15FF1F0C15FF1F1015FF1F84
S1132BD01415FF1F1815FF1F2015FF1F4FF4001CAD
S1132BE01CEB410F94BF1CEB430F09E041EA030CBB
S1132BF050EA4C0C52EA0C0C03D2994208BF9042A2
S1132C00704714BF8B428242704750F8041B61B175
S1132C1050F8042BD30744BFA9F101039A180023E9
S1132C2042F8043B091FFAD1EFE77047002200F095
S1132C3013BC0000010040F10980F446404200F05A
S1132C4005F851F000416047010000BF09D0B0FA17
S1132C5080F18840C91CC1F58461090501EBD021CC
S1132C6040057047B0B581EA030C0CF0004C40F20B
S1132C70FF7515EA11541DBF15EA1357AC42AF4254
S1132C8039E0E41923EA455343F48013C90241F0BF
S1132C90004141EA505EC7021100A7FB020200286E
S1132CA04FF00000EEFB01204FF00001E3FB072191
S1132CB018BF42F00102401800214941E3FB0E0114
S1132CC0A4F580640F0302D252004041494154F1FB
S1132CD001046CDD470872F1004250F1000051EB31
S1132CE00451A1F580115CBF41EA0C01B0BD4CEA6E
S1132CF005510020B0BD05EA1357AC4214BFAF42E2
S1132D0041E050EA410E1CBF52EA430E02E0614624
S1132D100020B0BD24423C441BD15FEA070EF6D02C
S1132D20090302BF01460020AEF1140EB1FA81F787
S1132D30AEEB070401FA07FE0C37C7F1200100FAD5
S1132D4007F7C8404EEA000E23EA455343F48013C4
S1132D50A2E733F00043B3FA83F704BFB2FA82FE6A
S1132D6077440B3FE41BB7F1200E2FBF02FA0EF39A
S1132D70BB40C7F1200E22FA0EFE38BF43EA0E0311
S1132D80BA40641C82E750EA410E14BF52EA430E73
S1132D906FF000014FF4001717EB430F8ABF194679
S1132DA017EB410FB5E74CEA05510020B0BDD4F153
S1132DB00104B4F120070FDAC4F12007520828BF38
S1132DC042F0010210FA07F501FA07F7E1BF2A43BE
S1132DD0E0403843E1400FE0352C98DCC7F1200493
S1132DE052EA400220FA07F218BF42F0010231FA17
S1132DF007F0A1400A43002172F1004250F10000A3
S1132E0051EB0C01B0BD0000F446400D40EAC12076
S1132E10490006D200F00EF8004248BF6FF00040AF
S1132E20604700F007F84FF0004188428CBF084625
S1132E304042604740F00040490DA1F58061491CC3
S1132E4005D4D1F11F0154BFC840C01770474FF0DB
S1132E5000007047F0B540F2FF7581EA030C0CF0F6
S1132E60004C15EA11541DBF15EA1357AC42AF428A
S1132E70E5E0BC41C1F31301C3F31303801A994184
S1132E8043F4801304D2641E400049418018594120
S1132E90C90241EA5051B1FBF3F603FB1611A2FB40
S1132EA00675D7EBC020A94102D2761E801859417D
S1132EB0C90241EA5051B1FBF3FE03FB1E11A2FB10
S1132EC00E75D7EBC020A94103D2AEF1010E8018D4
S1132ED05941890241EA9051760546EA8E2EB1FBAA
S1132EE0F3F603FB1611A2FB0675D7EB8020A9416C
S1132EF002D2761E80185941C90241EA50514EEA65
S1132F00060EB1FBF3F603FB1611A2FB0675D7EB15
S1132F10C020A94102D2761E80185941C90241EA53
S1132F205051B1FBF3F703FB1711A2FB0735D3EBA9
S1132F30C020A94167F100070CBF004247F0010718
S1132F4066F3D5274FEA1E31B80814F5806412DD04
S1132F50BD0775F1004250EB0E5051EB045111F5D1
S1132F60801F5CBF41EA0C01F0BD4CF07F6141F071
S1132F70E0410020F0BDBD076D0840EA0E5041F469
S1132F808011D4F10104B4F120060ADAC4F1200658
S1132F900200E04001FA06F3E1401843B240154351
S1132FA00EE0342C13DCC6F1200445EA40056D081C
S1132FB020FA06F2154321FA06F0A1400D43002140
S1132FC075F1004250F1000051EB0C01F0BD0020FE
S1132FD05FEA0C01F0BDCFB992185B41B3FA83F7F5
S1132FE004BFB2FA82F6BF190B3FB7F120062FBF18
S1132FF002FA06F3BB40C7F1200622FA06F638BFF0
S11330003343BA401CB1E419641E33E77F4231F004
S11330100041B1FA81F404BFB0FA80F6A4190B3C64
S1133020B4F120062FBF00FA06F1A140C4F1200636
S113303020FA06F638BF3143A0403C1B1AE7AC42E5
S11330401ABF05EA1357AF4212E050EA41061CBF0B
S113305052EA4306BFE750EA4107304661461CBFC7
S113306041EA0551F0BD52EA430C08BFC143F0BD2B
S113307000204FF4001616EB410F98BF16EB430FD8
S113308008BF16EB410F24BFC14305E016EB430F05
S11330900CBF61464CEA0551F0BD000070B44FF01E
S11330A0004591EA030C44BF6B4000F0EFB900BF48
S11330B0841A71EB030603D2001BB1411219734148
S11330C04FF4001C1CEB410F34BF7CEB430443E082
S11330D00C0DA4EB1356352E50DC45EAC323DB0A52
S11330E045EAC121C912B6F120050DDD63FA05F6E2
S11330F0EB4086EA0305124218BF45F00105C018EB
S113310051F100010CD213E062FA06F5F240554089
S1133110F3415A40B340F3405A408018594107D311
S113312049085FEA30005FEA350528BF45F001052C
S113313001F58011420875F1004250F1000041EBA5
S1133140045170BC4FF4001C1CEB410F38BF704796
S11331500020090D090570471CEB410F10D252EAFB
S113316043060BD0BCEB410F05D80C0DAB43661ED8
S1133170342EB5DD02E0AB438018594170BC704772
S113318070BC7047002840F10980F446404200F0CA
S113319005F850F000406047002800BF0AD0B0FA9C
S11331A080F18840D1F19D01C905020672F1004207
S11331B041EB1020704700004FEAF17CBCF1E04C79
S11331C02CBFBCF5001F11E05FEA4C0C34BFBCF10E
S11331D07F5F2EE05FEA9C0C4FEA0C1C4FEA3C0C2C
S11331E0C10071F100414CEB50707047C90241EAD3
S11331F05051C00218BF41F0010141F000414FEAB3
S11332006C50C0F10900212810D240EACC7CCCF1EA
S1133210200C11FA0CF070F10040CCF1200C21FAD2
S11332200CF00CF0004C40EB0C0070474FEACC70F3
S11332307047490011F5001F04D84FEACC10FF3045
S1133240C0057047C817704790EA010F44BF81F06A
S1133250004100F0D9B900BF431A4FF000423EBF0D
S11332605340C01AC91800BFD3095FEAD05C13EBFE
S1133270400F34BFB3EB410F40E07CEBD1530CD390
S113328042EA012122D8D1EB402009D3400A28BFC9
S11332905FEA500140EBCC507047401A15D0400211
S11332A0B0FA80F2521C9040400A4FEA3C23B3EB40
S11332B0026384BF00EB730007E040F400001A16B9
S11332C0DB07C2F10102D04018437047182BFCDC25
S11332D031FA03F202FA03F3591A38BF42F0010239
S11332E0D2EB40203CBF4000ACF1010C5FEACC5C67
S11332F0C20572F100414CEB5020704713EB400FB4
S11333000FD24B0009D0ACEBD153022B03DB4902A3
S1133310172BDDDD70479143401A4300D5D10020BF
S1133320704713EB410FD0D36FF0000070470000DB
S1133330FF2212EAD05C1DBF12EAD1539445934296
S11333402BE09C44D30780EA01021A4043EA0020A0
S113335043EA0121A1FB0030410038BF40007CF169
S11333607F010BDBFE294ADA5B0842EAC15153EACA
S1133370006373F1004C51EB10207047D1F1080C3D
S1133380DCF120012FDB5B0810FA01F10B4373F130
S1133390004120FA0CF05041704794451CBF02EAEA
S11333A0D153934280EA010202F000421DD0400052
S11333B019D0490017D05BB9634514D00902B1FA9A
S11333C081F39940BCEB030CC00140F00040C1E71D
S11333D00002B0FA80FC10FA0CF0B3EB0C0CC9013B
S11333E041F00041B6E71000704740000AD04900A0
S11333F008D010F1807F94BF11F1807F02E042F089
S1133400FF407047D04370475FF0FF0C1CEAD05177
S113341014BF614506E0C110400721F0E04101F10D
S11334206051704779B900F0004100020AD0B0FA47
S113343080FC00FA0CF001F16051A1EB0C5101EB9E
S1133440D0214005704741020CBF40F4E0016FF009
S1133450000100207047000000B500BF130096462D
S11334609446103928BFA0E80C50FAD85FEA417C92
S113347028BF0CC048BF40F8042BC90728BF20F858
S1133480022B48BF00F8012B00BD0000841A71EB29
S1133490030604D26E40001BB141121973414FF46C
S11334A0001C1CEB410F34BF7CEB430684E00C0D85
S11334B0A4EB1356362E7DDC012E43DC45EAC323F0
S11334C043EA525312BFD20292025B08240545EA32
S11334D0C12141EA5051D2EBC020994125D407D1F2
S11334E0B0FA80F610FA06F164D00020203608E025
S11334F0B1FA81F6B140C6F1200220FA02F211437A
S1133500B0404FEAF474B4EB465434F001064FEA89
S113351074040AD8D6F50016760D04F00044F04081
S113352061FA06F25040F1404840C00A40EA415076
S113353021F0004128BF5FEA500550F1000044EB40
S1133540D12137E045EAC323DB0A45EAC121C90A90
S1133550B6F120050EDD42EA0242120CC5F1200646
S113356003FA06F6EB4042EA06056D42984161F122
S113357000010DE062FA06F5F240554063FA06FCDC
S113358082EA0C02F3405A406D42904161EB030120
S113359011F4801F05D1641E620502D06D00404104
S11335A0494121F48011430875F1004350F10000B2
S11335B041EB045170BC70471CEB410F15D223F052
S11335C0004352EA43060BD04FEA4C0CBCEB410FCC
S11335D004D80C0D661E342EB7DDEBE7801A994132
S11335E050EA410608BF0021E4E708BF1CEB430F83
S11335F028BF6FF00001DDE790EA010F44BF81F0BE
S11336000041FFF729BE00BF421A3CBF801A891847
S11336104FF0004CC0F3C752FF2A24D0C1F3C75364
S113362013B3D21AD2F1190327DD4CEA01214CFA63
S113363003F321EA0303D140C20D4CEA00204018F1
S113364034BF20EA0C004CEA5000D20553EA006370
S113365073EB0C0C52EB1020420012F1807F38BF48
S11336607047C00DC0057047490212BF9A4200EB73
S11336705120F8E7D2F11703D9D57047012110F092
S11336801F029140DFF8D02B40B2400942F82010CD
S11336907047012110F01F029140DFF8C02B40B2A7
S11336A0400942F82010704780B500F00BF800F094
S11336B0ACFB00F068FA00F02CFA00F007FC00F014
S11336C05AF801BD80B5DFF86809DFF8941B08607B
S11336D05FF04050DFF8881B48600020DFF8801B53
S11336E008730220DFF8781B8860DFF8741B84B04D
S11336F06846142201F064FA0FBC01F08DFADFF879
S11337003409DFF85C1B0860DFF82C09DFF8501B74
S113371048600020DFF8481B08730220DFF8401BD4
S11337208860DFF83C1B84B06846142201F048FA34
S11337300FBC01F071FADFF8D80ADFF8241B086027
S11337401020DFF81C1B48600120DFF8141B0873ED
S11337500020DFF80C1B48734020DFF8041B88604E
S1133760DFF8FC1A84B06846142201F029FA0FBC71
S113377001F052FA01BD00B587B0DFF8E80ADFF8BE
S1133780E81A08600020DFF8E01A08730120DFF867
S1133790D81A48605FF48030DFF8CC1A8860DFF80C
S11337A0C81A84B06846142201F00AFA0FBC01F06A
S11337B033FADFF8B80ADFF8B81A08600020DFF837
S11337C0B01A08734FF48070DFF8A41A48605FF4ED
S11337D08030DFF89C1A8860DFF8941A84B0684659
S11337E0142201F0EDF90FBC01F016FA0120DFF804
S11337F0841A08703320DFF87C1A487047F6FF708B
S1133800DFF8701A88800120DFF8681A8860DFF812
S1133810680ADFF8601AC860DFF85C0ADFF8541A37
S113382088610120DFF84C1A81F825000FF2C900E5
S1133830DFF8401A8862DFF83C1A84B068462C220C
S113384001F0BEF90FBC01F099FA0220DFF82C1A3E
S113385008703420DFF8241A487047F6FF70DFF848
S11338601C1A88800120DFF8141A8860DFF8100A17
S1133870DFF8081AC860DFF8080ADFF8001A886160
S11338800120DFF8F81981F825000FF29900DFF81C
S1133890EC198862DFF8E41984B068462C2201F040
S11338A08FF90FBC01F06AFA0320DFF8D019087011
S11338B03120DFF8C819487047F6FF70DFF8BC19EB
S11338C088800120DFF8B4198860DFF8B809DFF8D0
S11338D0AC19C860DFF8AC09DFF8A0198861DFF81B
S11338E09C1984B068462C2201F06AF90FBC01F0DF
S11338F045FA07B000BD000000B587B0DFF88809BD
S11339000068401CDFF880190860DFF8681984B08B
S113391068462C2201F054F90FBC01F02FFA07B0CD
S113392000BD000000B587B0DFF860090068401CE6
S1133930DFF858190860DFF8441984B068462C226F
S113394001F03EF90FBC01F019FA07B000BD00B553
S113395087B047F6FF70DFF83819098889B2401A32
S1133960FFF710FCDFF82C19086047F6FF70DFF84A
S11339702819098889B2401AFFF704FCDFF81C19DA
S11339800860DFF810090068DFF810190968FFF70C
S11339905BFC01F07BFDFFF705F91E281BDBDFF85C
S11339A0F4080068DFF8F418096801F091FD06D204
S11339B0DFF8E0080068DFF8DC18086005E0DFF8ED
S11339C0DC080068DFF8CC180860DFF8C808006875
S11339D0DFF8C818086047F6FF70DFF8C4180988D4
S11339E089B2401ADFF844160860DFF8A8080168B5
S11339F0DFF8A8080068FFF7FFFD5FF0804101F0E1
S1133A0079FDDFF8A01808600120DFF86818087055
S1133A103320DFF86018487047F6FF70DFF8541859
S1133A2088800120DFF84C188860DFF84C08DFF844
S1133A304418C860DFF84008DFF8381888610120AE
S1133A40DFF8301881F82500DFF85C08DFF8241867
S1133A508862DFF8201884B068462C2201F0B0F8A0
S1133A600FBC01F08BF90220DFF810180870342025
S1133A70DFF80818487047F6FF70DFF800188880F0
S1133A800120DFF8F8178860DFF8F407DFF8EC1797
S1133A90C860DFF8EC07DFF8E41788610120DFF87D
S1133AA0DC1781F82500DFF80408DFF8D0178862F6
S1133AB0DFF8C81784B068462C2201F081F80FBCE7
S1133AC001F05CF90320DFF8B41708703120DFF847
S1133AD0AC17487047F6FF70DFF8A0178880012004
S1133AE0DFF898178860DFF89C07DFF89017C86044
S1133AF0DFF89007DFF884178861DFF8801784B057
S1133B0068462C2201F05CF80FBC01F037F907B0CD
S1133B1000BD00B587B00020DFF8941708600020CE
S1133B20DFF8901708600020DFF88C170870352044
S1133B30DFF8841748704FF4CC70DFF87C17888066
S1133B400120DFF874178860DFF87007DFF8681762
S1133B50C860DFF86C07DFF8601788610120DFF8C0
S1133B605817C8830120DFF8501781F82400DFF8C4
S1133B70481784B068462C2201F022F80FBC01F0EB
S1133B80FDF807B000BD80B5DFF8E006DFF83C17AC
S1133B9008600020DFF834170873FF20DFF82C17C3
S1133BA048600320DFF824178860DFF8201784B00A
S1133BB06846142201F004F80FBC01F02DF8DFF878
S1133BC07404DFF8AC1608600020DFF8A41608734C
S1133BD00820DFF89C164860DFF8F406DFF890163A
S1133BE088600FF28D10DFF888160861DFF8801600
S1133BF084B06846142200F0E3FF0FBC01F00CF817
S1133C00DFF82C04DFF8CC1608600020DFF8C416B7
S1133C1008735FF40030DFF8BC164860DFF8B006C4
S1133C20DFF8B01688600FF29100DFF8A81608617B
S1133C30DFF8A01684B06846142200F0C1FF0FBC60
S1133C4000F0EAFFDFF8C805DFF8081D086040202F
S1133C50DFF8001D48600020DFF8F81C0873DFF867
S1133C607806DFF8F01C8860DFF8E81C84B068464A
S1133C70142200F0A5FF0FBC00F0CEFFDFF8B00364
S1133C80DFF8D01C08605FF40020DFF8C81C48602F
S1133C900020DFF8C01C0873DFF83C06DFF8B41C12
S1133CA08860DFF8B01C84B06846142200F088FFF6
S1133CB00FBC00F0B1FF01BD80B5FFF748FEDFF88F
S1133CC01C06006850F00200DFF810160860DFF8E8
S1133CD00C06006850F00400DFF800160860DFF8F6
S1133CE0FC05006850F00800DFF8F0150860DFF804
S1133CF0680C0068800306D5DFF8E4050068401C02
S1133D00DFF8DC150860DFF8500C006880031FD56D
S1133D10DFF8A005006800281AD1DFF8C80500689C
S1133D2042F21071884206DADFF8B8050068401CD8
S1133D30DFF8B0150860DFF88805DFF8AC15086017
S1133D405FF0FF30DFF8801508605820FFF796FC1D
S1133D50DFF88C050068022803DB0020DFF88015FB
S1133D6008605FF0FF30DFF8F01B086001BD000061
S1133D7080B5DFF854050068000740D5DFF830054A
S1133D800068401CDFF828150860DFF82405006887
S1133D90002803D10020DFF854150860DFF850052F
S1133DA0DFF85015096850F82100DFF80415096898
S1133DB081420FD1DFF83C050068401CDFF8341560
S1133DC00860DFF81805006850F00100DFF80C15F2
S1133DD0086014E0DFF81C05006864280FD1012096
S1133DE0DFF8D01408605820FFF753FC5FF0FF3071
S1133DF0DFF8BC1408600020DFF8F81408605FF0F6
S1133E00FF30DFF8C414086001BD80B58848DFF8CE
S1133E10501408605FF40030DFF844144860012057
S1133E20DFF83C1408730120DFF8341448730020D1
S1133E30DFF82C148860DFF8281484B06846142254
S1133E4000F0BEFE0FBC00F0E7FEDFF82004DFF850
S1133E50101408604FF40040DFF804144860012097
S1133E60DFF8FC1308730120DFF8F4134873002013
S1133E70DFF8EC138860DFF8E81384B06846142296
S1133E8000F09EFE0FBC00F0C7FEDFF88403DFF8ED
S1133E90D01308605FF08060DFF8C413486001202D
S1133EA0DFF8BC1308730120DFF8B4134873002053
S1133EB0DFF8AC138860DFF8A81384B068461422D6
S1133EC000F07EFE0FBC00F0A7FE01BD00B58BB074
S1133ED0DFF8C00B03905FF4E130049095208DF877
S1133EE0150094208DF8140001208DF816000FF2AF
S1133EF03D00089003A984B068461C2200F060FECF
S1133F000FBC01F080FB03A984B068461C2200F0BA
S1133F1057FE0FBC01F09BFD0A22DFF87C1BDFF883
S1133F20740B01F084FD0BB000BD000080B5E548C2
S1133F3001F071FDDFF8641BDFF8642B1278505434
S1133F40DFF8580B90F90000232807D1DFF8500B55
S1133F500078401CDFF8481B087003E00020DFF8FD
S1133F60401B0870DFF8380B00780E280DD10020B4
S1133F70DFF82C1B08700120DFF8281B087000F004
S1133F805DF80020DFF8181B087001BDDFF80C0B8A
S1133F904078DFF8141B0870DFF8000B8078DFF836
S1133FA00C1B0870DFF8F40AC078DFF8001B4870B7
S1133FB0DFF8E80A0079DFF8F41A8870DFF8DC0A21
S1133FC04079DFF8E81AC870DFF8D00A8079DFF8A2
S1133FD0DC1A0871DFF8C40AC079DFF8D01A487116
S1133FE0DFF8B80A007ADFF8C41A8871DFF8AC0A7F
S1133FF0407ADFF8B81AC871DFF8A00A807ADFF8CF
S1134000AC1A0872DFF8940AC07ADFF8A01A487272
S1134010DFF8880A007BDFF8941A8872DFF87C0ADC
S1134020407BDFF8881AC87270470000B4FFFF1F96
S113403000F00F4040F00F40300AFA0080B5DFF87E
S1134040640A0078012840F0E280FFF79FFFDFF860
S1134050580A90F90000412815D10422DFF84C1ABF
S1134060DFF84C0A01F0CEFE0422DFF8481ADFF82C
S1134070480A01F0C7FE0422DFF8401ADFF8400ABC
S113408001F0C0FEBFE0DFF8200A90F900004228EA
S113409015D10422DFF8141ADFF8280A01F0B2FE61
S11340A00422DFF8101ADFF8200A01F0ABFE042224
S11340B0DFF8081ADFF8140A01F0A4FEA3E0DFF821
S11340C0E80990F90000432815D10422DFF8DC192F
S11340D0DFF8FC0901F096FE0422DFF8D819DFF8B6
S11340E0F40901F08FFE0422DFF8D019DFF8E809A3
S11340F001F088FE87E0DFF8B00990F90000442859
S113410015D10422DFF8A419DFF8D00901F07AFEF2
S11341100422DFF8A019DFF8C80901F073FE0422B5
S1134120DFF89819DFF8BC0901F06CFE6BE0DFF8EA
S1134130780990F90000452865D10422DFF86C194C
S1134140DFF8A40901F05EFE0422DFF86819DFF845
S11341509C0901F057FE0422DFF86019DFF890098A
S113416001F050FEDFF88C0980685FF07E5101F0A9
S11341706BFE2CD1DFF88009DFF878190968FFF7A6
S113418063F801F083F940B202F0F0F80200002174
S1134190DFF8680903F0E2F8DFF85809406801F035
S11341A075F9642101FB00F20121DFF8500903F0E5
S11341B0D5F8DFF84009406801F068F9642101FB93
S11341C000F20221DFF8340903F0C8F81BE0DFF83D
S11341D024098068002101F037FE14D1002002F088
S11341E0C5F802000021DFF8140903F0B7F8002233
S11341F00121DFF8080903F0B1F800220221DFF8F9
S1134200FC0803F0ABF80020DFF89818087001BD33
S113421000F10F4070B504000D0000262321DFF8E3
S1134220740801F0FFFB290049B2DFF8680801F0C7
S1134230F9FB08222100DFF85C0801F0F8FB2900F3
S113424049B2DFF8500801F0EDFB2321DFF8440800
S113425001F0E8FB70BD000000E100E080E100E057
S1134260A0FFFF1F80F00F40C418FF1FC0F00F40D5
S1134270B018FF1F2C19FF1FCCFFFF1F5819FF1F79
S1134280CDFFFF1FCEFFFF1F8819FF1F8C19FF1FD3
S1134290369000404418FF1F569000404818FF1FF6
S11342A0769000404C18FF1FF938000025390000B3
S11342B0E404FF1F9CFFFF1F0019FF1FD0F00F40F5
S11342C0EC19FF1F00A00E40A0A00440EC18FF1F33
S11342D0020009009C18FF1F020001000C8000402E
S11342E0B8FFFF1FBCFFFF1F109000408419FF1F81
S11342F0EC04FF1F9019FF1F38B5DFF8EC070068C6
S1134300002101F0A1FD3CD1DFF8F417DFF8F40738
S1134310006800F023FB4121DFF8E407FFF77AFF90
S1134320DFF8DC170C00DFF8E0070068FEF72AFF6F
S1134330210000F013FB4221DFF8C407FFF76AFFF6
S1134340DFF8BC170C00DFF8C4070068FEF71AFF9B
S1134350210000F003FB4321DFF8A407FFF75AFF15
S1134360DFF89C170C00DFF8A8070068FEF70AFFC7
S1134370210000F0F3FA4421DFF88407FFF74AFF35
S1134380E6E2DFF8640700685FF07E5101F05CFD4F
S113439041D1DFF86C170C00DFF878070068FEF7EE
S11343A0F1FE210000F0DAFA4121DFF85407FFF7AB
S11343B031FFDFF84C170C00DFF85C27D2E900016D
S11343C0FEF7FAFE210000F0C9FA4221DFF83007B7
S11343D0FFF720FFDFF828170C00DFF8400700681C
S11343E0FEF7D0FE210000F0B9FA4321DFF81007F0
S11343F0FFF710FFDFF808170C00DFF82407006848
S1134400FEF7C0FE210000F0A9FA4421DFF8F0060F
S1134410FFF700FF9CE2DFF8D00600685FF0804100
S113442001F012FD40D1DFF8D8160C00DFF8F406D5
S11344300068FEF7A7FE210000F090FA4121DFF8A2
S1134440C006FFF7E7FEDFF8B8160C00DFF8D80661
S11344500068FEF797FE210000F080FA4221DFF8A1
S1134460A006FFF7D7FEDFF898160C00DFF8BC06AD
S11344700078FEF791FE210000F070FA4321DFF886
S11344808006FFF7C7FEDFF878160C00DFF8840615
S11344900068FEF777FE210000F060FA4421DFF89F
S11344A06006FFF7B7FE53E2DFF83C0600685FF0F2
S11344B0814101F0C9FC40D1DFF844160C00DFF85B
S11344C070060068FEF75EFE210000F047FA412105
S11344D0DFF82C06FFF79EFEDFF824160C00DFF849
S11344E054060068FEF74EFE210000F037FA422120
S11344F0DFF80C06FFF78EFEDFF804160C00DFF879
S113450038060068FEF73EFE210000F027FA43213A
S1134510DFF8EC05FFF77EFEDFF8E4150C00DFF8AA
S1134520EC050068FEF72EFE210000F017FA442186
S1134530DFF8CC05FFF76EFE0AE2DFF8AC05006891
S1134540DFF8F81501F080FC36D1DFF8B415DFF898
S1134550F005006800F002FA4121DFF8A405FFF736
S113456059FEDFF89C15DFF8DC05006800F0F6F969
S11345704221DFF88C05FFF74DFEDFF88415DFF8E4
S1134580C805006800F0EAF94321DFF87405FFF775
S113459041FEDFF86C150C00DFF828050068DFF831
S11345A0AC1500F0A7FF210000F0D8F94421DFF892
S11345B05005FFF72FFECBE1DFF82C050068DFF88C
S11345C0901501F041FC24D1DFF83415DFF884059F
S11345D0006800F0C3F94121DFF82405FFF71AFE53
S11345E0DFF81C15DFF81C05006800F0B7F942215C
S11345F0DFF80C05FFF70EFEDFF80415DFF85805A9
S1134600006800F0ABF94321DFF8F404FFF702FE81
S11346109EE1DFF8D40400685FF0824101F014FCED
S11346200CD1DFF8DC14DFF83405006800F096F9EB
S11346304121DFF8CC04FFF7EDFD89E1DFF8A804A0
S11346400068DFF81C1501F0FFFB40F09B8004229A
S1134650DFF81015DFF83C0401F0E9F90024DFF875
S11346600805006800281FD1DFF8FC040468632CE7
S113467080F26E81DFF888140D00DFF8F00450F842
S11346802400FEF77FFD290000F068F92321DFF8FC
S1134690040401F0C7F90422DFF86414DFF8F4031A
S11346A001F0C5F9641CE2E7DFF8BC0400681A28CD
S11346B021DBDFF8B4040068D0F164045F2C80F2DD
S11346C04781DFF83C140D00DFF8A00450F8240003
S11346D0FEF758FD290000F041F92321DFF8B40367
S11346E001F0A0F90422DFF81814DFF8A80301F0A0
S11346F09EF9641CE2E7DFF870040068292821DBD6
S1134700DFF864040068D0F164045A2C80F220813C
S1134710DFF8EC130D00DFF8540450F82400FEF722
S113472031FD290000F01AF92321DFF8680301F0B4
S113473079F90422DFF8C813DFF8580301F077F998
S1134740641CE2E7DFF820040068D0F16404642C00
S113475080F2FE80DFF8A8130D00DFF8100450F893
S11347602400FEF70FFD290000F0F8F82321C948C2
S113477001F058F90422DFF88813C64801F057F90C
S1134780641CE4E7DFF860030068DFF8E41301F079
S11347905BFB21D10822DFF8DC13BE4801F047F9A6
S11347A0002463200400012CC0F2D280D4490D00FF
S11347B0DFF8B80350F82400FEF7E4FC290000F009
S11347C0CDF82321B34801F02DF90422CC49B14896
S11347D001F02DF9641EE6E7C3480068DFF898137A
S11347E001F032FB21D10822DFF89013A94801F02F
S11347F01EF9002463200400012CC0F2A980C049E2
S11348000D00DFF87C0350F82400FEF7BBFC290000
S113481000F0A4F823219F4801F004F90422B849C8
S11348209C4801F004F9641EE6E7AF480068D549E6
S113483001F00AFB1FD10822D349964801F0F7F88A
S1134840002463200400012CC0F28280AC490D00D6
S1134850CE4850F82400FEF795FC290000F07EF8BD
S113486023218C4801F0DEF80422A549894801F08F
S1134870DEF8641EE7E79C480068C54901F0E4FAE5
S113488030D19F490C00C3480068FEF77BFC21002F
S113489000F064F841219A48FFF7BCFC98490C00E9
S11348A0BD480068FEF76EFC210000F057F8422175
S11348B09348FFF7AFFC92490C00B8480068FEF734
S11348C061FC210000F04AF843218D48FFF7A2FC67
S11348D08B49B348006800F041F844218848FFF749
S11348E099FC35E080480068AE4901F0ADFA2FD15B
S11348F083490C00A7480068FEF744FC210000F03F
S11349002DF841217E48FFF785FC7D490C00A24823
S11349100068FEF737FC210000F020F842217848B7
S1134920FFF778FC76490C009C480068FEF72AFCE7
S1134930210000F013F843217148FFF76BFC704924
S11349409748006800F00AF844216D48FFF762FCBC
S113495031BD0000D818FF1FA09004402DE9F04F8E
S113496085B004000D00200000F090FD0600824890
S11349702100FEF7DDFC07000A2000FB06F0FEF72D
S113498001FC01003800FEF75FFC00F07FFD07002A
S11349906E482100FEF7CCFC804677482100FEF7E4
S11349A0C7FC00F073FD0A214843FEF7EBFB01004E
S11349B04046FEF749FC00F069FD80467A48210034
S11349C0FEF7B6FC814661482100FEF7B1FC00F019
S11349D05DFD0A214843FEF7D5FB01004846FEF77A
S11349E033FC00F053FD814670482100FEF7A0FC23
S11349F082466D482100FEF79BFC00F047FD0A212A
S1134A004843FEF7BFFB01005046FEF71DFC00F0D3
S1134A103DFD824666482100FEF78AFC83466348D2
S1134A202100FEF785FC00F031FD0A214843FEF722
S1134A30A9FB01005846FEF707FC00F027FD83465A
S1134A405C482100FEF774FC009059482100FEF7F1
S1134A506FFC00F01BFD0A214843FEF793FB0100A5
S1134A600098FEF7F1FB00F011FD0490CDF80CB0B6
S1134A70CDF808A0CDF80490CDF800803B003200BA
S1134A804D49280003F0A2FB4C49086005B0BDE87D
S1134A90F08F000000A00E40C4A60000A019FF1F64
S1134AA0CBFFFF1FC9FFFF1FCAFFFF1F9419FF1F82
S1134AB03818FF1F9819FF1F3418FF1F9C19FF1F78
S1134AC09004FF1FA004FF1FC019FF1FC419FF1F7C
S1134AD08C18FF1FCC19FF1F9018FF1F1004FF1F15
S1134AE0D819FF1FDC19FF1FE804FF1FE419FF1F7B
S1134AF0E819FF1FE019FF1F00004842008003402F
S1134B00B019FF1F6C18FF1FF414FF1F9006FF1F3E
S1134B10F017FF1FAC15FF1F8806FF1F4013FF1F70
S1134B20BCFFFF1F0C15FF1F1015FF1FC3FFFF1F46
S1134B302813FF1F3013FF1F2C13FF1F0000C0405A
S1134B404418FF1F4818FF1F4C18FF1F0000C842DD
S1134B500000E040C804FF1F7018FF1F7C06FF1F01
S1134B6000004040E4A60000A406FF1F9811FF1FA8
S1134B7000001041ECA6000000002041F4A6000053
S1134B80780EFF1F00003041FCA600000810FF1F34
S1134B90000040416804FF1F7004FF1F6C04FF1FE6
S1134BA03C18FF1F0000504100007A4400401C469E
S1134BB00050C3470024744994A60000B819FF1F8D
S1134BC0103A07D330B4B1E83810103AA0E83810DE
S1134BD0F9D230BC530724BFB1E80810A0E808108C
S1134BE044BF51F8043B40F8043BD20724BF31F8DA
S1134BF0022B20F8022B44BF0B7803707047083A4D
S1134C0007D3B1E80810083A40F8043B40F804CB55
S1134C10F7D25307E4E700000FB4F0B4069850F459
S1134C208070049B05999DF81C709DF81D40089A9E
S1134C30424DAB420CD1424E0025FFB2012F23D18D
S1134C405F690F435F61E4B2012C1BD159601EE020
S1134C503C4DAB4202D13C4E0125EEE73B4DAB420D
S1134C6002D13B4E0225E8E73A4DAB4202D13A4E1F
S1134C700325E2E7394DAB4202D1394E0425DCE786
S1134C80002019E0996002E05C698C435C610023B8
S1134C9007E031FA03F4E40702D5DBB246F8230057
S1134CA05B1CDBB2202BF4DB1000002803D02D4862
S1134CB0EDB240F825200120F0BC04B0704710B4D8
S1134CC0036801248C40A343D2B212FA01F11943C0
S1134CD0016010BC7047012212FA01F1C1607047F3
S1134CE080B52048006880475FF0FF301E490860A7
S1134CF001BD80B51B48406880475FF0FF301B4909
S1134D00086001BD80B51748806880475FF0FF30B8
S1134D101749086001BD80B51248C06880475FF03C
S1134D20FF301449086001BD80B50E480069804712
S1134D305FF0FF301049086001BD000000F00F4033
S1134D400090044040F00F4000A0044080F00F4069
S1134D5000B00440C0F00F4000C0044000F10F4018
S1134D6000D00440880AFF1FA0900440A0A0044083
S1134D70A0B00440A0C00440A0D004400FB42DE96A
S1134D80FC4F9DF82C009DF82D109DF82E20BDF8A9
S1134D9030300D9C01940E9C00949DF83C40BDF96C
S1134DA03E50109E119F9DF848C0BDF94AE0DDF8C1
S1134DB04C809DF85090DFF8B8A6DAF800A05AF0BD
S1134DC0020ADFF8ACB6CBF800A0DFF8A4A6DAF844
S1134DD000A05AF0040ADFF898B6CBF800A0DFF878
S1134DE094A6DAF800A05AF0020ADFF888B6CBF8E5
S1134DF000A0DFF884A6DAF800A05FF0010B1BFA2C
S1134E0000FB3AEA0B0ADFF870B6CBF800A0C0B298
S1134E1010281FDA11F03F01DFF860A6C0B200F8D5
S1134E200A10D2B2012A0AD1DFF85016C0B2415C8E
S1134E3051F04001DFF84426C0B2815437E0DFF876
S1134E403C16C0B2415C11F0BF01DFF83026C0B29D
S1134E5081542CE011F03F01C0B200F1804A1AF5F0
S1134E60083A0AF8101CD2B2012A10D1C0B200F1DB
S1134E70804111F5083111F8101C51F04001C0B205
S1134E8000F1804212F5083202F8101C0FE0C0B2A3
S1134E9000F1804111F5083111F8101C11F0BF0127
S1134EA0C0B200F1804212F5083202F8101C0099D9
S1134EB0DFF8CC25C0B25FEA401A4AF80210C0B24B
S1134EC0410101F1804111F510418D80E4B22102CC
S1134ED011F4E061C0B2420102F1804212F51042C5
S1134EE0D180C0B2410101F1804111F51041CE6081
S1134EF0C0B2410101F1804111F510410F61C0B20E
S1134F00410101F1804111F51041A1F814E0C0B252
S1134F10410101F1804111F51041C9885FFA8CFC0F
S1134F201CF007021143C0B2420102F1804212F5A3
S1134F301042D180C0B2410101F1804111F510410C
S1134F40C1F818805904490CC0B2420102F18042F0
S1134F5012F51042D1825904490CC0B2420102F147
S1134F60804212F51042D1830199C0B2420102F18C
S1134F70804212F5104291600021C0B2420102F158
S1134F80804212F5104291831599002919D09DF899
S1134F905110012915D1C0B2410101F1804111F52F
S1134FA01041898B51F00201C0B2420102F18042EA
S1134FB012F5104291831599DFF8C824C0B242F863
S1134FC020101599002919D09DF85210012915D1E6
S1134FD0C0B2410101F1804111F51041898B51F0BA
S1134FE00401C0B2420102F1804212F510429183E1
S1134FF01599DFF89024C0B242F820105FFA89F9BD
S1135000B9F1010F10D1C0B2410101F1804111F594
S11350101041898B51F00801C0B2420102F1804273
S113502012F51042918310E0C0B2410101F18041B8
S113503011F51041898B4FF6F7721140C0B242014D
S113504002F1804212F510429183C0B210280ADAAC
S1135050DFF82814C0B2415C51F08001DFF81C2451
S1135060C0B281540FE0C0B200F1804111F50831A3
S113507011F8101C51F08001C0B200F1804010F50D
S1135080083000F8101C0120BDE8F60F5DF814FB91
S113509080B5DFF8F4030068C0070CD5DFF8E4033B
S11350A000688047DFF8E003006850F00100DFF893
S11350B0D813086010E0DFF8D0030068C0030BD5F4
S11350C0DFF8C003006C8047DFF8BC03006850F4CD
S11350D08030DFF8B413086001BD80B5DFF8A803A1
S11350E0006880070CD5DFF89C0340688047DFF830
S11350F09803006850F00200DFF88C13086010E099
S1135100DFF88403006880030BD5DFF87803406C74
S11351108047DFF87403006850F40030DFF8681348
S1135120086001BD80B5DFF86003006840070CD556
S1135130DFF8500380688047DFF84C03006850F0C4
S11351400400DFF84413086010E0DFF83C03006853
S113515040030BD5DFF82C03806C8047DFF828036D
S1135160006850F48020DFF82013086001BD80B58A
S1135170DFF81403006800070CD5DFF80803C068E3
S11351808047DFF80403006850F00800DFF8F812E5
S113519008600FE0DFF8F002006800030AD5DFF8CA
S11351A0E402C06C8047DFF8E002006850F400209D
S11351B0B549086001BD80B5B3480068C00609D58B
S11351C0B04800698047B048006850F01000AE490C
S11351D008600CE0AC480068C00208D5A948006D1E
S11351E08047A948006850F48010A749086001BDB1
S11351F080B5A5480068800609D5A2484069804763
S1135200A148006850F020009F4908600CE09E48C7
S11352100068800208D59B48406D80479A48006822
S113522050F400109849086001BD80B596480068A4
S1135230400609D59348806980479348006850F038
S11352404000914908600CE08F480068400208D58E
S11352508C48806D80478C48006850F480008A49EF
S1135260086001BD80B588480068000609D58548F6
S1135270C06980478448006850F080008249086013
S11352800CE081480068000208D57E48C06D804764
S11352907D48006850F400007B49086001BD80B57A
S11352A079480068C00509D57648006A8047764881
S11352B0006850F48070744908600CE0724800681B
S11352C0C00108D56F48006E80476F48006850F0F1
S11352D080706D49086001BD80B56B480068800529
S11352E009D56848406A80476748006850F40070F0
S11352F0654908600CE064480068800108D561488D
S1135300406E80476048006850F000705E49086055
S113531001BD80B55C480068400509D55948806ADC
S113532080475948006850F48060574908600CE091
S113533055480068400108D55248806E804752485D
S1135340006850F080605049086001BD80B54E4847
S11353500068000509D54B48C06A80474A48006880
S113536050F40060484908600CE0474800680001B8
S113537008D54448C06E80474348006850F0006038
S11353804149086001BD80B53F480068C00409D5A3
S11353903C48006B80473C48006850F480503A49D0
S11353A008600CE038480068C00008D53548006F34
S11353B080473548006850F080503349086001BD8B
S11353C080B531480068800409D52E48406B804779
S11353D02D48006850F400502B4908600CE02A481E
S11353E00068800008D52748406F80472648006839
S11353F050F000502449086001BD80B5224800687F
S1135400400409D51F48806B80471F48006850F44A
S113541080401D4908600CE01B480068400008D526
S11354201848806F80471848006850F0804016493B
S1135430086001BD80B514480068000409D511480E
S1135440C06B80471048006850F400400E49086063
S11354500CE00D480068002808D50A48C06F804752
S11354600948006850F000400749086001BD000089
S11354703C800440408004400C8000400010024006
S113548000900040E809FF1F248000404100090EFD
S11354907F3915D4D1F11F0114D4400007D2C001C3
S11354A040F00040C84048BF6FF000407047C00162
S11354B040F00040C8404CBF4FF0004040427047AD
S11354C00020704700424FF0004058BFC04370476F
S11354D04FF0807C1CEB400F94BF1CEB410F05E0A8
S11354E040EA010C5FEA4C0C01D28842704718BFB5
S11354F08142704710B5FF2313EAD0541DBF13EA4D
S1135500D1529C429A4239E0A41ADA0780EA010394
S1135510134042EA012142EA0020421A3CBF641EC1
S113552001EB4202090AB2FBF1FE01FB1E22120248
S1135530B2FBF1F001FB10226EF30F201202B2FB5A
S1135540F1FE4EEA00207F3406DDFE2C24DA53EA15
S1135550500050EBC45010BDD4F1020401FB1E22D4
S113556040F08071192C1DDC21FA04F0C4F12004F0
S1135570A140114371F10042584110BD9C421ABF31
S113558003EAD1529A420FE080EA010E0EF0004382
S1135590400004D0490016D143F0FF4010BD49003B
S11355A008BFD343180010BD9C4205D1D21AF7D0CE
S11355B001F00041484010BD4A0212BF084648406D
S11355C000F0004010BD4AB90902B1FA81F29140DD
S11355D044B1A418C00140F000409EE7C90141F065
S11355E0004152420002B0FA80F4A040141B94E738
S11355F0012110F01F029140DFF8FC2640B240095F
S113560042F8201070470FB4F0B50598069B9DF83A
S11356101C709DF81D500A990B9A002B01D14FF470
S11356201653DFF8D846A0423FD10024DFF8D066F5
S11356303668DFF8D0C6DCF800C05CF4806CDFF8B4
S1135640C4E6CEF800C0FFB2022F06D14FF40077B3
S1135650DFF8B4C6CCF800700FE0FFB20E2F06D10D
S11356604FF44077DFF8A4C6CCF8007005E04FF49F
S11356704077DFF89CC6CCF80070EDB2012D05D15F
S11356804FF40075DFF88C763D60F4E0EDB20F2D39
S113569005D14FF44075DFF880763D60EBE04FF4C0
S11356A04075DFF878763D60E5E0DFF87446A042A7
S11356B02CD10124DFF848663668DFF848C6DCF8E8
S11356C000C05CF4006CDFF83CE6CEF800C0FFB22A
S11356D07C2F06D14FF44077DFF848C6CCF8007031
S11356E005E04FF44077DFF840C6CCF80070EDB227
S11356F07D2D05D14FF44075DFF830763D60BAE07A
S11357004FF44075DFF828763D60B4E0DFF82446B6
S11357102668DFF82446A04213D10224DFF8E455BA
S11357202D6855F48055DFF8DC753D604FF4407505
S1135730DFF808763D604FF44075DFF804763D608D
S113574099E0DFF80046A0423CD10324DFF8B4C559
S1135750DCF800C05CF4005CDFF8A8E5CEF800C01B
S1135760FFB2802F06D14FF44077DFF8DCC5CCF8C8
S113577000700FE0FFB22B2F06D14FF44077DFF813
S1135780CCC5CCF8007005E04FF44077DFF8C0C515
S1135790CCF80070EDB2812D05D14FF44075DFF8DF
S11357A0B4753D6067E0EDB22A2D05D14FF4407524
S11357B0DFF8A4753D605EE04FF44075DFF89C753A
S11357C03D6058E0DFF89845A04229D10424DFF871
S11357D094C5DCF800C05CF4806CDFF888E5CEF892
S11357E000C0FFB2942F06D14FF44077DFF878C59C
S11357F0CCF8007005E04FF44077DFF870C5CCF8C2
S11358000070EDB2952D05D14FF44075DFF8607549
S11358103D6030E04FF44075DFF858753D602AE094
S11358200524DFF85405DFF83CC5DCF800C05CF45F
S1135830006CDFF830E5CEF800C0FFB2652F06D16A
S11358404FF44077DFF834C5CCF8007005E04FF42E
S11358504077DFF82CC5CCF80070EDB2642D05D18B
S11358604FF44075DFF81C753D6004E04FF440755B
S1135870DFF814753D60C57815F0F305C570002593
S113588085701D01B6FBF5F5077817F0E007ADB29A
S11358905FEA152C1CF01F0C5CEA070707704570C3
S11358A076011B01B6FBF3F3ADB2B3EB4513857A76
S11358B015F0E00713F01F033B4383729DF821307A
S11358C0012B0CD19DF81E30012B08D1C17851F069
S11358D02001C170C17A51F02001C17218E09DF815
S11358E01E30012B0CD10B00002B09D0C37853F0D0
S11358F02003C370DFF89434E4B243F8241007E0C3
S1135900C17811F0DF01C170C17A11F0DF01C172F9
S11359109DF8201001290CD19DF81F10012908D1F0
S1135920C17851F08001C170C17A51F08001C17217
S113593018E09DF81F1001290CD11100002909D08D
S1135940C17851F08001C170DFF84414E4B241F829
S1135950242007E0C17811F07F01C170C17A11F0F1
S11359607F01C172C178490725D49DF8251001290A
S113597021D1017C51F0080101749DF82610012900
S113598003D1417C51F001014174017C11F0070104
S1135990C9B2002904D00122491C12FA01F100E025
S11359A001219DF82720C9B2914201D2417502E03C
S11359B09DF827104175C178090725D49DF8221058
S11359C0012921D1017C51F0800101749DF823103B
S11359D0012903D1417C51F002014174017CC1F3DE
S11359E00211C9B2002904D00122491C12FA01F1A2
S11359F000E001219DF82420C9B2914201D2C17472
S1135A0002E09DF82410C174C17851F00C01C170FA
S1135A10F0BC5DF814FB01798906FCD590F9070008
S1135A2040B2704702791206FCD5C171704770B557
S1135A3004000D00160005E095F900102000FFF7A2
S1135A40F1FF6D1C3000461E0028F5D170BD0FB467
S1135A5080B50298DFF8A412884206D12D20FFF702
S1135A60C7FD2E20FFF7C4FD3AE00298DFF8B0121C
S1135A70884206D12F20FFF7BBFD3020FFF7B8FD89
S1135A802EE00298DFF8B012884206D13120FFF7E9
S1135A90AFFD3220FFF7ACFD22E00298DFF8A4123C
S1135AA0884206D13320FFF7A3FD3420FFF7A0FD81
S1135AB016E00298DFF8A812884206D13520FFF7D5
S1135AC097FD3620FFF794FD0AE00298DFF8A8124C
S1135AD0884205D13720FFF78BFD3820FFF788FD7A
S1135AE001BC5DF814FB80B5AA480078C00705D551
S1135AF0A848007850F00100A6490870A54800782D
S1135B00800705D5A348007850F00200A149087029
S1135B10A1480078800606D5A0480078800602D502
S1135B209A48006880479C480078000606D59B4840
S1135B300078000602D596480068804701BD80B50C
S1135B4097480078C00705D59548007850F00100C3
S1135B509349087092480078800705D590480078EA
S1135B6050F002008E4908708E480078800606D5F1
S1135B708D480078800602D584484068804789486B
S1135B800078000606D588480078000602D58048CB
S1135B904068804701BD80B584480078C00705D5BA
S1135BA08248007850F00100804908707F480078EE
S1135BB0800705D57D48007850F002007B490870C5
S1135BC07B480078800606D57A480078800602D59E
S1135BD06E488068804776480078000606D5754888
S1135BE00078000602D56A488068804701BD80B508
S1135BF071480078C00705D56F48007850F001005F
S1135C006D4908706C480078800705D56A480078AB
S1135C1050F002006849087068480078800606D58C
S1135C2067480078800602D55848C06880476348B2
S1135C300078000606D562480078000602D554486C
S1135C40C068804701BD80B55E480078C00705D5AF
S1135C505C48007850F001005A49087059480078AF
S1135C60800705D55748007850F002005549087060
S1135C7055480078800606D554480078800602D539
S1135C8042480069804750480078000606D54F48CE
S1135C900078000602D53E480069804701BD80B502
S1135CA04B480078C00705D54948007850F00100FA
S1135CB04749087046480078800705D5444800786D
S1135CC050F002004249087042480078800606D528
S1135CD041480078800602D52C48406980473D48F9
S1135CE00078000606D53C480078000602D528480E
S1135CF04069804701BD000000E100E000A00640CB
S1135D005404FF1F34800440089004403890044039
S1135D1044A00440049004403C90044040A004404B
S1135D2000B0064000D0044010B0044004D0044049
S1135D300CB004405804FF1F00C006400CC00440CF
S1135D4008C0044000D0064010D004402CA00440F9
S1135D5044B0044014D0044028A0044040B004409F
S1135D6000A00E402880044060D004403CB00440B1
S1135D7064D0044038B0044000B00E4024C0044055
S1135D8020D0044020C0044024D00440200BFF1F36
S1135D90380BFF1F12A0064004A0064003A00640D3
S1135DA012B0064004B0064003B0064012C00640DC
S1135DB004C0064003C0064012D0064004D006408A
S1135DC003D0064012A00E4004A00E4003A00E40D3
S1135DD012B00E4004B00E4003B00E40704770473E
S1135DE070477047704770470021002802D1002097
S1135DF007E0491C0200501C92F90020002AF8D147
S1135E000800704730B404000D00002819D00029A0
S1135E1017D0002A15D012F00303D11A890803E021
S1135E202A6822602D1D241D0A00511E002AF7D164
S1135E3003E0297821706D1C641C19004B1E002995
S1135E40F7D130BC7047000040EA010C5FEA4C0C0B
S1135E5007D0884205D14FEA400C1CF1807F98BFDF
S1135E6080427047012110F01F029140DFF888261C
S1135E7040B2400942F820107047F0B5DBB072B66A
S1135E80FDF712FC00F0CBF902F040FA5820FFF7BE
S1135E90E9FF5720FFF7E6FF0020DFF860160860EF
S1135EA062B600220F21DFF85806FEF708FF002231
S1135EB01A21DFF85006FEF702FF00A8DFF84816A3
S1135EC04FF4B472FEF77CFE642401F04BF809E051
