:10000000F8FF0020110400003B2D00003B2D0000F4
:100010003B2D00003B2D00003B2D00003B2D000040
:100020003B2D00003B2D00003B2D00003B2D000030
:100030003B2D00003B2D00003B2D00003B2D000020
:100040003B2D00003B2D00003B2D00003B2D000010
:10040000FFFFFFFFFFFFFFFFFFFFFFFFFEFFFFFFFD
:1004100062B605F0D1F8FEE730B403000C00150019
:100420006A1E002D04D025781D70641C5B1CF6E745
:1004300030BC704710B403001400621E002C02D0C0
:1004400019705B1CF8E710BC704770B403001C0007
:100450000D0000201600721E002E06D020782E7887
:10046000801B6D1C641C0028F4D070BC704790F990
:100470000020002A05D090F900208A4201D0401CBB
:10048000F5E790F900007047F8B504000D00E06A48
:100490000600AE4232D02079002821D0012332005C
:1004A00014F13001607801F043FE002801D00120F2
:1004B00025E000202071206AE169081886420FD2E9
:1004C000E0780700FFB2022F0ADBE06986190123FA
:1004D000320014F13001607801F02AFE7F1EF1E74E
:1004E000002D0BD001232A0014F13001607801F0B7
:1004F0008BFD002801D0012001E0E5620020F2BD63
:1005000038B5040000212000FFF7BEFF05006DB2E2
:10051000002D5ED12078032852D1607900284FD079
:100520000020E0624FF40072002114F13000FFF768
:1005300081FF552084F82E02AA2084F82F02522031
:1005400084F83000522084F83100612084F83200B1
:10055000412084F83300722084F81402722084F859
:100560001502412084F81602612084F817022069E0
:1005700084F81802206980B2000A84F81902206900
:10058000000C84F81A022069000E84F81B02E0684F
:1005900084F81C02E06880B2000A84F81D02E0685A
:1005A000000C84F81E02E068000E84F81F0201238C
:1005B000626914F13001607801F0BAFD00206071C9
:1005C00000220021607801F055FE002801D00120B2
:1005D0000500280040B232BD0200891E9069801ECD
:1005E000814201D3002003E09078926A00FB012051
:1005F00070472DE9F04104000D00022D02D3A069DF
:10060000854201D3012071E02078012804D06BD30A
:1006100003284AD031D367E0A84618EB5808206A6F
:1006200010EB58212000FFF72FFF00285CD14FF47A
:100630000070B8FBF0F101FB1081081990F8300050
:10064000060018F10108206A10EB58212000FFF77E
:100650001BFF002848D14FF40070B8FBF0F101FBFC
:100660001081081990F8300056EA0026E80701D5F5
:10067000300901E03005000D38E0206A10EB15214B
:100680002000FFF701FF00282ED168004FF4007111
:10069000B0FBF1F202FB110210193030070078783C
:1006A000397851EA002080B220E0206A10EBD511A1
:1006B0002000FFF7E9FE002816D1A8004FF40071D2
:1006C000B0FBF1F202FB1102101930300700F8788C
:1006D000B978090451EA0060797850EA0120397844
:1006E00008430001000901E05FF0FF30BDE8F08140
:1006F0002DE9F84304000D001600022D02D3A06975
:10070000854202D302208146A0E02078012805D04E
:10071000C0F0988003286BD04CD393E02F0017EBE8
:100720005707206A10EB57212000FFF7ADFE8146E6
:100730004FFA89F9B9F1000F40F086804FF400704C
:10074000B7FBF0F101FB1071081930308046E80763
:1007500006D598F8000010F00F0050EA061000E0EF
:10076000300088F800007F1C01202071206A10EB07
:1007700057212000FFF788FE81464FFA89F9B9F129
:10078000000F61D14FF40070B7FBF0F101FB107165
:10079000081930308046E80701D5300907E098F89D
:1007A000000010F0F000310A11F00F01084388F842
:1007B000000049E0206A10EB15212000FFF764FEDD
:1007C00081464FFA89F9B9F1000F3DD168004FF425
:1007D0000071B0FBF1F202FB1102101930308046BB
:1007E00088F80060300080B2000A88F801002BE031
:1007F000206A10EBD5112000FFF746FE81464FFA24
:1008000089F9B9F1000F1FD1A8004FF40071B0FBB6
:10081000F1F202FB110210193030804698F8030003
:10082000000610F07040064388F80060300080B287
:10083000000A88F80100300C88F80200300E88F8B1
:10084000030001E00220814601202071484640B2A9
:10085000BDE8F283F8B504000D00022D02D3A069B3
:10086000854202D3022006002AE000200600A0698B
:10087000854225D229002000FFF7BBFE0700002F8C
:100880001ED0012F02D10220060019E017F1010F3E
:1008900002D10120060013E0002229002000FFF70A
:1008A00027FF060076B2002E0AD1206910F1010F51
:1008B00004D02069401C2061012060713D00D6E712
:1008C000300040B2F2BD2DE9F84304000D00002DC8
:1008D0000AD1E0688046B8F1000F02D0A0698045D7
:1008E00011D3012080460EE029002000FFF781FE91
:1008F0000600022E01D2012051E0A069864201D2F9
:1009000030004CE0A84647467F1CA069874205D3CB
:1009100002200700B84501D2002040E03900200045
:10092000FFF767FE0600002E0CD17FF07042390001
:100930002000FFF7DDFE81464FFA89F9B9F1000F7B
:1009400013D10AE016F1010F01D0012E01D13000C0
:1009500025E04745D8D1002021E0002D05D03A0000
:1009600029002000FFF7C4FE81464FFA89F9B9F14A
:10097000000F0AD1E760206910F1010F0ED0206945
:10098000401E20610120607108E04FFA89F9B9F139
:10099000010F02D15FF0FF3700E001273800BDE80A
:1009A000F283F8B504000D00E580A0680600012E72
:1009B00003D020688069864201D302204BE0002EDC
:1009C00006D120680078032802D12068406A06001A
:1009D000002E0ED1E66020680089ADB2854201D3B9
:1009E000022038E02068406AADB210EB151020619B
:1009F00025E02068807880B200010700ADB2BFB268
:100A0000BD4213D331002068FFF7F3FD060016F155
:100A1000010F01D101201EE0022E03D3206880695E
:100A2000864201D3022016E0ED1BE7E7E6603100C5
:100A30002068FFF7D1FDADB210EB151020612068E2
:100A4000ADB21021B5FBF1F202FB115210EB4210D6
:100A5000303060610020F2BD2DE9F04104000F004C
:100A6000E088401C0600B6B2002E02D020690028A3
:100A700001D104208EE0B6B21020B6FBF0F101FBEC
:100A80001061002979D12069401C2061E0680028AC
:100A900006D120680089B6B286426ED3042079E080
:100AA000B6B220688078401E10EA161F65D1E16852
:100AB0002068FFF79EFD0500022D01D2022069E0AB
:100AC00015F1010F01D1012064E0206880698542A1
:100AD0004DD3002F01D104205CE0E1682068FFF7CE
:100AE000F2FE0500002D01D1072053E0012D01D1B8
:100AF00002204FE015F1010F01D101204AE0002151
:100B00002068FFF7C1FC002801D0012042E04FF42B
:100B10000072002120683030FFF78CFC290020682B
:100B2000FFF75AFD2168C86200208046206880785F
:100B30005FFA88F8804512D20120216808710021EF
:100B40002068FFF7A1FC002801D0012022E02068E6
:100B5000C06A401C2168C86218F10108E6E72068F5
:100B6000C06A5FFA88F8B0EB08002168C862E560E7
:100B700029002068FFF730FD2061E6802068B6B2CA
:100B80001021B6FBF1F202FB116210EB4210303083
:100B900060610020BDE8F081F8B50400002120006C
:100BA000FFF7FFFE07007FB2002F02D0380040B2EF
:100BB00025E021692068FFF767FC07007FB2002F5E
:100BC0001BD16069060030780500EDB2002D02D11E
:100BD0000420070011E0F07A000706D40B22A16977
:100BE0003000FFF732FC002807D000212000FFF77B
:100BF00033FF07007FB2002FDBD0380040B2F2BDD8
:100C0000F8B5040000212000FFF7CBFE05006DB20F
:100C1000002D19D121692068FFF736FC05006DB25F
:100C2000002D11D1606900780600F6B2E52E02D0E1
:100C3000F6B2002E00D107E001212000FFF70CFFE3
:100C400005006DB2002DE5D06DB2002D16D12169E1
:100C50002068FFF719FC05006DB2002D0ED1606908
:100C60000700202200213800FFF7E4FB0B22A169D6
:100C70003800FFF7D1FB012021680871280040B23D
:100C8000F2BD2DE9F34F81B00298006883469BF9CD
:100C900000002F2803D09BF900005C2802D11BF133
:100CA000010BF4E70198806907000B22202138002E
:100CB000FFF7C0FB00200400E4B2A246D1460820A2
:100CC000804619F80B00050019F10109EDB2212D3C
:100CD00005DBEDB22F2D02D0EDB25C2D07D119EB63
:100CE0000B0002990860EDB2212D61DA5EE0EDB2F1
:100CF0002E2D01D0C2450DD3B8F1080F02D1EDB2AF
:100D00002E2D01D0062072E0082082460B2080465E
:100D1000A400D6E7EDB2802D01DB54F00304EDB260
:100D2000812D22DBEDB2FF2D1FD019F80B0006003C
:100D300019F10109F6B2402E02DBF6B27F2E05DB77
:100D4000F6B2802E06DBF6B2FF2E03D0B8F101001A
:100D5000824501D306204AE00AF807501AF1010A39
:100D60000AF807601AF1010AABE7EDB22900DFF8D3
:100D70004806FFF77CFB002801D0062037E0EDB2E3
:100D8000412D05DBEDB25B2D02DA54F0020408E0E0
:100D9000EDB2612D05DBEDB27B2D02DA54F00104DA
:100DA000203D0AF807501AF1010A8AE7042500E0FD
:100DB0000025BAF1000F01D1062018E03878E528A7
:100DC00001D105203870B8F1080F00D1A400E4B2B9
:100DD00014F00300012801D155F01005E4B214F01D
:100DE0000C00042801D155F00805FD720020BDE873
:100DF000FE8FF2B50400009890F900002F2804D06F
:100E0000009890F900005C2802D10098401C0090E6
:100E10000020A060009890F90000202807D200214F
:100E20002000FFF7BEFD05000020606131E000A951
:100E30002000FFF726FF05006DB2002D29D120000C
:100E4000FFF7AAFE0500A069C07A07006DB2002D69
:100E500007D06DB2042D1CD1780701D40520050000
:100E600017E0780715D460690600F07AC00602D44E
:100E7000052005000DE0707D317D51EA002080B233
:100E8000F17EB27E52EA012189B251EA0040A060AF
:100E9000CDE7280040B2F2BD38B504000D000123B3
:100EA0002A0014F13001607801F0AEF8002801D07A
:100EB00003202DE094F82F0294F82E1251EA00201E
:100EC00080B24AF65521884201D0022020E094F8F1
:100ED000680094F86710090251EA004094F866101F
:100EE0000843DFF8D814884201D1002010E094F8BC
:100EF000840094F88310090251EA004094F88210AB
:100F00000843DFF8B814884201D1002000E0012036
:100F100032BD2DE9F34F87B093460798D0F8009083
:100F200099F900003038029002980A2809D299F9FC
:100F300001003A2805D119F102090798C0F800907C
:100F400001E0002002900298002801D00B20FFE170
:100F5000DFF86C04029950F8210082460898C0F826
:100F600000A0BAF1000F01D10C20F1E19AF80000C5
:100F7000002816D09AF8010001F0D4F98DF800008D
:100F80009DF80000C0070CD45FFA8BFBBBF1000F8B
:100F900005D09DF80000400701D50A20D8E10020C7
:100FA000D6E100208AF8000002988AF801009AF839
:100FB000010000F0ABFE8DF800009DF80000C007B6
:100FC00001D50320C4E15FFA8BFBBBF1000F05D014
:100FD0009DF80000400701D50A20B9E100200190EA
:100FE00001995046FFF758FF0400E4B2012C23D1C9
:100FF00000200600F6B2002E00D0761EF6B21AEBE4
:10100000061010F5F770039003980079002813D0AC
:101010000398C07A0399897A090451EA0060039918
:10102000497A50EA01200399097A0843019001990D
:101030005046FFF731FF0400E4B2032C01D1012038
:1010400086E1E4B2002C01D00D2081E19AF83C0049
:101050009AF83B1051EA002080B2B0F5007F01D031
:101060000D2075E19AF847009AF8461051EA0020E1
:1010700080B20700002F0ED19AF857009AF8561048
:10108000090451EA00609AF8551050EA01209AF8D4
:10109000541008430700CAF81C709AF84000050075
:1010A0008AF80350EDB2012D04D0EDB2022D01D02B
:1010B0000D204DE1EDB26F439AF83D0005008AF82E
:1010C0000250EDB2002D04D0691E2800C0B20842C3
:1010D00001D00D203CE19AF842009AF8411051EA03
:1010E0000020AAF80800BAF808001021B0FBF1F2BD
:1010F00002FB1102002A01D00D2029E19AF84400D8
:101100009AF8431051EA002080B205900598002813
:101110000ED19AF853009AF85210090451EA00606F
:101120009AF8511050EA01209AF85010084305909F
:101130009AF83F009AF83E1051EA0020ADF80200FC
:10114000BDF80200002801D10D2001E1BDF8020028
:1011500017FA80F0BAF8081010EB111006900598F5
:101160000699884201D20D20F2E005980699401AAE
:101170009AF80210B0FBF1F004900498002801D115
:101180000D20E5E001200400049840F6F671884245
:1011900001D30220040004984FF6F671884201D36F
:1011A000032004000498801CCAF8180001980699CE
:1011B0000818CAF828000198BDF8021010FA81F04A
:1011C000CAF82000E4B2032C1AD1BAF808000028AB
:1011D00001D00D20BCE09AF85F009AF85E10090477
:1011E00051EA00609AF85D1050EA01209AF85C100C
:1011F0000843CAF82400DAF81800800080461CE092
:10120000BAF80800002801D10D20A1E0DAF820008A
:101210003818CAF82400E4B2022C04D1DAF8180015
:101220005FEA400809E0DAF81800032148439AF819
:10123000181011F0010111EB5008DAF81C0008F247
:10124000FF11B0EB512F01D20D2081E05FF0FF3094
:10125000CAF810000020CAF80C00E4B2032C65D1D3
:1012600000208AF8050001989AF861109AF8602029
:1012700052EA012110FA81F0CAF814000123DAF8C9
:1012800014201AF130019AF8010000F0BDFE002888
:101290004CD19AF82F029AF82E1251EA002080B20F
:1012A0004AF65521884241D19AF833009AF8321013
:1012B000090451EA00609AF8311050EA01209AF8C6
:1012C000301008433F49884230D19AF817029AF803
:1012D0001612090451EA00609AF8151250EA01202A
:1012E0009AF814120843384988421FD19AF81F020D
:1012F0009AF81E12090451EA00609AF81D1250EA89
:1013000001209AF81C120843CAF80C009AF81B0234
:101310009AF81A12090451EA00609AF8191250EA70
:1013200001209AF818120843CAF810008AF8004001
:1013300026480088401C2549088024480088AAF8CF
:1013400006000020CAF82C0000208AF804000020C3
:1013500009B0BDE8F08F38B504000D00002C06D0B0
:101360002078002803D0E088ADB2A84201D009203F
:1013700007E0607800F0D6FFC00701D5032000E049
:10138000002032BD0200D2B2002A01D00B2011E0B1
:101390000B48D2B250F822000300002B01D00020ED
:1013A0001870002901D0002008700548D2B240F81A
:1013B0002210002070470000905D0000464154005C
:1013C000F40DFF1F5252614172724161680EFF1F9E
:1013D0002DE9F2438AB0040017000020206017F0C6
:1013E0001F0717F0FE0200A90AA8FFF792FD0500EB
:1013F00007A806906DB2002D04D10A9900A8FFF746
:10140000F8FC0500059806006DB2002D03D1002EF2
:1014100001D1062005001C20074267D06DB2002DC7
:101420000BD06DB2042D03D100A8FFF7E9FB050036
:1014300057F00807059806000AE0F07A11210842E3
:1014400002D00720050003E0780701D50820050039
:101450006DB2002D5AD1380758D500F079FF80467B
:1014600086F80E80404680B2000AF0735FEA1840AA
:1014700030745FEA186070740020F07200203077DA
:10148000002070770020B0770020F077707D317DEC
:1014900051EA002080B2F17EB27E52EA012189B287
:1014A00051EA004081460020B0760020F07600200E
:1014B000307500207075012000990871B9F1000F96
:1014C00024D00098C06A804649460098FFF7C2F9C8
:1014D00005006DB2002D19D1B9F101000099C86065
:1014E00041460098FEF7D0FF05000FE06DB2002DD9
:1014F0000CD1F07AC00602D50420050006E0B8073A
:1015000004D5F07AC00701D5072005006DB2002D83
:1015100007D1380701D557F020070098C06AE0616D
:1015200026626DB2002D21D1A771707D317D51EA07
:10153000002080B2F17EB27E52EA012189B251EAE6
:1015400000402061F07FB17F090451EA0060717FA3
:1015500050EA0120317F0843E0600020A0600020B5
:10156000A061009820600098C088A080280040B248
:101570000BB0BDE8F0832DE9F24F84B004001500F4
:101580001E00DDF810B000203060A1882068FFF751
:10159000E2FE8DF808009DF90800002802D09DF9B0
:1015A0000800E9E0A079000601D50220E4E0A07976
:1015B000C00701D40720DFE0E068A168401A01906D
:1015C0000198A84201D201980500002D00F0D380B7
:1015D000A0684FF40071B0FBF1F202FB1102002A87
:1015E00040F0A180A068400A21688978491E08401F
:1015F00082465FFA8AFABAF1000F1FD1A06800286C
:1016000002D12069009004E061692068FEF7F1FFD3
:1016100000900098022805D2A07950F08000A071B7
:101620000220A9E0009810F1010F05D1A07950F037
:101630008000A07101209FE00098606161692068CE
:10164000FEF7CAFF0700002F05D1A07950F08000F7
:10165000A071022090E057FA8AF7680A8146B9F132
:10166000000F35D02068807859FA8AF1884206D276
:10167000206880785FFA8AFAB0EB0A0081464B4610
:10168000DBB23A0059462068407800F0BDFC0028E3
:1016900005D0A07950F08000A07101206CE0A07905
:1016A00040060FD5A069C01B48450BD24FF400720D
:1016B00014F12401A069C01B4FF4007303FB00B0B8
:1016C000FEF7AAFE4FF4007000FB09F0804645E0EB
:1016D000A069B84226D0A079400613D50123A2699B
:1016E00014F124012068407800F022FD002805D084
:1016F000A07950F08000A07101203DE0A07910F0A9
:10170000BF00A07101233A0014F124012068407841
:1017100000F07AFC002805D0A07950F08000A0717C
:10172000012029E0A761A0684FF40071B0FBF1F23D
:1017300002FB1102D2F500708046454500D2A84652
:101740004246A0684FF40071B0FBF1F303FB1103B4
:10175000181910F124015846FEF75EFE18EB0B0B2A
:10176000A06818EB0000A060306818EB0000306043
:10177000B5EB080529E7002005B0BDE8F08F2DE99D
:10178000F24F82B0040015001E00DDF808B0002002
:101790003060A1882068FFF7DEFD8DF801009DF91B
:1017A0000100002802D09DF9010009E1A07900069E
:1017B00001D5022004E1A079800701D40720FFE0D1
:1017C000E0682818E168884201D200200500002D59
:1017D00000F0EB80A0684FF40071B0FBF1F202FB67
:1017E0001102002A40F0B580A068400A216889787B
:1017F000491E08408DF800009DF80000002827D100
:10180000A06800280AD120690700002F0BD1002111
:101810002068FFF758F80700206104E0616920683C
:10182000FFF751F80700002F00F0BF80012F05D10E
:10183000A07950F08000A0710220C1E017F1010FE3
:1018400005D1A07950F08000A0710120B8E0676157
:10185000A079400613D50123A26914F12401206860
:10186000407800F065FC002805D0A07950F0800099
:10187000A0710120A4E0A07910F0BF00A0716169FF
:101880002068FEF7A9FE8046B8F1000F05D1A079C7
:1018900050F08000A071022092E09DF8000058FAFC
:1018A00080F8680A8246BAF1000F39D02068807843
:1018B0009DF800105AFA81F1884205D2206880789C
:1018C0009DF80010401A82465346DBB24246594604
:1018D0002068407800F02CFC002805D0A07950F05A
:1018E0008000A07101206BE0A069B0EB08005045BA
:1018F00010D24FF40072A069B0EB08004FF40071F1
:1019000001FB00B114F12400FEF786FDA07910F070
:10191000BF00A0714FF4007000FB0AF0814637E071
:10192000A069404513D0A068E16888420FD2012326
:10193000424614F124012068407800F065FB00283D
:1019400005D0A07950F08000A071012038E0C4F8E3
:101950001880A0684FF40071B0FBF1F202FB110295
:10196000D2F5007081464D4500D2A9464A465946F7
:10197000A0684FF40073B0FBF3FC0CFB130C1CEBE2
:1019800004002430FEF748FDA07950F04000A0711B
:1019900019EB0B0BA06819EB0000A060306819EB85
:1019A00000003060B5EB090511E7E068A1688842E6
:1019B00001D2A068E060A07950F02000A071002062
:1019C000BDE8FE8FF8B50400A1882068FFF7C3FCCE
:1019D00005006DB2002D54D1A079800651D5A079B3
:1019E00040060FD50123A26914F124012068407834
:1019F00000F09EFB002801D0012044E0A07910F007
:101A0000BF00A071E1692068FEF73EFD05006DB2E0
:101A1000002D36D1206A0700F87A50F02000F872C5
:101A2000E0683877E06880B2000A7877E068000CF8
:101A3000B877E068000EF8772069B876206980B240
:101A4000000AF8762069000C38752069000C80B215
:101A5000000A787500F07CFC0600BE75300080B28C
:101A6000000AF875300C3876300E7876A07910F0D0
:101A7000DF00A0710120216808712068FEF740FD99
:101A80000500280040B2F2BD38B504002000FFF781
:101A900099FF05006DB2002D01D1002020602800C3
:101AA00040B232BD2DE9F04704000D00A188206846
:101AB000FFF751FC060076B2002E02D0300040B293
:101AC000DCE0A079000601D50220D7E0E068A8425A
:101AD00004D2A079800701D4E0680500A06882469E
:101AE00000208146C4F80890002D00F08680206810
:101AF00080784FF4007148438046BAF1000F13D04C
:101B0000BAF10100B0FBF8F0691EB1FBF8F18142B7
:101B10000AD3BAF10100B8F101018843A060A068BE
:101B20002D1A606907001BE020690700002F16D1FD
:101B300000212068FEF7C7FE0700012F05D1A0791C
:101B400050F08000A071022098E017F1010F05D13C
:101B5000A07950F08000A07101208FE027616761BB
:101B6000002F4AD0A8452DD2A079800708D539008A
:101B70002068FEF7A8FE0700002F06D1454621E0A9
:101B800039002068FEF735FD070017F1010F05D178
:101B9000A07950F08000A07101206FE0022F03D3E4
:101BA00020688069874205D3A07950F08000A07139
:101BB000022063E06761A06818EB0000A060B5EB4D
:101BC0000805CFE7A0682818A0604FF40070B5FBA7
:101BD000F0F101FB105100290FD039002068FEF709
:101BE000FBFC8146B9F1000F05D1A07950F08000CF
:101BF000A071022042E019EB5529A0684FF4007152
:101C0000B0FBF1F202FB1102002A2BD0A069814542
:101C100028D0A079400613D50123A26914F124012C
:101C20002068407800F084FA002805D0A07950F0B0
:101C30008000A071012021E0A07910F0BF00A07108
:101C400001234A4614F124012068407800F0DCF9B1
:101C5000002805D0A07950F08000A07101200DE08F
:101C6000C4F81890E068A168884205D2A068E060D6
:101C7000A07950F02000A071300040B2BDE8F0879C
:101C80007CB504000D0064B20A2C03D129000D209C
:101C9000FFF7F6FF8DF800400120060001AB32008F
:101CA00000A92800FFF76BFD0198B04201D1012087
:101CB00001E05FF0FF3076BD70B504000D0000203C
:101CC000060094F9000000280DD0290094F90000C6
:101CD000FFF7D6FF10F1010F02D15FF0FF3003E0F4
:101CE000641C761CEDE7300070BD50F8041B61B138
:101CF00050F8042BD30744BFA9F101039A1800231D
:101D0000091F42F8043BFAD1EFE77047F0B589B0FC
:101D10000400E4B2002C01D0012035E1DFF8180600
:101D20000078800703D5DFF8100600782CE1DFF893
:101D300008060078C00701D4002025E10020DFF864
:101D4000FC1548600020DFF8F41588600020DFF8FB
:101D5000EC15C8600020DFF8E41508740020DFF8F7
:101D6000DC1548740021002000F090FC002801D010
:101D7000002009E10020009000A9022000F086FC6C
:101D8000002801D00020FFE00098022808D0009829
:101D9000032805D00098052802D0009806281DD1F8
:101DA0000098032802D00098062803D10120DFF80C
:101DB0008C15087402208DF8040000208DF80500B1
:101DC0000020029000208DF806000020039001A959
:101DD000012000F05BFC002802D103E00020D3E0EA
:101DE0000020D1E003208DF8040000208DF80500CC
:101DF0000020029000208DF806000020039001A929
:101E0000012000F043FC002801D00020BCE0049831
:101E1000000C0004DFF82415C86009208DF80400C8
:101E200000208DF80500DFF81405C068029000203E
:101E30008DF806000020039001A9012000F026FC87
:101E4000002801D000209FE0079810F4400F1ED119
:101E50000698C0F3032006009DF8180010F0030058
:101E600007000598800D50EA87270598C0F3C21037
:101E70000500781C0121AA1C914048430121320031
:101E8000093A91404843DFF8B41488600CE001201F
:101E9000DFF8A81448740598C0F315200700781CD3
:101EA0008002DFF89814886007208DF80400002075
:101EB0008DF80500DFF88404C068029000208DF8DA
:101EC00006000020039001A9012000F0DFFB00289C
:101ED00001D0002058E010208DF8040000208DF87B
:101EE00005004FF40070029000208DF806000020DD
:101EF000039001A9012000F0C9FB002801D00020B7
:101F000042E037208DF8040000208DF80500DFF84E
:101F10002C04C068029000208DF806000020039079
:101F200001A9012000F0B2FB002801D000202BE025
:101F300006208DF8040000208DF805000220029094
:101F400000208DF806000020039001A9012000F078
:101F50009DFB002801D0002016E00120009000A980
:101F6000042000F093FB002801D000200CE0DFF8F3
:101F7000C803007810F0FE00DFF8BC130870DFF82B
:101F8000B803007810F0030009B0F0BDF0B402000F
:101F90001500DFF8AC0300688006FAD52020DFF8D2
:101FA000A07338600B00002B2BD0B3F5007F02D953
:101FB0004FF4007600E01E00F01C80080400002CA6
:101FC0001DD0DFF87C03006810F4E00F0BD0DFF8C1
:101FD0007003006840F4E00050F02000DFF8607308
:101FE000386000200EE0DFF85C0300680005FAD5D9
:101FF000DFF85403006828602D1D641EDFE79B1B7B
:10200000D1E70120F0BC7047F0B587B004000D00A7
:1020100017001E00E4B2002C02D1F6B2002E01D14E
:10202000042054E0C4480078C00701D503204EE0E6
:10203000002D01D104204AE0C048007C002802D1D4
:102040004FF400704743F6B2012E1BD111208DF8DA
:10205000000000208DF80100019701208DF802009A
:10206000F6B2029600A9012000F010FB002827D14B
:102070004FF400712800FFF789FF002820D00020CE
:1020800006001DE012208DF8000000208DF80100F0
:10209000019701208DF80200F6B2029600A90120F6
:1020A00000F0F4FA00280BD1F6B24FF4007000FBF8
:1020B00006F12800FFF76AFF002801D00020060083
:1020C000F6B2002E01D0012000E0002040B207B09F
:1020D000F0BD70B4020013000C00002C25D0B4F544
:1020E000007F02D94FF4007500E02500641BE81C56
:1020F0008508002DF1D09248006810F4E00F0AD056
:102100008F48006840F4E00050F010008C4E3060C2
:102110005FF0FF300AE08B4800684005FBD5186887
:10212000894E30601B1D6D1EE3E7012070BC7047B7
:10213000F0B587B004000D0017001E00E4B2002CBB
:1021400002D1F6B2002E01D1042091E07A48007845
:10215000C00701D503208BE077480078400701D500
:10216000022085E0002D01D1042081E07348007C2D
:10217000002802D14FF400704743F6B2012E1BD164
:1021800018208DF8000000208DF801000197002034
:102190008DF80200F6B2029600A9012000F076FA4E
:1021A00000283CD14FF400712800FFF792FF00286F
:1021B00035D00020060032E019208DF80000002004
:1021C0008DF80100019700208DF80200F6B202960A
:1021D00000A9012000F05AFA002820D1F6B24FF4ED
:1021E000007000FB06F12800FFF773FF002801D004
:1021F00000200600524800688007FBD55048006860
:1022000010F4E00F05D04E48006850F4E0004C494F
:1022100008604B48006850F03200494908600D20C2
:102220008DF8000000208DF801004448C06801903E
:1022300000208DF802000020029000A9012000F08B
:1022400025FA002801D0012012E003983F490842F6
:1022500001D001200CE0039810F4F850B0F5106F95
:10226000DDD1F6B2002E01D0012000E0002040B206
:1022700007B0F0BDF0B587B004000D001600E4B261
:10228000002C01D004204BE0012007002A480078F0
:10229000C00701D5032043E0EDB2002D05D0022D8B
:1022A0000CD005D3032D0FD036E00020070035E019
:1022B000224880683060002007002FE04FF4007053
:1022C00030800020070029E009208DF80000002060
:1022D0008DF801001948C068019000208DF80200B7
:1022E0000020029000A9012000F0D0F9002801D0C0
:1022F000012015E0069810F4400F0AD10598C0F3AC
:102300008640401C0699090A11F00301491E8840C5
:1023100030600020070001E004200700380040B2D0
:1023200007B0F0BD0100C9B2002901D0012001E0D1
:1023300001480078704700001004FF1FF80DFF1FD0
:1023400030100B4024100B4020100B400880D9FFA8
:102350000020704780B50020DFF8C4170860DFF860
:10236000C407006850F40030DFF8B8170860DFF8E1
:10237000B807DFF8B8170860DFF8B0070068C001D9
:10238000FAD40020DFF8A81708605FF48130DFF886
:10239000A41708602820DFF8A01708605FF001107C
:1023A000DFF898170860DFF8980700F04DF8DFF8BD
:1023B0009407006810F0030FF9D140F243418020E8
:1023C00000F0E4FB40F24341812000F0DFFB4FF4DA
:1023D0008861822000F0DAFB40F24341832000F064
:1023E000D5FB40F24341842000F0D0FB40F2434152
:1023F000852000F0CBFB4FF6FF70DFF84C1708602C
:10240000DFF84807DFF848170860DFF820070068A2
:1024100050F00060DFF814170860DFF8100700685C
:102420000001FAD4DFF81C070068C00303D50120BF
:10243000DFF8EC160860DFF81007006850F0800045
:10244000DFF80417086001BDF0B580240F25DFF820
:1024500004773F684FF47A7C0CFB07F75FF0FF3C92
:1024600063465FF0020C6146B1F5807F16D85FF0DD
:10247000010C6246112A0FD202FB01FC00FB0CFC8E
:10248000BCEB070C6646002E04D49E4202D23300F9
:102490000C001500521CEDE74900E5E7DFF88CC69B
:1024A000DCF800C03CF0080CDFF880E6CEF800C095
:1024B000DFF878C6DCF800C06FF3131C5FEAC41EB7
:1024C0001EF47F4E5EEA0C0CB5F1010E5FEA0E1EA3
:1024D0001EF0F00E5EEA0C0C5CF4602CDFF84CE6AB
:1024E000CEF800C0DFF85CC6DCF800C05FEA0C7C08
:1024F000F8D5DFF838C6DCF800C05CF0080CDFF86F
:102500002CE6CEF800C0DFF840C6DCF800C05CF472
:10251000801CDFF834E6CEF800C0F0BD70B50400D2
:10252000DFF83406217850F82100050015F1010F7D
:1025300004D1F821DFF8240600F095FBDFF8080647
:10254000006850F08000DFF800160860DFF8F4053E
:102550000068C007FAD46068DFF80416086035F434
:1025600040056078800510F440000543607802283B
:1025700001D155F40015A068002820D015F4403092
:10258000B0F5403F01D055F40015A078002801D0E7
:1025900055F01005A068022801D355F02005A06869
:1025A00010F1010F07D0A068000450F4007006007D
:1025B00055F0020505E0DFF8AC05060001E000205B
:1025C0000600DFF8700506600020DFF89C15086043
:1025D000DFF898050560DFF870050068DFF89015F2
:1025E0000842F8D0DFF860050068DFF8841508407D
:1025F00001280BD0DFF85005006840F4702050F03F
:102600000100DFF84415086003203EE0DFF83805DC
:102610000068000609D5DFF83005006850F00110A9
:10262000DFF82415086002202FE0DFF81C050068A1
:10263000C00309D5DFF81005006850F00110DFF87D
:1026400008150860032020E015F4403F14D0DFF89F
:1026500024050068E06015F44030B0F5803F0BD1F0
:10266000DFF8140500682061DFF81005006860617C
:10267000DFF80C050068A061DFF8CC04006850F0BA
:102680000100DFF8C4140860002070BD2DE9F04F90
:1026900089B004000D00AA460020814664B2002CD7
:1026A0000AD0022C00F00482C0F08F81042C00F0CC
:1026B000BE81C0F099812CE2FFF74CFE002006009D
:1026C00000208DF800000020070000208DF8020097
:1026D0000020804600208DF8010000208DF80400C5
:1026E00000208DF805000020029000208DF80600E3
:1026F0000020039001A8FFF711FF002802D001205D
:10270000814608E240F24C4000F05BFB08208DF867
:10271000040000208DF805004FF4D57002900020D1
:102720008DF806000020039001A8FFF7F7FE83460E
:10273000BBF1000F08D104980299884202D0012011
:102740008146E8E10120804601208DF801009DF8D6
:102750000100002800F0FB8037208DF804000020E5
:102760008DF805000020029000208DF80600002062
:10277000039001A8FFF7D2FE8346BBF1010F02DBF5
:1027800001208146C7E1BBF1000F6DD500208DF817
:102790000000002006000020804601208DF8040083
:1027A00000208DF80500DFF8DC03029000208DF892
:1027B00006000020039001A8FFF7B0FE002802D019
:1027C00001208146A7E1049810F0C040B0F1005FFD
:1027D00001D1012080460120070027208DF8040048
:1027E00000208DF805004FF44060029000208DF825
:1027F00006000020039001A8FFF790FE002802D0F9
:102800000120814687E10498000ACE2801D10120E9
:1028100000E00020C0B2002800F0998027208DF849
:10282000040000208DF805004FF450600290002055
:102830008DF806000020039001A8FFF76FFE002826
:1028400002D00120814666E10498000AAA2801D13D
:10285000012000E00020C0B2002878D0002007004E
:1028600001208DF8020072E029208DF8040000207C
:102870008DF805000020029000208DF80600002051
:10288000039001A8FFF74AFE002802D001208146EC
:1028900041E1049810F4401F59D0002083460A20DB
:1028A00000F08FFA1BF1010B37208DF80400002097
:1028B0008DF805000020029000208DF80600002011
:1028C000039001A8FFF72AFE002802D001208146CC
:1028D00023E029208DF8040000208DF805005FFA20
:1028E00088F8B8F1000F02D0A648029002E05FF429
:1028F0004010029000208DF806000020039001A8EF
:10290000FFF70CFE002802D00120814605E0049864
:10291000002802D4BBF1640FC1DB4FFA89F9B9F189
:10292000000F40F0F880BBF1640F02DB002080460E
:102930000DE0012006005FFA88F8B8F1000F06D01C
:10294000002080460498400001D501208046FFB257
:10295000002F02D00720724908609DF8020000286D
:1029600002D008206E4908609DF80000002802D0BF
:1029700004206B490860F6B2002E0AD00220684994
:1029800008605FFA88F8B8F1000F02D003206449AC
:1029900008609DF8000000280DD0F6B2002E0AD085
:1029A00005205F4908605FFA88F8B8F1000F02D08F
:1029B00006205B4908607448FFF746FD59480068E7
:1029C00050F4003057490860A5E05046FFF7A6FDD7
:1029D0008346BBF1010F01DB02208146BBF1000FF2
:1029E00001D50320814696E0BAF1000F02D10520FF
:1029F00081461BE050480068C0F341008346BBF1AC
:102A0000000F03D10020CAF800000FE0BBF1010F56
:102A100003D10120CAF8000008E0BBF1100F03D178
:102A20000220CAF8000001E00620814673E0BAF1F6
:102A3000000F02D10520814639E04248006840F28B
:102A40000731084231D1DAF8000000280AD13A48AB
:102A5000006830F006003849086037480068364999
:102A6000086024E0DAF8000001280CD13248006840
:102A700030F00600304908602F48006850F002002E
:102A80002D49086013E0DAF8000002280AD12A482C
:102A9000006830F006002849086027480068264989
:102AA000086004E00620814601E00720814632E00C
:102AB000BAF1000F02D10520814629E01B480068C9
:102AC00050F0006019490860184800680001FBD404
:102AD0001D480068000608D51B48006850F08000BB
:102AE0001949086000200E49086016480068C003B4
:102AF00007D50B480068002806D101200849086066
:102B000002E000200649086005480068CAF8000095
:102B100001E004208146484640B209B0BDE8F08F8C
:102B2000F80DFF1F30800440008000012C100B4086
:102B3000C0100B4004100B4028100B4044100B40F9
:102B4000E093040024100B4030100B40B3007F00D2
:102B500034100B400C0EFF1F88580000B85A0000BC
:102B600008100B400002FFFF00100B400C100B4040
:102B700001000E0010100B4014100B4018100B40F9
:102B80001C100B400000304000366E0110B4294A82
:102B900012684FF40073C0B24409A3401A43254B96
:102BA0001A60254AC0B2431152F82320012310F0C5
:102BB0001F04A340C2F8A0301F4AC0B2431152F80C
:102BC0002320C0B210F01F0342F8231010BC70473E
:102BD00010B4184A12684FF40073C0B24409A340FD
:102BE0001A43144B1A60144AC0B2431152F82320FE
:102BF000012310F01F04A340C2F8A03031F4E061BB
:102C00000D4AC0B2431152F82320C0B210F01F0386
:102C100052F8232012F4E0621143074AC0B2431174
:102C200052F82320C0B210F01F0342F8231010BC4A
:102C300070470000388004408C0BFF1FDFF800F065
:102C4000350CFF1FDFF800F0590CFF1FBFF34F8F4B
:102C50004648006810F4E06045490843434908606D
:102C6000BFF34F8FFEE738B504000D00002000F0E1
:102C7000BFF82A0021003F4800F0F2F8002000F0E1
:102C8000D4F84FF47A7000F09CF8F2E738B50400FD
:102C90000D00210049B2032000F0FEF9200032BDF2
:102CA00010B50024042000F011FA042000F044FACA
:102CB000002841D1002000F09BF8042000F03CFAED
:102CC000012801D101200400002000F0AEF82A48BC
:102CD00000F0C6F84FF4FA7000F073F8E4B2012C7B
:102CE000EBD1042000F028FA0028E6D1042000F0FF
:102CF00023FA002806D1002000F097F8642000F0A5
:102D000060F8F3E7042000F017FA012806D100204C
:102D100000F08BF8322000F054F8F3E7174800F089
:102D20009FF8FFF78BFF642000F04BF80020FFF7BF
:102D300089FFFFF78BFFC0E710BD10B5104804688E
:102D4000012000F055F8012000F06FF80D48E4B2C2
:102D50000F2101FB0402E4B221000B4800F080F8CF
:102D60004FF47A7000F02DF8EDE700000CED00E074
:102D70000400FA057C5C00007C5D0000D45C00006F
:102D800004ED00E01404FF1FE05B000010B5040038
:102D9000002C15D0B4F1807F03D329210F48FFF711
:102DA00062FF00200E4908600E48046000200E49B2
:102DB000086005200A49086009480068C003FBD57F
:102DC00010BD10B504002000441E002804D00748A0
:102DD0000068FFF7DBFFF6E710BD00008859000030
:102DE00010E000E014E000E018E000E00C0EFF1F2F
:102DF00010B5040064B2042C07DA0122012117483F
:102E000064B2205C00F0B0F90EE004200400200061
:102E1000441E40B2002807D0012201210F4864B2AD
:102E2000205C00F0A1F9F2E710BD10B5040064B217
:102E3000042C05DA094864B2205C00F0ECF90CE0DF
:102E4000042004002000441E40B2002805D003489E
:102E500064B2205C00F0DFF9F4E710BDC00BFF1F87
:102E60000EB400B582B003A90091024600AB012167
:102E7000034878440A3000F00FFA06BC5DF810FBF6
:102E8000B12E00002DE9F84304000D0064B2002CBF
:102E900008D0022C2CD018D3042C4FD03BD3052CB7
:102EA0005FD071E0DFF80C02006850F48060DFF85A
:102EB000041208604FF440716620FFF767FE4FF47C
:102EC00040716720FFF762FE5EE0DFF8E80100680E
:102ED00050F40060DFF8DC1108604FF440714320CB
:102EE000FFF754FE4FF440714420FFF74FFE4BE0D4
:102EF000DFF8C001006850F48050DFF8B8110860B6
:102F00004FF440716320FFF741FE4FF4407162209F
:102F1000FFF73CFE38E0DFF89C01006850F40050F9
:102F2000DFF8901108604FF440715020FFF72EFE3B
:102F30004FF440715120FFF729FE25E0DFF87801BA
:102F4000006850F48060DFF8701108604FF4407141
:102F50004E20FFF71BFE4FF440714F20FFF716FE87
:102F600012E0DFF85401006850F40060DFF8481107
:102F700008604FF440718920FFF708FE4FF440715C
:102F80008820FFF703FEFFE7DFF8300164B250F856
:102F90002400C07810F0F300DFF8201164B251F87B
:102FA0002410C870DFF8140164B250F8240080784F
:102FB000DFF8081164B251F82410887064B2002C54
:102FC00002D064B2012C07D1DFF8F40000684FF49E
:102FD0007A714843814606E0DFF8E80000684FF464
:102FE0007A71484381462801B9FBF0F00600B6B279
:102FF000B6F5005F02DB41F6FF700600B9FBF5F0A5
:10300000B6B2B0EB06100700BFB2202F03DBDC2105
:103010002D48FFF728FE294864B250F824000078B4
:1030200010F0E0008046C6F3042050EA080023496F
:1030300064B251F824100870204864B250F824009B
:1030400046701E4864B250F82400807A10F0E00008
:10305000804617F01F0050EA0800184964B251F882
:1030600024108872154864B250F82400007C50F097
:103070008800124964B251F8241008740F4864B2F1
:1030800050F82400C07850F00C000C4964B251F89C
:103090002410C870BDE8F183084A40B252F82020DD
:1030A00012791206F8D5054A40B252F82020D171A3
:1030B000704700003480044028800440A00BFF1FAC
:1030C0000C0EFF1F140EFF1F1C5B000010B5040048
:1030D00064B2082C0DDA00220021224864B2205C80
:1030E00000F042F803211F4864B2205CFFF770FD36
:1030F00014E0082004002000441E40B200280DD037
:1031000000220021174864B2205C00F02DF8032152
:10311000144864B2205CFFF75BFDECE710BD10B50E
:103120000400104864B2205C00F092F8002801D13D
:10313000002000E0012010BD10B50400200040B2C6
:10314000FFF7EDFF00280AD10A20FFF73AFE200022
:1031500040B2FFF7E4FF002801D1002000E0012089
:1031600010BD0000B80BFF1F70B504000D00160065
:103170004FF480712000C0B2FFF708FD6DB2002D42
:1031800011D14348E4B2611150F821004049E4B242
:10319000621151F822104969012214F01F039A406C
:1031A0009143416136E03A48E4B2611150F82100A0
:1031B0003749E4B2621151F822104969012214F032
:1031C0001F039A4011434161F6B2002E11D13048DD
:1031D000E4B2611150F821000068012114F01F02CF
:1031E000914088432A49E4B2621151F822100860E4
:1031F00010E02748E4B2611150F821000068012175
:1032000014F01F02914008432149E4B2621151F8C1
:103210002210086070BD10B504001D48E4B26111B1
:1032200050F82100406914F01F010200CA40D00785
:1032300003D47B211748FFF716FD1548E4B261114E
:1032400050F82100012114F01F029140C16010BD0F
:1032500010B504000E48E4B2611150F82100406935
:1032600014F01F010200CA40D00703D58C21094881
:10327000FFF7F9FC0648E4B2611150F8210000693B
:1032800014F01F010200CA4012F0010010BD00003E
:103290001C0BFF1F545A00002DE9F04FA1B08246CD
:1032A000002017461D4602910B900DF1440B6FF064
:1032B00000490AE017F8011B0298D0470290002845
:1032C00000F0A2820B98401C0B90387808B90B983C
:1032D0009CE22528EED100200590069007900890EA
:1032E00009900A9001E040F0010017F8011F202921
:1032F000F9D023290DD02B2904D02D2906D030292F
:103300000AD00CE040F0020080B2EEE740F004008A
:10331000FAE740F00800F7E740F01000F4E72A2948
:103320000ED12968296051F8042B2960002A0D92DA
:1033300004D5514240F004000D9180B27F1C11E091
:1033400000210D9109E00D99494505D001EB81035C
:1033500002EB430130390D917F1C3A78A2F1300124
:103360000A29F0D339782E2903D04FF0FF310C9180
:103370001DE017F8011F2A2907D1296829607F1C41
:1033800051F8042B29600C9211E000210C9109E006
:103390000C99494505D001EB810302EB430130391B
:1033A0000C917F1C3A78A2F130010A29F0D3ADF8D4
:1033B00038000FF6B820397800F066FD08B117F82C
:1033C000010B8DF83A009DF83A00682802BF397861
:1033D0006829622005D06C2804BF38786C2803D196
:1033E00071208DF83A007F1C11A8049017F8014B4A
:1033F000B4F1250024D02038022840F2C5801338CB
:1034000000F0EB800B3800F04F81401E00F024816B
:10341000401E022840F2B880001F00F01D81401FAE
:1034200000F08380401E00F0D880401E29D0C01ECE
:103430000CD0801E00F0D180C01E00F0CE803DE197
:103440000120059025208DF8440043E1286828607C
:1034500050F8044B28600394DDF83080B8F1000F79
:1034600004D5204600F01CFD804607E042460021BE
:10347000204600F031FD08B1A0EB0408CDF818801B
:1034800028E1296829604FF03C0851F8040B2960B5
:103490000021CDE9000111A80390DDE90001049CA1
:1034A00011B908B90C9AC2B10206120FA0EB0212B0
:1034B0003032D2B23A2AA8BF27320009A8F101035C
:1034C00040EA017009091A5508BF0028984604D03F
:1034D000039A08EB04039A42E6D308EB0400039036
:1034E000C8F13C010C980691814209DA401A089013
:1034F0004FF6EF71BDF838000840ADF83800E9E04C
:10350000002840F1E7809DF8380000F014001028F2
:1035100040F0E0800D98059A801A089A801A401AA7
:103520000128C0F2D7800890D4E09DF83A006228C4
:103530001AD0682806D06A280CD06C281CD07128B4
:1035400008D019E02868286050F8041B28600B9800
:103550000880BFE02868286050F8042B28600B988A
:10356000C117C2E90001B5E02868286050F8041BC3
:1035700028600B980870ADE02868286050F8041B9C
:1035800028600B980860A5E02868C01D20F007029D
:103590002A60D2E9000108322A60CDE90001002941
:1035A00003D5012005902D200CE0BDF838008107DF
:1035B00003D5012005902B2004E0C00704D501208D
:1035C000059020208DF84400059911A80818039053
:1035D000214600A800F0D8F97CE09DF83A206C2A3A
:1035E0000DD0712A18BF6A2A09D12868C01D20F0A1
:1035F00007032B60D3E9000108332B6005E029683D
:10360000296051F8040B29600021CDE90001682AE6
:1036100008BF80B207D0622A08BFC0B203D0742AA4
:1036200018BF7A2A02D10021CDE900019DF83800A7
:10363000000730D5DDE90001002908BF00282AD0A5
:1036400044F02000782826D130208DF844008BF8F3
:103650000140022005901EE09DF83A00294600F046
:10366000D8F8CDE90001002904DA0598411C05913C
:103670002D210EE0BDF83800810704D50598411CC6
:1036800005912B2105E0C00705D50598411C059142
:10369000202100F80B10059911A808180390214665
:1036A00000A800F0EDF815E00120059028682860DA
:1036B00050F8041B28608DF844100BE001200590A1
:1036C0002520002C8DF8440004D00598411C05915C
:1036D00000F80B400D980599401A0899401A069970
:1036E000401A0999401A0799401A0A99A0EB010853
:1036F0009DF8380040070FD420208DF840000024AA
:1037000008E0012310AA00A9504600F098FB002809
:103710007AD1641C4445F4DB059C11AE0AE016F82E
:10372000011B0298D047029000286DD00B98401CD6
:103730000B90641E002CF2D130208DF84000002642
:10374000089C08E0012310AA00A9504600F077FB6E
:10375000002859D1761CA642F4DB069C039E0AE0A1
:1037600016F8011B0298D047029000284CD00B9805
:10377000401C0B90641E002CF2D130208DF84000CC
:103780000026099C07E0012310AA00A9504600F07A
:1037900056FBC8BB761CA642F5DB03980699079C2E
:1037A0000E1809E016F8011B0298D047029058B392
:1037B0000B98401C0B90641E002CF3D130208DF828
:1037C000400000260A9C07E0012310AA00A95046E9
:1037D00000F035FBC0B9761CA642F5DB9DF8380039
:1037E00040077FF572AD20208DF84000002400E0F6
:1037F000641C4445BFF669AD012310AA00A95046D8
:1038000000F01DFB0028F3D04FF0FF3021B0BDE8E1
:10381000F08F622826D068281DD06A2808D06C282E
:1038200027D0712804D0742823D07A280CD020E027
:103830000868C01D20F007000860D0E900230830A8
:1038400008601946104670470A680A6052F8040B6F
:103850000A60002170470A680A6052F8040B0A6087
:1038600000B20BE00A680A6052F8040B0A6040B22A
:1038700004E00A680A6052F8040B0A60C117704736
:103880002DE9FA4E05460A462F696F2A08BF08241B
:1038900005D041F02000782814BF0A2410243C26CB
:1038A000D5E90001642A18BF692A81468A4605D1F4
:1038B000002903DAD9F100096AEB4A0ABAF1000FCC
:1038C00008BFB9F1000F0CD1286B50B9082C36D1C4
:1038D00095F83800000732D530203B2687F83B00AA
:1038E0002DE0E31748465146224600F021FBA4FB99
:1038F0000023A9EB02023032D2B2A6F1010B3A2A20
:103900005E4603DB9DF80030513B9A1881465FEA22
:10391000010A0BF8072008BFB9F1000F03D0E868CF
:10392000F1198842DDD3082C09D195F83800000739
:1039300005D5F05D302802D0761E3020F055C6F156
:103940003C00A861F119E960296B884208DA081A7D
:1039500028624FF6EF71288F08402887BDE8F38E64
:1039600000290ED595F8381001F01401102908D15E
:10397000696B6A69891A2A6A891A081A0128A8BF14
:103980002862BDE8F38E00002DE9F34F8BB0D0E93B
:103990000089006B002801AF48BF062005D404BF92
:1039A00041F02000672802D101200B99086340F202
:1039B000FF720B984168C1F30A50904220D108036E
:1039C00002BF0B98006800280AD10B990320886178
:1039D0009DF8300061381A2858D30FF2A44109E04D
:1039E0000B99032088619DF8300061381A284AD36A
:1039F0000FF284410B98C068032200F011FB00E134
:103A0000012807DA0B9800F046FB012802DB0023AF
:103A10000026EDE00B9ADFF854B1526840F2FE3117
:103A200061F31E520B994A6040F2FE31461A40463D
:103A300049460022002300F04FFB38BF89F00049BF
:103A400036B247F297507043494990FBF1F636B2CF
:103A5000C6F10707012F92461BDBF80707D5524630
:103A60005B464046494600F04FFB804689467F1042
:103A70005046594652465B4600F046FB002F8246B0
:103A80008B46EAD126E00FF2EC31B3E70FF2EC31CE
:103A9000B0E77F420024374D12E0F80707D55246C1
:103AA0005B462046294600F02FFB04460D467F105A
:103AB0005046594652465B4600F026FB82468B46EE
:103AC000002FEAD14046494622462B4600F0EEFB45
:103AD000804689469DF830000B99DFF89CB0096B51
:103AE00040F02005662D0CBF06F10A00062047189D
:103AF000142FA8BF132730208DF804000DF1050402
:103B0000012F3BDB4046494600F0F4FC014604F13E
:103B1000080204234FF00A0CB1FBFCFC0CEB8C04F4
:103B2000A1EB4401303102F8011D0A21BCFBF1FE7A
:103B30000EEB8E04ACEB440430345B1E714602F88D
:103B4000014DE7D1083F012F02F10804D8DB00F056
:103B5000E7FC02460B464046494600F0EFFC0022D7
:103B60005B4600F0D1FA80468946CBE7000024404E
:103B7000A08601000000F03F84D797410DF10500B9
:103B8000201A0DF1050702E0401E761E7F1C3978D1
:103B90003029F9D0662D02D136B2711C03E0652DB3
:103BA0000CBF012100210B9A126B8B181BB298429B
:103BB000B8BF03461BB219001AD4814204DAC85DAB
:103BC0003528A8BF392000DA3020CA19521E00E07B
:103BD0005B1E12F80159491E8542F9D0392802D1DD
:103BE000C85D401CC855002902D57F1E5B1C761C91
:103BF00036B29DF830100B9800961BB23A4600F092
:103C000003F80DB0BDE8F08F2DE9F04786B0064609
:103C10008A4690461D4600F06EFD406A376B90F86C
:103C20000090012D02DA01250FF258284AF02000F9
:103C3000BDF93840662808BF641C13D0672840F0DF
:103C4000888014F1040F73DBBC4271DA96F83800F7
:103C5000641C000702D4BD42B8BF2F4624B23F1BEC
:103C600048BF002724B2F068B169012C21DA4A1C50
:103C700030230B54012F03DA96F83810090702D5C8
:103C800002F80090521CE742B8BF7C4224B2614265
:103C9000E719AF42B261B8BF3D4671622DB2F5611E
:103CA0002A46B3694146181800F0BAF9781BB06289
:103CB000AEE00818A54216DA2A46414600F0B0F9EF
:103CC000B1696918601BB161012F706203DA96F85F
:103CD0003800000705D5F06801F80090F069401C35
:103CE000F061B76294E02246414600F099F9B0696C
:103CF00020182D1B012F03DA96F83810090703D579
:103D0000F16800F80190401CB0612DB2AF42B8BF1D
:103D10003D46F068B3692DB22A4604EB0801181835
:103D200000F07EF9B0692818B061781B70626FE00E
:103D3000BD4204DA96F83810090758BF2F467F1E97
:103D400048BF0027BAF1670F0CBF4FF0650A4FF06C
:103D5000450AB169F06818F8013B0B544A1C012F61
:103D600005DA96F83810090758BFB26115D502F880
:103D70000090531C012FB3610FDB6D1E2DB2AF42BB
:103D8000B8BF3D462DB22A464146181800F048F902
:103D9000B0692818B061781B7062F068B16901EBF6
:103DA0000008200008F801AB03D42B2008F8010B11
:103DB00003E02D2108F8011B6442002502AF08E052
:103DC0000A2200A800F0B0FC019807F8010B6D1C56
:103DD000009C21B20129F3DA022D06DA4AF0200014
:103DE000652804BF302008F8010B4DB9302008F8D1
:103DF000010B07E06D1E02A8285C303008F8010BAB
:103E0000012DF7DAF068B1690818A8EB0000F0613D
:103E100096F8380000F0140010280DD17069B169CF
:103E20000818716A0818F1690818B16A0818716BE6
:103E30008842BCBF081A306206B0BDE8F087F8B50A
:103E400004460D4616461F46002004E0E86A401C62
:103E5000E8627F1E002047B116F8011BA868A04742
:103E6000A8600028F2D14FF0FF30F2BD686A6C7490
:103E70007A4C00006E616E004E414E00696E660025
:103E8000494E4600300000000278C9B28A421AB199
:103E90001CBF10F8012FF9E718BF00207047000081
:103EA00000F10103810704D010F8011B89B18107DB
:103EB000FAD10268B2F10131914311F0803F04BFA1
:103EC00050F8042FF6E710F8011B11B110F8011B90
:103ED000FBE7C01A70470000C9B2830706D0521E24
:103EE00022D310F8013B9942F7D11FE0083A13D3CF
:103EF00002F1040241EA012141EA014150F8043B88
:103F0000121F21BF4B40A3F1013C2CEA030C1CF013
:103F1000803FF3D0C9B2001F083210F8013B521E97
:103F200028BF91EA030FF8D818BF0120401E704740
:103F30001B4213D1094236D12AB18446B0FBF2F0BC
:103F400002FB10C2704700F0F7BBFCD30022002335
:103F500070470B000200002100207047904271EB77
:103F6000030CF6D370B5B1FA81F4B3FA83F52C1BC8
:103F7000A340C4F1200532FA05F63343A2405FF0B6
:103F80000046E64002E05B085FEA3202841A71EB09
:103F9000030524BF204629467641F4D302000B00D6
:103FA0003000002170BD012ACFD970B5140C20D08B
:103FB000B1FA81F4B2FA82F5C4F120046419B4F1C3
:103FC0002006D6D3B2405FF00044F440002502E062
:103FD00052085FEA3303C61A71EB020E24BF304663
:103FE000714664416D41F3D302000B0020002900AB
:103FF00070BD0C46B1FBF2F102FB11452D0445EA00
:104000001045B5FBF2F402FB145580B240EA0545B9
:10401000B5FBF2F002FB105240EA044070BD000014
:1040200062B38B0708D0521E11F8013B00F8013B28
:1040300000F024808B07F6D1830740F0208000BF7A
:10404000103A07D330B4B1E83810103AA0E838106D
:10405000F9D230BC530724BFB1E80810A0E808101B
:1040600044BF51F8043B40F8043BD20724BF31F869
:10407000022B20F8022B44BF0B7803707047083ADC
:1040800007D3B1E80810083A40F8043B40F804CBE5
:10409000F7D25307E4E730B4436803F0004201214C
:1040A0001B031B0B436004BF0368002B08D10DE00A
:1040B0000368DD0F45EA440444605B000360491E69
:1040C0004468E302F4D523031B0B436043681A439F
:1040D0004260084630BC70474FF4001C1CEB410F97
:1040E00094BF1CEB430F09E041EA030C50EA4C0C6F
:1040F00052EA0C0C03D2994208BF9042704714BF99
:104100008B42824270470000B0B581EA030C0CF08C
:10411000004C40F2FF7515EA11541DBF15EA135704
:10412000AC42AF4239E0E41923EA455343F480132B
:10413000C90241F0004141EA505EC7021100A7FBED
:10414000020200284FF00000EEFB01204FF00001BA
:10415000E3FB072118BF42F001024018002149414A
:10416000E3FB0E01A4F580640F0302D2520040412C
:10417000494154F101046CDD470872F1004250F1ED
:10418000000051EB0451A1F580115CBF41EA0C0124
:10419000B0BD4CEA05510020B0BD05EA1357AC4252
:1041A00014BFAF4241E050EA410E1CBF52EA430E39
:1041B00002E061460020B0BD24423C441BD15FEACE
:1041C000070EF6D0090302BF01460020AEF1140E1F
:1041D000B1FA81F7AEEB070401FA07FE0C37C7F11D
:1041E000200100FA07F7C8404EEA000E23EA4553C3
:1041F00043F48013A2E733F00043B3FA83F704BF1C
:10420000B2FA82FE77440B3FE41BB7F1200E2FBFBA
:1042100002FA0EF3BB40C7F1200E22FA0EFE38BFA1
:1042200043EA0E03BA40641C82E750EA410E14BF11
:1042300052EA430E6FF000014FF4001717EB430FE3
:104240008ABF194617EB410FB5E74CEA055100202C
:10425000B0BDD4F10104B4F120070FDAC4F1200796
:10426000520828BF42F0010210FA07F501FA07F7D9
:10427000E1BF2A43E0403843E1400FE0352C98DCB1
:10428000C7F1200452EA400220FA07F218BF42F0B8
:10429000010231FA07F0A1400A43002172F1004205
:1042A00050F1000051EB0C01B0BD0000F0B540F240
:1042B000FF7581EA030C0CF0004C15EA11541DBF88
:1042C00015EA1357AC42AF42E5E0BC41C1F313011C
:1042D000C3F31303801A994143F4801304D2641E7C
:1042E0004000494180185941C90241EA5051B1FB8F
:1042F000F3F603FB1611A2FB0675D7EBC020A9410C
:1043000002D2761E80185941C90241EA5051B1FBD0
:10431000F3FE03FB1E11A2FB0E75D7EBC020A941D3
:1043200003D2AEF1010E80185941890241EA905141
:10433000760546EA8E2EB1FBF3F603FB1611A2FBBF
:104340000675D7EB8020A94102D2761E801859410C
:10435000C90241EA50514EEA060EB1FBF3F603FBE7
:104360001611A2FB0675D7EBC020A94102D2761E1A
:1043700080185941C90241EA5051B1FBF3F703FBE0
:104380001711A2FB0735D3EBC020A94167F1000745
:104390000CBF004247F0010766F3D5274FEA1E31F4
:1043A000B80814F5806412DDBD0775F1004250EBCA
:1043B0000E5051EB045111F5801F5CBF41EA0C0116
:1043C000F0BD4CF07F6141F0E0410020F0BDBD0741
:1043D0006D0840EA0E5041F48011D4F10104B4F1AB
:1043E00020060ADAC4F120060200E04001FA06F3D2
:1043F000E1401843B24015430EE0342C13DCC6F103
:10440000200445EA40056D0820FA06F2154321FA1A
:1044100006F0A1400D43002175F1004250F100006B
:1044200051EB0C01F0BD00205FEA0C01F0BDCFB9EB
:1044300092185B41B3FA83F704BFB2FA82F6BF1950
:104440000B3FB7F120062FBF02FA06F3BB40C7F1BE
:10445000200622FA06F638BF3343BA401CB1E419ED
:10446000641E33E77F4231F00041B1FA81F404BFAA
:10447000B0FA80F6A4190B3CB4F120062FBF00FA65
:1044800006F1A140C4F1200620FA06F638BF3143F8
:10449000A0403C1B1AE7AC421ABF05EA1357AF42D3
:1044A00012E050EA41061CBF52EA4306BFE750EA59
:1044B0004107304661461CBF41EA0551F0BD52EA52
:1044C000430C08BFC143F0BD00204FF4001616EBAB
:1044D000410F98BF16EB430F08BF16EB410F24BFE7
:1044E000C14305E016EB430F0CBF61464CEA055192
:1044F000F0BD0000400D40EAC120490080F00D8071
:1045000040F00040490DA1F58061491C05D4D1F16E
:104510001F0154BFC840C01770474FF000007047DC
:10452000010000BF09D0B0FA80F18840C91CC1F574
:104530008461090501EBD0214005704770B44FF04C
:10454000004591EA030F44BF6B4000F0F7B800BF8D
:10455000841A71EB030604D26E40001BB14112199C
:1045600073414FF4001C1CEB410F34BF7CEB43063E
:1045700084E00C0DA4EB1356362E7DDC012E43DCBB
:1045800045EAC32343EA525312BFD20292025B08A8
:10459000240545EAC12141EA5051D2EBC02099419E
:1045A00025D407D1B0FA80F610FA06F164D00020C5
:1045B000203608E0B1FA81F6B140C6F1200220FAB7
:1045C00002F21143B0404FEAF474B4EB465434F0B5
:1045D00001064FEA74040AD8D6F50016760D04F0E9
:1045E0000044F04061FA06F25040F1404840C00AF1
:1045F00040EA415021F0004128BF5FEA500550F1E8
:10460000000044EBD12137E045EAC323DB0A45EA49
:10461000C121C90AB6F120050EDD42EA0242120CA0
:10462000C5F1200603FA06F6EB4042EA06056D42A4
:10463000984161F100010DE062FA06F5F240554043
:1046400063FA06FC82EA0C02F3405A406D42904144
:1046500061EB030111F4801F05D1641E620502D0D5
:104660006D004041494121F48011430875F1004338
:1046700050F1000041EB045170BC70471CEB410F3E
:1046800015D223F0004352EA43060BD04FEA4C0CFC
:10469000BCEB410F04D80C0D661E342EB7DDEBE7E2
:1046A000801A994150EA410608BF0021E4E708BF9B
:1046B0001CEB430F28BF6FF00001DDE780B5134806
:1046C00000F0A6F80FF24801016041608160C1600E
:1046D0000161416181610FF23C0242628162C1620B
:1046E000016341630FF2300282630FF23402C2634E
:1046F0000164416401BD10B5044800F089F8044626
:10470000206808B9FFF7DAFF204610BD6C0EFF1FC6
:10471000000000002E00000066616C736500000060
:10472000747275650000000091FBF2F303FB121137
:10473000C0E900317047000070470000841A71EB37
:10474000030603D2001BB141121973414FF4001C40
:104750001CEB410F34BF7CEB430443E00C0DA4EB96
:104760001356352E50DC45EAC323DB0A45EAC12146
:10477000C912B6F120050DDD63FA05F6EB4086EAB5
:104780000305124218BF45F00105C01851F10001A0
:104790000CD213E062FA06F5F2405540F3415A405C
:1047A000B340F3405A408018594107D349085FEAA3
:1047B00030005FEA350528BF45F0010501F580119D
:1047C000420875F1004250F1000041EB045170BC09
:1047D0004FF4001C1CEB410F38BF70470020090D3F
:1047E000090570471CEB410F10D252EA43060BD06B
:1047F000BCEB410F05D80C0DAB43661E342EB5DD66
:1048000002E0AB438018594170BC704770BC7047E0
:1048100070470000010000000000000000000000E0
:104820000000000000000000000000000000000088
:104830000000000000004E6F6E4D61736B61626C92
:104840006500000000486172644661756C74000088
:10485000000000004D656D4D616E6167656D656EB0
:104860007400004275734661756C740000000000AE
:10487000000055736167654661756C740000000047
:104880000000000000000000000000000000000028
:104890000000000000000000000000000000000018
:1048A0000000000000000000000000000000000008
:1048B000000000000000000000000000005356430C
:1048C000616C6C000000000000000000446562752F
:1048D000674D6F6E69746F72000000000000000089
:1048E0000000000000000000000050656E64535698
:1048F0000000000000000000005379735469636BEE
:104900000000000000000000444D413000000000A5
:1049100000000000000000444D4131000000000094
:10492000000000000000444D413200000000000083
:104930000000000000444D41330000000000000072
:1049400000000000444D4134000000000000000061
:10495000000000444D413500000000000000000050
:104960000000444D4136000000000000000000003F
:1049700000444D413700000000000000000000002E
:10498000444D4138000000000000000000000044D9
:104990004D41390000000000000000000000444DBF
:1049A00041313000000000000000000000444D4193
:1049B000313100000000000000000000444D413192
:1049C0003200000000000000000000444D4131337F
:1049D00000000000000000000000444D41313400A0
:1049E000000000000000000000444D41313500008F
:1049F0000000000000000000444D415F4572726FEE
:104A0000720000000000004D434D00000000000057
:104A10000000000000004654464C0000000000006A
:104A20000000000000526561645F436F6C6C697345
:104A3000696F6E004C56445F4C56570000000000F2
:104A40000000004C4C570000000000000000000077
:104A500000005761746368646F6700000000000025
:104A600000524E470000000000000000000000005F
:104A700049324330000000000000000000000049FF
:104A800032433100000000000000000000005350DD
:104A900049300000000000000000000000535049B1
:104AA00031000000000000000000000053504932B7
:104AB000000000000000000000000043414E305F95
:104AC0004F525F4D425F6275660043414E305F4218
:104AD00075735F4F666600000043414E305F45725C
:104AE000726F72000000000043414E305F54785FE7
:104AF0005761726E696E6743414E305F52785F57FF
:104B000061726E696E6743414E305F57616B655FDE
:104B1000557000000052657365727665643531002A
:104B200000000000526573657276656435320000DE
:104B300000000043414E315F4F525F4D425F62754E
:104B4000660043414E315F4275735F4F66660000F9
:104B50000043414E315F4572726F720000000000E9
:104B600043414E315F54785F5761726E696E67439F
:104B7000414E315F52785F5761726E696E67434193
:104B80004E315F57616B655F557000000052657371
:104B90006572766564353900000000005265736502
:104BA0007276656436300000000000554152543082
:104BB0005F52585F54580000000055415254305F16
:104BC00045525200000000000055415254315F52DE
:104BD000585F54580000000055415254315F45520F
:104BE0005200000000000055415254325F52585F9D
:104BF00054580000000055415254325F4552520053
:104C0000000000000055415254335F52585F545821
:104C10000000000055415254335F455252000000DD
:104C200000000055415254345F52585F5458000000
:104C3000000055415254345F4552520000000000BC
:104C40000055415254355F52585F545800000000DF
:104C500055415254355F455252000000000000415A
:104C60004443300000000000000000000000414408
:104C700043310000000000000000000000434D50E0
:104C8000300000000000000000000000434D5031E3
:104C90000000000000000000000000434D50320002
:104CA0000000000000000000000046544D300000ED
:104CB00000000000000000000046544D31000000DC
:104CC000000000000000000046544D3200000000CB
:104CD00000000000000000434D54000000000000F0
:104CE00000000000000052544300000000000000DB
:104CF0000000000000526573657276656438330009
:104D00000000000050495430000000000000000086
:104D10000000005049543100000000000000000075
:104D20000000504954320000000000000000000064
:104D30000050495433000000000000000000000053
:104D40005044423000000000000000000000005508
:104D500053423000000000000000000000005553E6
:104D600042444344000000000000000000454E455E
:104D7000545F313538385F54696D6572454E45541E
:104D80005F5472616E736D69740000454E45545FE7
:104D900052656365697665000000454E45545F4580
:104DA00072726F7200000000004932533000000040
:104DB00000000000000000005344484300000000D1
:104DC00000000000000000444143300000000000EB
:104DD00000000000000044414331000000000000DA
:104DE00000000000005453493000000000000000A3
:104DF000000000004D4347000000000000000000DC
:104E00000000004C5054696D657200000000000005
:104E100000005265736572766564313032000000BF
:104E200000504F52544100000000000000000000FC
:104E3000504F52544200000000000000000000509B
:104E40004F52544300000000000000000000504F8B
:104E500052544400000000000000000000504F5277
:104E6000544500000000000000000000526573651A
:104E700072766564313038000000005265736572E7
:104E800076656431303900000000526573657276D2
:104E900065643131300000000052657365727665DB
:104EA00064313131000000005265736572766564CB
:104EB00031313200000000526573657276656431ED
:104EC00031330000000052657365727665643131DC
:104ED00034000000005265736572766564313135C7
:104EE00000000000526573657276656431313600EA
:104EF00000000052657365727665643131370000D9
:104F000000005265736572766564313138000000C7
:104F100000526573657276656431313900000000B6
:104F200000F00F4040F00F4080F00F40C0F00F4005
:104F300000F10F4066000A1D3200070164000710EF
:104F40006E000406780004088200040A8C00040C39
:104F50009600040EA0000410AA000412B400041469
:104F6000BE000416C8000418D200041ADC00041C99
:104F7000E100041DE600041EEB00041FF40003170B
:104F8000FA000318130101062C010214000109089C
:104F90000090044000A0044000B0044000C0044061
:104FA00000D0044000A0064000B0064000C006400B
:104FB00000D0064000A00E4000B00E406A6E6B6C40
:104FC000676D4E4F3435363702040101180EFF1F4E
:104FD000680EFF1F180EFF1F180EFF1F180EFF1F71
:104FE000010CFF1FE80BFF1F000000000000000085
:104FF00000000000000000000000000000000000B1
:105000000000000000000000DFF800F0A50DFF1F09
:10501000DFF8981340B231F8201040B20128C0F2F6
:105020006A8140B2162880F266810022DFF8803360
:105030001A7089B23D2904DA0022DFF874335A70FD
:1050400077E089B2792904DA0122DFF864335A70F3
:105050006FE089B2B52904DA0222DFF854335A70BE
:1050600067E089B2F12904DA0322DFF844335A7089
:105070005FE089B2B1F5967F04DC0422DFF83033BB
:105080005A7056E089B2B1F5B47F04DC0522DFF82E
:1050900020335A704DE089B2B1F5D27F04DC06228C
:1050A000DFF80C335A7044E089B2B1F5F07F04DCCC
:1050B0000722DFF8FC325A703BE089B2B1F5077F76
:1050C00004DC0822DFF8E8325A7032E089B2B1F528
:1050D000167F03DC0922B64B5A702AE089B2B1F57B
:1050E000257F03DC0A22B24B5A7022E089B2B1F567
:1050F000347F03DC0B22AE4B5A701AE089B2B1F553
:10510000437F03DC0C22AA4B5A7012E089B2B1F53E
:10511000527F03DC0D22A64B5A700AE089B2B1F52A
:10512000617F03DC0E22A24B5A7002E00F22A04BDB
:105130005A7089B21A2903DA00229D4B9A7069E0ED
:1051400089B2332903DA0122994B9A7062E089B25D
:105150004C2903DA0222964B9A705BE089B26529EA
:1051600003DA0322924B9A7054E089B27E2903DA63
:1051700004228F4B9A704DE089B2972903DA0522F9
:105180008B4B9A7046E089B2B02903DA0622884B2D
:105190009A703FE089B2C92903DA0722844B9A70DA
:1051A00038E089B2E22903DA0822814B9A7031E0B3
:1051B00089B2FB2903DA09227D4B9A702AE089B271
:1051C000B1F58A7F03DA0A22794B9A7022E089B21C
:1051D000B1F5967F03DC0B22754B9A701AE089B209
:1051E000B1F5A37F03DA0C22714B9A7012E089B2F9
:1051F000B1F5AF7F03DC0D226D4B9A700AE089B2E6
:10520000B1F5BC7F03DA0E22694B9A7002E00F22DF
:10521000674B9A7089B21A2903DA0022644BDA705C
:1052200069E089B2332903DA0122614BDA7062E066
:1052300089B24C2903DA02225D4BDA705BE089B255
:10524000652903DA03225A4BDA7054E089B27E29C9
:1052500003DA0422564BDA704DE089B2972903DA5B
:105260000522534BDA7046E089B2B02903DA0622F0
:105270004F4BDA703FE089B2C92903DA07224C4B61
:10528000DA7038E089B2E22903DA0822484BDA7092
:1052900031E089B2FB2903DA0922454BDA702AE0B2
:1052A00089B2B1F58A7F03DA0A22414BDA7022E033
:1052B00089B2B1F5967F03DC0B223D4BDA701AE020
:1052C00089B2B1F5A37F03DA0C22394BDA7012E010
:1052D00089B2B1F5AF7F03DC0D22354BDA700AE0FD
:1052E00089B2B1F5BC7F03DA0E22314BDA7002E0ED
:1052F0000F222F4BDA70704710B50400200040B227
:10530000FFF786FE2B48007810F0FD002949087051
:105310002848007850F0100026490870B820264927
:10532000087026480078C006FBD424480078C0F3F3
:105330008100C0B20228F8D11D48C3781C48827889
:105340001B4841781A480078FFF75EFE174864B2A0
:1053500010EB8400807810F007001949087013489A
:1053600064B210EB8400C07810F01F0050F04000D1
:1053700014490870114800788006FBD50F48007862
:105380004006FBD50C48007810F03F000A49087031
:105390000A480078C0F38100C0B20328F8D103485E
:1053A00064B230F82400C0B210BD0000300BFF1F03
:1053B000880BFF1F014006400040064006400640A3
:1053C0000440064005400640DFF800F0672C00006E
:1053D000DFF800F0C32D0000F02054490870534856
:1053E00000780006FBD5514800787121084201D0B1
:1053F000002000E00120704780B54D48006850F45F
:1054000000204B490860494800780006FBD5F02091
:10541000464908700A20FFF7DBFF01BD10B582B0D6
:105420000400A4B24FF4805000FB04F00090092067
:10543000404908709DF802003F4908709DF801003E
:105440003E4908709DF800003D490870FFF7C4FF11
:10545000002801D100200EE0A4B2002C0AD15FF098
:10546000FF327FF001034FF48161200080B200F031
:1054700003F800E0012016BDF0B583B006000F0070
:1054800014001D00B6B24FF48050BFB200FB06708E
:105490000190BFB2082097FBF0F101FB10710029C9
:1054A00003D0EA212748FFF78FFFBFB2B7F5805F2F
:1054B00003DDEC212348FFF787FF9DF806001E4916
:1054C00008709DF805001D4908709DF804001C49EE
:1054D000087000949DF803001B4908709DF80200B5
:1054E0001A4908709DF80100194908709DF80000DC
:1054F0001849087007200F49087000959DF80300AF
:10550000154908709DF80200144908709DF80100C3
:10551000134908709DF8000012490870FFF75CFFFE
:10552000002801D1002000E00120FEBD0000024063
:1055300004F001400700024006000240050002405E
:1055400004000240F05900000B0002400A00024033
:1055500009000240080002400F0002400E00024015
:105560000D0002400C000240F0B4114E36683400C9
:105570000F4E366856F47F060D4F3E600E0616F04D
:10558000706656EA0076170517F470073E431F044D
:1055900017F470273E43074F3E6000263500EDB2FA
:1055A0009D4201D26D1CFAE7014E3460F0BC704799
:1055B00000F001404480044080B500F095F800F010
:1055C0002AF800F00AF8FDF76BFB01220121042004
:1055D000FDF7CAFD00F0A8F8FEE780B50420FFF74C
:1055E0008BFE33490860324800684FF47A714843B3
:1055F000304908602F4800682F490968C1F30361EA
:10560000491CB0FBF1F02D4908605FF4E131032043
:10561000FDF738FC01BD2DE9F843294829498842A6
:105620000DD000208046B8F5826F08D2254850F88A
:105630002800234941F8280018F10108F3E7204821
:1056400000F0D8F820480700204806002048040051
:10565000A01B80464046B0F10108002804D03078F5
:105660003870761C7F1CF5E71A4881461A480500F9
:10567000B5EB090080464046B0F10108002805D08E
:10568000002089F8000019F10109F4E713481449D2
:10569000144A531A98464346B3F10108002B04D02C
:1056A0000B780370491C401CF5E7BDE8F18300004E
:1056B000100EFF1F0C0EFF1F44800440140EFF1F2E
:1056C0000000FF1F000000001004FF1F144800002E
:1056D00008500000F40DFF1F6C0EFF1F040CFF1F8D
:1056E000C8530000B855000080B500F008F80C4819
:1056F00000884FF6FE7108400949088001BDEFF3AC
:10570000118072B64CF22051064A11804DF62811D4
:10571000044A1180C0B2002800D162B67047000070
:10572000002005400E2005402DE9F043ADF2BC4DB0
:10573000284E64275FF000080DF104094246390045
:10574000484600F06DF81AA90020FBF71BFE132253
:105750002149A6A8FBF73CFE0500012D03D11F48F7
:10576000FDF77EFB32E0002D19D11D48FDF778FBD7
:105770003000FEF795FB01001A48FDF771FBA6A962
:105780003000FCF799FAA6A8FCF71CF9A9980400C8
:1057900021001548FDF764FB652C06D303E0134890
:1057A000FDF75EFB12E0642004000021A6A8FCF7D0
:1057B00079F900AB220001A9A6A8FBF7DCFE01A93C
:1057C0000B48FDF74DFBA6A8FCF75EF90DF2BC4DAA
:1057D000BDE8F0831C5C0000A05D0000B05D00002F
:1057E000C05D0000545D0000685D0000E05D0000E9
:1057F000D05D000010B504004FF4007094FBF0F190
:1058000001FB1041002903D01E210348FDF72BFAAC
:105810000248046010BD0000805B000008ED00E05D
:1058200062F30F2262F31F42401810F0030308D006
:10583000C91A1FD3DB0748BF00F8012D28BF20F885
:10584000022D130030B414461546103928BF20E944
:105850003C00FAD8490728BF20E90C0048BF40F8AF
:10586000042D890028BF20F8022D48BF00F8012D23
:1058700030BC7047C91818BF00F8012DCB0728BFEE
:1058800000F8012D7047000000000000000000013A
:105890000000090200001A030000000400000205D5
:1058A00000001A0600001B0700001A080000090982
:1058B0000000090A00001A0B0000DB0C00001A0DA2
:1058C000FFFFFFFF0000000F00001A1000001A1178
:1058D00004001A12FFFFFFFF00001A14FFFFFFFF72
:1058E00000001A1600001A1700001A1804001A19EE
:1058F00000001A1A00001A1B00001B1C00001B1DD0
:1059000000001A1EFFFFFFFF00001A2000001A21EE
:1059100000001A2200001A2300001A2400001A2591
:1059200000001B260000022700001A2800000229A0
:1059300000001B2AFFFFFFFFFFFFFFFFFFFFFFFF2E
:10594000FFFFFFFFFFFFFFFFFFFFFFFFFFFFFFFF67
:10595000FFFFFFFF00001A3300001A3400001A3561
:10596000FFFFFFFF00001A3700001B38FFFFFFFF9B
:10597000FFFFFFFFFFFFFFFF00001B3C00001B3D80
:10598000FFFFFFFFFFFFFFFF433A5C4D6F6F6E733A
:105990007461725C41494C61625CB5DACAAEC8FDA3
:1059A000BDECB6F7D6C7C6D6D6C7C4DCB3B5BEBA4B
:1059B000C8FC5C6D656574696E676361725CCDBCC3
:1059C000CFF1BDC3D5FD5CCDBCCFF1CFD4CABE5C99
:1059D000534448435C436869705C7372635C4D4B2D
:1059E00036305F5379735469636B2E630000000097
:1059F000433A5C4D6F6F6E737461725C41494C61E8
:105A0000625CB5DACAAEC8FDBDECB6F7D6C7C6D67D
:105A1000D6C7C4DCB3B5BEBAC8FC5C6D6565746935
:105A20006E676361725CCDBCCFF1BDC3D5FD5CCD4B
:105A3000BCCFF1CFD4CABE5C534448435C436869D1
:105A4000705C7372635C4D4B36305F666C6173687B
:105A50002E630000433A5C4D6F6F6E737461725C2D
:105A600041494C61625CB5DACAAEC8FDBDECB6F71F
:105A7000D6C7C6D6D6C7C4DCB3B5BEBAC8FC5C6D43
:105A8000656574696E676361725CCDBCCFF1BDC33F
:105A9000D5FD5CCDBCCFF1CFD4CABE5C53444843E6
:105AA0005C436869705C7372635C4D4B36305F6752
:105AB00070696F2E63000000433A5C4D6F6F6E7328
:105AC0007461725C41494C61625CB5DACAAEC8FD72
:105AD000BDECB6F7D6C7C6D6D6C7C4DCB3B5BEBA1A
:105AE000C8FC5C6D656574696E676361725CCDBC92
:105AF000CFF1BDC3D5FD5CCDBCCFF1CFD4CABE5C68
:105B0000534448435C436869705C7372635C4D4BFB
:105B100036305F736468632E63000000433A5C4D67
:105B20006F6F6E737461725C41494C61625CB5DA8F
:105B3000CAAEC8FDBDECB6F7D6C7C6D6D6C7C4DC5C
:105B4000B3B5BEBAC8FC5C6D656574696E676361A8
:105B5000725CCDBCCFF1BDC3D5FD5CCDBCCFF1CF68
:105B6000D4CABE5C534448435C436869705C73723A
:105B7000635C4D4B36305F756172742E63000000BC
:105B8000433A5C4D6F6F6E737461725C41494C6156
:105B9000625CB5DACAAEC8FDBDECB6F7D6C7C6D6EC
:105BA000D6C7C4DCB3B5BEBAC8FC5C6D65657469A4
:105BB0006E676361725CCDBCCFF1BDC3D5FD5CCDBA
:105BC000BCCFF1CFD4CABE5C534448435C43686940
:105BD000705C7372635C6D6973632E630000000018
:105BE0000A2A2A2A2A64656661756C745F69737271
:105BF00020656E7465726564206F6E2076656374CF
:105C00006F722025642A2A2A2A2A0A0A2573204923
:105C10006E7465727275707400000000B8D0D0BBED
:105C2000C4FAD1A1D3C320C9BDCDE24B696E65745E
:105C30006973BFAAB7A2B0E520A3A15E5F5E0AC9DF
:105C4000BDCDE2C2DBCCB33A7663616E3132332E26
:105C5000636F6D0010B5074979441831064C7C44D8
:105C6000163404E00A68081D511888470146A1420D
:105C7000F8D110BD500000005C0000004173736556
:105C80007274696F6E206661696C656420696E204C
:105C90002573206174206C696E652025640A0000FC
:105CA0004EF68851CEF20001086840F4700008609A
:105CB000BFF34F8FBFF36F8F4FF00070E1EE100A0C
:105CC0007047000027C0FFFF78000000F40DFF1FA1
:105CD000000000000ABDF8D0D0BDE2CBF8B2D9D7A1
:105CE000F7A3ACC7EBD6D8D0C2CBA2C8EBB9CCBC1B
:105CF000FE00000000F00BF8002801D0FFF7AAFF1B
:105D00000020C046C046FFF70FFD00F002F801205A
:105D1000704700F001B800000746384600F002F86E
:105D2000FBE700002021090326311820ABBEF9E76C
:105D300038B504460D46284600F006F8A84218BFBC
:105D40000024204632BD00000149FCF79FBF00BF80
:105D5000C40BFF1F0AD7D6B7FBB4AEB3A4B6C8CEE8
:105D6000AA3A2564000000000ACEC4BCFEB4F3D0F9
:105D7000A1CEAAA3BA2564200A0000000ABDF8C873
:105D8000EBCBC0D1ADBBB7B5C8B4FDA3A10000003B
:105D9000222A2B2C3A3B3C3D3E3F5B5D7C7F000042
:105DA000303A2F4669726544656D6F2E74787400C1
:105DB0000AC3BBB2E5C8EB5344BFA83F3F0A00008B
:105DC0000ACEC4BCFEB4F2BFAAB3C9B9A6200A0069
:105DD000CEC4BCFEC4DAC8DDCEAAA3BA0A257300BD
:105DE0000AB7B5BBD8D6B5D2ECB3A300C046C046FF
:105DF000FFF756FFFFF77EFF0000000000000000E5
:105E00000000000000000000000000000000000092
:105E100000000000FFFFFFFFFFFFFFFF000000008A
:105E20000000000000000000000000000000000072
:105E30000000000000000000000000000000000062
:105E4000FFFFFFFFFFFF0000000000000000000058
:105E50000000000000000000000000000000000042
:105E60000000000000000000000000000000000032
:105E70000000000000000000000000000000000022
:0400000500005DEDAD
:00000001FF
